:020000040800F2
:1000000000000220F92C030895010308970103085A
:10001000990103089B0103089D01030800000000EB
:100020000000000000000000000000009F01030825
:10003000A101030800000000A3010308A5010308B3
:10004000492D0308492D0308492D0308492D0308AC
:10005000492D0308492D0308492D0308492D03089C
:10006000492D0308492D0308492D0308492D03088C
:10007000492D0308492D0308AD010308BD010308FC
:10008000492D0308492D0308492D0308492D03086C
:10009000492D0308492D0308492D0308492D03085C
:1000A000492D0308492D0308492D0308492D03084C
:1000B000492D0308492D0308492D0308492D03083C
:1000C000492D0308492D0308492D0308CD010308D4
:1000D000DD010308ED010308492D0308492D03083C
:1000E000492D0308492D0308492D0308492D03080C
:1000F000492D0308492D0308492D0308492D0308FC
:10010000492D0308492D0308492D0308492D0308EB
:10011000492D0308492D0308FD010308492D030853
:100120000D020308492D03081D0203082D020308D0
:10013000492D0308492D0308492D0308492D0308BB
:10014000492D0308492D0308492D0308492D0308AB
:10015000492D0308492D03083D020308492D0308D2
:10016000492D0308492D0308492D0308492D03088B
:10017000492D0308492D0308492D030800000000FC
:08018000492D0308492D030875
:1001C00010B5054C237833B9044B13B10448AFF391
:1001D00000800123237010BD180C002000000000D7
:1001E000048D030808B5034B1BB103490348AFF363
:1001F000008008BD000000001C0C0020048D0308D6
:1002000053B94AB9002908BF00281CBF4FF0FF317D
:100210004FF0FF3000F06CB9ADF1080C6DE904CE81
:1002200000F006F8DDF804E0DDE9022304B07047D1
:100230002DE9F047089E0D4604468E46002B40F0FF
:1002400082808A42174646D9B2FA82F24AB1C2F196
:10025000200105FA02F320FA01F1974041EA030E6A
:1002600094404FEA1748230CBEFBF8FCB9B208FBD8
:100270001CEE43EA0E430CFB01F098420AD9FB182E
:100280000CF1FF3580F01681984240F21381ACF1F9
:10029000020C3B441B1AA4B2B3FBF8F008FB10336A
:1002A00044EA034400FB01F1A14209D93C1900F1E1
:1002B000FF3380F00181A14240F2FE8002383C44CD
:1002C000641A40EA0C4000211EB1D4400023C6E964
:1002D0000043BDE8F08702B9FFDEB2FA82F2002ADD
:1002E0004FD1CB1B4FEA174E1FFA87F80121B3FB02
:1002F000FEFC250C0EFB1C3345EA034508FB0CF302
:10030000AB4207D97D190CF1FF3002D2AB4200F2AB
:10031000E7808446ED1AA3B2B5FBFEF00EFB105544
:1003200043EA054408FB00F8A04507D93C1900F151
:10033000FF3302D2A04500F2D7801846A4EB080490
:1003400040EA0C40C0E78B4208D9002E00F0AF8095
:100350000021C6E900050846BDE8F087B3FA83F13D
:1003600000294BD1AB4202D3824200F2B780841AFB
:1003700065EB030301209E46002EAAD0C6E9004E7D
:10038000A7E7C2F1200C01FA02F3974020FA0CF023
:100390004FEA174E21FA0CFC1843BCFBFEF1050C8A
:1003A0000EFB11CC1FFA87F845EA0C4501FB08F358
:1003B000AB4204FA02F409D97D1901F1FF3C80F047
:1003C0008B80AB4240F2888002393D44EB1A85B203
:1003D000B3FBFEF00EFB103345EA034500FB08F3C8
:1003E000AB4207D97D1900F1FF3C71D2AB426FD906
:1003F00002383D44EB1A40EA014178E7C1F1200C94
:100400008B4022FA0CF71F4320FA0CF405FA01F393
:100410004FEA174E25FA0CF51C43230CB5FBFEF9E9
:100420001FFA87F80EFB195543EA054509FB08FA40
:10043000AA4502FA01F200FA01F308D97D1909F17F
:10044000FF3047D2AA4545D9A9F102093D44A5EBA1
:100450000A05A4B2B5FBFEF00EFB105544EA0544B4
:1004600000FB08F8A04507D93C1900F1FF352DD253
:10047000A0452BD902383C4440EA0940A4EB0804CB
:10048000A0FB02894C45C6464D4619D316D05EB135
:10049000B3EB0E0264EB050404FA0CFCCA404CEA10
:1004A0000202CC40C6E900240021BDE8F0873146B5
:1004B00030460EE7AC46EDE6184601E74345E6D286
:1004C000B8EB020E69EB07050138E0E72846D3E7F1
:1004D00060468FE78146BAE7614677E708464BE713
:1004E000ACF1020C3D4415E702383C4426E700BF5E
:1004F000704700BF844641EA000313F003036DD147
:10050000403A41D351F8043B40F8043B51F8043BD6
:1005100040F8043B51F8043B40F8043B51F8043BDD
:1005200040F8043B51F8043B40F8043B51F8043BCD
:1005300040F8043B51F8043B40F8043B51F8043BBD
:1005400040F8043B51F8043B40F8043B51F8043BAD
:1005500040F8043B51F8043B40F8043B51F8043B9D
:1005600040F8043B51F8043B40F8043B51F8043B8D
:1005700040F8043B51F8043B40F8043B51F8043B7D
:1005800040F8043B403ABDD2303211D351F8043B1D
:1005900040F8043B51F8043B40F8043B51F8043B5D
:1005A00040F8043B51F8043B40F8043B103AEDD2CC
:1005B0000C3205D351F8043B40F8043B043AF9D21D
:1005C000043208D0D2071CBF11F8013B00F8013BF0
:1005D00001D30B8803806046704700BF082A13D3FD
:1005E0008B078DD010F003038AD0C3F10403D21A15
:1005F000DB071CBF11F8013B00F8013B80D331F849
:10060000023B20F8023B7BE7043AD9D3013A11F8C8
:10061000013B00F8013BF9D20B7803704B78437033
:100620008B78837060467047000000000000000077
:1006300000000000000000000000000000000000BA
:10064000A2EB0300704700BF02780B78012A28BF95
:100650009A42F5D16DE9044540EA0104CDE902670B
:100660006FF0000C4FEA447212B380EA010414F0F8
:10067000070F6AD100F0070420F0070004F003051B
:1006800021F007014FEAC505F0E8042314F0040F38
:10069000F1E804670CFA05F462EA040266EA04066B
:1006A0000AD063EA0403624667EA0407664603E089
:1006B000F0E80423F1E8046782FA4CF582EA0604C4
:1006C000A4FA8CF46CBB83FA4CF583EA0705A5FA0F
:1006D0008CF595B950E9022351E9026782FA4CF58D
:1006E00082EA0604A4FA8CF483FA4CF583EA07053F
:1006F000A5FA8CF52543DBD09CB92DBAB5FA85F463
:1007000024F0070427FA04F1DDE9026723FA04F371
:1007100003F0FF0001F0FF01FDE80445A0EB01003C
:10072000704724BAB4FA84F424F0070426FA04F1DA
:10073000DDE9026722FA04F202F0FF0001F0FF0196
:10074000FDE80445A0EB0100704714F0030F3CD115
:1007500010F0030428D150F8082B51F8083B82FA16
:100760004CF582EA0305A5FA8CF55DB950F8042C26
:1007700051F8043C82FA4CF582EA0305A5FA8CF59F
:10078000002DE8D02DBAB5FA85F424F0070423FA39
:1007900004F122FA04F202F0FF0001F0FF01FDE88B
:1007A0000445A0EB010070474FEAC40420F00300A9
:1007B00050F8082B21F0030151F8083B0CFA04F41F
:1007C00062EA040263EA0403C9E710F003041AD0E2
:1007D000A1EB040120F00300E40750F8042B06D03D
:1007E0000FD28B785FFAA2F4E41A06D12BB1CB7842
:1007F0005FFAB2F4E41A00D11BB920465DF8104B41
:10080000704701F1040150F8042BCC0721F00301DB
:1008100051F8043B48D824D222F07F4482FA4CF5A8
:1008200094EA1325A5FA8CF50AD165B951F8043B71
:1008300084EA0204B4EB036F0ED150F8042BEBE70B
:100840004FEA132355E035F07F454DD10878FDE898
:100850000445C0F1000070474FEA126203F0FF0345
:1008600047E002EA1C4482FA4CF594EA1345A5FAE3
:100870008CF50AD165B951F8043B84EA0204B4EB63
:10088000034F0CD150F8042BEBE74FEA134330E051
:1008900015EA1C4528D10B884FEA124229E04FEA9D
:1008A000124203EA1C4324E002F0FF0482FA4CF5F2
:1008B00094EA1365A5FA8CF50AD165B951F8043BA1
:1008C00084EA0204B4EB032F09D150F8042BEBE7C0
:1008D0004FEA13630DE015F0FF0F05D10B684FEAE7
:1008E000122223F07F4304E04FF00000FDE80445AE
:1008F000704712BA1BBA82FA4CF482EA0304A4FAD3
:100900008CF5B5FA85F402FA04F203FA04F34FEA1F
:100910001260FDE80445A0EB136070470000000082
:1009200000000000000000000000000000000000C7
:1009300000000000000000000000000000000000B7
:1009400090F800F06DE9024520F007016FF0000C0F
:1009500010F0070491F820F040F049804FF00004B7
:100960006FF00700D1E9002391F840F000F1080092
:1009700082FA4CF2A4FA8CF283FA4CF3A2FA8CF3CA
:100980004BBBD1E9022382FA4CF200F10800A4FA31
:100990008CF283FA4CF3A2FA8CF3E3B9D1E9042385
:1009A00082FA4CF200F10800A4FA8CF283FA4CF3BC
:1009B000A2FA8CF37BB9D1E9062301F1200182FA76
:1009C0004CF200F10800A4FA8CF283FA4CF3A2FA7C
:1009D0008CF3002BC6D0002A04BF04301A4612BA8A
:1009E000B2FA82F2FDE8024500EBD2007047D1E98D
:1009F000002304F00305C4F100004FEAC50514F01C
:100A0000040F91F840F00CFA05F562EA05021CBFEC
:100A100063EA050362464FF00004A9E70000000006
:100A200001F0FF01102A2BDB10F0070F08D010F89F
:100A3000013B013A8B422DD010F0070F42B3F6D1A3
:100A4000F0B441EA012141EA014122F007047FF0BC
:100A500000070023F0E80256083C85EA010586EA13
:100A6000010685FA47F5A3FA87F586FA47F6A5FA4F
:100A700087F68EB9EED1F0BC01F0FF0102F007025B
:100A800032B110F8013B013A83EA010313B1F8D106
:100A90000020704701387047002D06BF35460338E7
:100AA000073815F0010F07D1013015F4807F02BF20
:100AB000013015F4C03F0130F0BC0138704700BF71
:100AC00081F0004102E000BF83F0004330B54FEAFF
:100AD00041044FEA430594EA050F08BF90EA020F6C
:100AE0001FBF54EA000C55EA020C7FEA645C7FEAFF
:100AF000655C00F0E2804FEA5454D4EB5555B8BF22
:100B00006D420CDD2C4480EA020281EA030382EA92
:100B1000000083EA010180EA020281EA0303362D24
:100B200088BF30BD11F0004F4FEA01314FF4801CF7
:100B30004CEA113102D0404261EB410113F0004F09
:100B40004FEA03334CEA133302D0524263EB4303C0
:100B500094EA050F00F0A780A4F10104D5F1200E5E
:100B60000DDB02FA0EFC22FA05F2801841F10001B9
:100B700003FA0EF2801843FA05F359410EE0A5F18D
:100B800020050EF1200E012A03FA0EFC28BF4CF0BE
:100B9000020C43FA05F3C01851EBE37101F0004574
:100BA00007D54FF0000EDCF1000C7EEB00006EEB81
:100BB0000101B1F5801F1BD3B1F5001F0CD349080B
:100BC0005FEA30004FEA3C0C04F101044FEA445262
:100BD00012F5800F80F09A80BCF1004F08BF5FEAE9
:100BE000500C50F1000041EB045141EA050130BDC9
:100BF0005FEA4C0C404141EB0101013C28BFB1F5DB
:100C0000801FE9D291F0000F04BF01460020B1FA25
:100C100081F308BF2033A3F10B03B3F120020CDAF8
:100C20000C3208DD02F1140CC2F10C0201FA0CF0D6
:100C300021FA02F10CE002F11402D8BFC2F1200C3B
:100C400001FA02F120FA0CFCDCBF41EA0C019040F1
:100C5000E41AA2BF01EB0451294330BD6FEA04043A
:100C60001F3C1CDA0C340EDC04F11404C4F1200225
:100C700020FA04F001FA02F340EA030021FA04F337
:100C800045EA030130BDC4F10C04C4F1200220FA8E
:100C900002F001FA04F340EA0300294630BD21FACC
:100CA00004F0294630BD94F0000F83F4801306BF92
:100CB00081F480110134013D4EE77FEA645C18BF86
:100CC0007FEA655C29D094EA050F08BF90EA020F1D
:100CD00005D054EA000C04BF1946104630BD91EA15
:100CE000030F1EBF0021002030BD5FEA545C05D118
:100CF0004000494128BF41F0004130BD14F5800457
:100D00003CBF01F5801130BD01F0004545F0FE41CA
:100D100041F470014FF0000030BD7FEA645C1ABFFF
:100D2000194610467FEA655C1CBF0B46024650EA36
:100D3000013406BF52EA033591EA030F41F4002162
:100D400030BD00BF90F0000F04BF0021704730B5E8
:100D50004FF4806404F132044FF000054FF00001BD
:100D600050E700BF90F0000F04BF0021704730B57E
:100D70004FF4806404F1320410F0004548BF404253
:100D80004FF000013EE700BF42004FEAE2014FEAA8
:100D900031014FEA02701FBF12F07F4393F07F4F83
:100DA00081F06051704732F07F4208BF704793F086
:100DB0007F4F04BF41F40021704730B54FF4607499
:100DC00001F0004521F000411CE700BF50EA01029C
:100DD00008BF704730B54FF000050AE050EA010245
:100DE00008BF704730B511F0004502D5404261EBB5
:100DF00041014FF4806404F132045FEA915C3FF4F6
:100E0000D8AE4FF003025FEADC0C18BF03325FEA92
:100E1000DC0C18BF033202EBDC02C2F1200300FA43
:100E200003FC20FA02F001FA03FE40EA0E0021FA68
:100E300002F11444BDE600BF70B54FF0FF0C4CF456
:100E4000E06C1CEA11541DBF1CEA135594EA0C0F08
:100E500095EA0C0F00F0DEF82C4481EA030621EA43
:100E60004C5123EA4C5350EA013518BF52EA03357E
:100E700041F4801143F4801338D0A0FB02CE4FF030
:100E80000005E1FB02E506F00042E0FB03E54FF060
:100E90000006E1FB03569CF0000F18BF4EF0010E58
:100EA000A4F1FF04B6F5007F64F5407404D25FEA54
:100EB0004E0E6D4146EB060642EAC62141EA555107
:100EC0004FEAC52040EA5E504FEACE2EB4F1FD0C49
:100ED00088BFBCF5E06F1ED8BEF1004F08BF5FEAC7
:100EE000500E50F1000041EB045170BD06F0004679
:100EF00046EA010140EA020081EA0301B4EB5C0426
:100F0000C2BFD4EB0C0541EA045170BD41F480111D
:100F10004FF0000E013C00F3AB8014F1360FDEBF42
:100F2000002001F0004170BDC4F10004203C35DA1E
:100F30000C341BDC04F11404C4F1200500FA05F3A1
:100F400020FA04F001FA05F240EA020001F0004242
:100F500021F0004110EBD37021FA04F642EB0601B8
:100F60005EEA430E08BF20EAD37070BDC4F10C04E2
:100F7000C4F1200500FA04F320FA05F001FA04F2A6
:100F800040EA020001F0004110EBD37041F1000192
:100F90005EEA430E08BF20EAD37070BDC4F120059D
:100FA00000FA05F24EEA020E20FA04F301FA05F205
:100FB00043EA020321FA04F001F0004121FA04F2AD
:100FC00020EA020000EBD3705EEA430E08BF20EA7D
:100FD000D37070BD94F0000F0FD101F000464000B7
:100FE00041EB010111F4801F08BF013CF7D041EA39
:100FF000060195F0000F18BF704703F0004652003D
:1010000043EB030313F4801F08BF013DF7D043EA0D
:101010000603704794EA0C0F0CEA135518BF95EAC3
:101020000C0F0CD050EA410618BF52EA4306D1D14A
:1010300081EA030101F000414FF0000070BD50EA69
:10104000410606BF1046194652EA430619D094EAF3
:101050000C0F02D150EA013613D195EA0C0F05D1DD
:1010600052EA03361CBF104619460AD181EA030131
:1010700001F0004141F0FE4141F470014FF00000E9
:1010800070BD41F0FE4141F4780170BD70B54FF084
:10109000FF0C4CF4E06C1CEA11541DBF1CEA135504
:1010A00094EA0C0F95EA0C0F00F0A7F8A4EB0504E6
:1010B00081EA030E52EA03354FEA013100F08880DD
:1010C0004FEA03334FF0805545EA131343EA1263A6
:1010D0004FEA022245EA111545EA10654FEA00265B
:1010E0000EF000419D4208BF964244F1FD0404F514
:1010F000407402D25B084FEA3202B61A65EB030570
:101100005B084FEA32024FF480104FF4002CB6EB2C
:10111000020E75EB030E22BFB61A754640EA0C00AC
:101120005B084FEA3202B6EB020E75EB030E22BFEC
:10113000B61A754640EA5C005B084FEA3202B6EB2D
:10114000020E75EB030E22BFB61A754640EA9C00EC
:101150005B084FEA3202B6EB020E75EB030E22BFBC
:10116000B61A754640EADC0055EA060E18D04FEA7A
:10117000051545EA16754FEA06164FEAC30343EA1A
:1011800052734FEAC2025FEA1C1CC0D111F4801FE7
:101190000BD141EA00014FF000004FF0004CB6E7E0
:1011A00011F4801F04BF01430020B4F1FD0C88BF7F
:1011B000BCF5E06F3FF6AFAEB5EB030C04BFB6EB8A
:1011C000020C5FEA500C50F1000041EB045170BD7D
:1011D0000EF0004E4EEA113114EB5C04C2BFD4EBAA
:1011E0000C0541EA045170BD41F480114FF0000E2E
:1011F000013C90E645EA060E8DE60CEA135594EAAA
:101200000C0F08BF95EA0C0F3FF43BAF94EA0C0FAC
:101210000AD150EA01347FF434AF95EA0C0F7FF421
:1012200025AF104619462CE795EA0C0F06D152EA75
:1012300003353FF4FDAE1046194622E750EA410659
:1012400018BF52EA43067FF4C5AE50EA41047FF46A
:101250000DAF52EA43057FF4EBAE12E74FF0FF3CCF
:1012600006E000BF4FF0010C02E000BF4FF0010CA0
:101270004DF804CD4FEA410C7FEA6C5C4FEA430C19
:1012800018BF7FEA6C5C1BD001B050EA410C0CBF68
:1012900052EA430C91EA030F02BF90EA020F0020CA
:1012A000704710F1000F91EA030F58BF994208BF31
:1012B00090422CBFD8176FEAE37040F001007047EE
:1012C0004FEA410C7FEA6C5C02D150EA013C07D145
:1012D0004FEA430C7FEA6C5CD6D152EA033CD3D090
:1012E0005DF8040B704700BF8446104662468C468A
:1012F0001946634600E000BF01B5FFF7B7FF0028BD
:1013000048BF10F1000F01BD4DF808EDFFF7F4FFE5
:101310000CBF012000205DF808FB00BF4DF808ED70
:10132000FFF7EAFF34BF012000205DF808FB00BF93
:101330004DF808EDFFF7E0FF94BF012000205DF8B5
:1013400008FB00BF4DF808EDFFF7CEFF94BF01206A
:1013500000205DF808FB00BF4DF808EDFFF7C4FF63
:1013600034BF012000205DF808FB00BF4FEA410CAC
:101370007FEA6C5C02D150EA013C0AD14FEA430C8F
:101380007FEA6C5C02D152EA033C02D14FF00000CC
:1013900070474FF0010070474FEA410212F500120A
:1013A00015D211D56FF47873B3EB625212D94FEAAC
:1013B000C12343F0004343EA505311F0004F23FA96
:1013C00002F018BF404270474FF00000704750EAEB
:1013D000013005D111F0004008BF6FF000407047A8
:1013E0004FF00000704700BF08B503F051FB08BD87
:1013F0002DE9F04F9DB0064605F0F4F9804642F223
:10140000D17106F01CFA404629F028FE0A90B54931
:1014100029F030FE40462AF0ADF804460B90B24960
:101420002AF076FDDFF824A300225146204609F079
:10143000B1FC40462AF09EF88146AC4C0022214681
:1014400009F0A8FCAA4948462AF062FD0021484656
:101450002AF01AFE40462AF08DF807460C90A54D5A
:101460000022294609F096FCA34938462AF050FD8F
:1014700040462AF07FF80D90A0492AF049FD4046E9
:101480002AF078F807460E900022294609F082FCDF
:101490009B4938462AF03CFD40462AF06BF80F90F5
:1014A00098492AF035FD404627F0E2F805460890B5
:1014B00042F2D17106F0C3F928462AF05BF80546DE
:1014C00091492AF025FD00231A460921284606F0F5
:1014D0004BFA404627F0CCF805460990802105F0EC
:1014E00005FA42F2D171284606F0A9F928462AF0F9
:1014F00041F8054685492AF00BFD00231A460921CB
:10150000284606F031FA21F07DFC04F073F81EF055
:10151000F5FD0746012105F071F9304605F062F945
:10152000054642F2D17106F08AF928462AF022F8DF
:101530008346109076492AF0EBFC0022514658462B
:1015400009F028FC28462AF015F8834611907149C5
:101550002AF0DEFC00222146584609F01BFC2846F2
:101560002DF030FC834601212DF08BFC6A49CDF82B
:1015700018B058462DF032FCDFF8D4B13B460022BB
:101580005946069804F000FA284629F0F3FF079020
:1015900062492AF0BDFC00222146079809F0FAFBB7
:1015A00028462DF00FFC059001212DF06AFC012149
:1015B00005982EF0A3FA5A4905982DF00FFC3B46EA
:1015C00000225946059804F0DFF9284629F0D2FF99
:1015D0000746129053492AF09BFC002221463846C8
:1015E00009F0D8FB284628F03DFD13904E4928F01D
:1015F000ABFD284629F0BEFF074614904B492AF060
:1016000087FC00222146384609F0C4FB28462DF00D
:10161000D9FB0746159001212DF033FC00231A4613
:101620004349384604F0B0F9304605F0DBF8074688
:1016300029F0A0FF834616903E492AF069FC00225B
:101640005146584609F0A6FB384629F093FF8246DA
:10165000179039492AF05CFC00222146504609F0D7
:1016600099FB38462CF046FB834642F25F0106F0B8
:10167000CFF800231A463149584604F085F95846F8
:1016800006F012F8384629F075FF824618902C496A
:101690002AF03EFC00222146504609F07BFB3846EA
:1016A0002CF0D4FC1990384629F064FF82461A9039
:1016B00024492AF02DFC00222146504609F06AFBFD
:1016C00038462CF0C3FC1B901F4B1B78022B41D0DB
:1016D000012B00F07981002B00F0B8821DB0BDE82D
:1016E000F08F00BF64B2030804DE0408880C0020F9
:1016F00010DE0408800C002050DE040854DE0408CC
:1017000064DE040868DE04087CDE040884DE040865
:101710008CDE04089CDE0408A8DE0408B4DE04089D
:10172000C0DE0408D0DE0408D8DE0408ECDE0408BD
:1017300051220008F8DE040804DF040851200008E4
:1017400010DF04081CDF0408440C0020900C00206B
:10175000B5230008964A9749304616F0FBFA012453
:10176000029400260196009402233246032140464B
:1017700016F040FB904A9149404616F0EBFA4FF0C4
:10178000050ACDF808A0019600942346324621466A
:101790000A9816F02FFB02940196009402231A4631
:1017A00031460B9816F026FB029401940096042310
:1017B00002220321484616F01DFB02944FF0030855
:1017C000CDF8048000942346022221460C9816F09E
:1017D00011FB0294CDF80480009423464246314622
:1017E0000D9816F007FB02940423019300942346FE
:1017F000022221460E9816F0FDFA0294042301936A
:1018000000942346424631460F9816F0F3FA4FF003
:101810000209CDF80890CDF80480009423460422F4
:101820004146089816F0E6FACDF80890CDF8048005
:101830000094234652464146099816F0DBFA02947A
:1018400001940096234632464146284616F0D2FAC5
:101850005B4A5C49284616F07DFA02940196009492
:101860004B4632463146109816F0C4FA0294CDF831
:1018700004800094234632464146069816F0BAFA90
:101880000294CDF8049000962346324631461198D2
:1018900016F0B0FA0294CDF8048000942346224654
:1018A0004146059816F0A6FA0294CDF804900096E9
:1018B000234622463146079816F09CFA02940625E4
:1018C00001950094234622464146159816F092FA57
:1018D0000294CDF804A0009623462246314614987F
:1018E00016F088FA02940195009423463246414648
:1018F000139816F07FFA0294CDF804A000962346C0
:1019000032463146129816F075FA02940194CDF8D9
:101910000080234622464146384616F06BFA284A94
:101920002849384616F016FA0294019600944B4660
:1019300032463146169816F05DFA0294CDF80480CE
:1019400000944B4632462146584616F053FA02940C
:10195000CDF804900096234632463146179816F08B
:1019600049FA0294019500942346224631461B9879
:1019700016F040FA0294CDF804A0009623463246B1
:1019800031461A9816F036FA0294019500942346CF
:1019900032463146199816F02DFA0294CDF804A07B
:1019A0000096234622463146189816F023FA95E60B
:1019B000200100200C0100205800002034000020ED
:1019C0009C000020840000209A4A9B49304616F073
:1019D000C1F90124029400260196009402233246A4
:1019E0000321404616F006FA7821089805F010FF0A
:1019F0007821099805F00CFF904A9149404616F06D
:101A0000A9F94FF0040ACDF808A0019600962346E4
:101A1000324621460A9816F0EDF902940196009498
:101A200002231A4631460B9816F0E4F90294019409
:101A3000009602231A460321484616F0DBF9029469
:101A40004FF00208CDF8048000942346032231466B
:101A50000D9816F0CFF90294CDF804800094234637
:101A6000424621460C9816F0C5F90294CDF804A020
:101A700000942346424621460E9816F0BBF9029484
:101A8000CDF804A000942346032231460F9816F0A7
:101A9000B1F902944FF00509CDF804900094234663
:101AA00022463146089816F0A5F90294CDF8049024
:101AB0000094234603224146099816F09BF90294AC
:101AC00001940096234632460321284616F092F9E7
:101AD0005C4A5D49284616F03DF90294019600944F
:101AE000434632463146109816F084F90294CDF8F8
:101AF00004800096434632463146119816F07AF932
:101B000002940325019500964346324629460698DD
:101B100016F070F90294CDF804A0009643463246C0
:101B20003146079816F066F90294CDF804900096B5
:101B3000434632462946059816F05CF9029406237E
:101B400001930096434632463146149816F052F9F6
:101B5000029407230193009643463246294615987E
:101B600016F048F902940823019300964346324642
:101B70003146129816F03EF902940923019300961B
:101B8000434632462946139816F034F902940194DC
:101B90000095234622462946384616F02BF9294A55
:101BA0002949384616F0D6F8029401960094434627
:101BB00032463146169816F01DF9029401950094AC
:101BC000434632462146584616F014F90294CDF8A1
:101BD00004800096234632463146179816F00AF9DB
:101BE0000294CDF804A000962346324631461A9856
:101BF00016F000F90294CDF8049000962346324680
:101C000031461B9816F0F6F80294062301930096CD
:101C1000234632463146189816F0ECF80294072312
:101C200001930096234632463146199816F0E2F8A1
:101C300054E500BF280100201401002064000020AA
:101C400044000020AC0000208C0000209D4A9E49EA
:101C5000304616F07FF89D4A9D49404616F07AF8C6
:101C60009C4E9D4C32462146284616F073F832466B
:101C70002146384616F06EF801240294002601969B
:101C80000094234632460321404616F0B3F832460C
:101C90000221484609F0F7FB0294019600940223C2
:101CA000324621460A9816F0A5F802940194009451
:101CB0000223324621460B9816F09CF802944FF00E
:101CC0000208CDF804800096434632460321484678
:101CD00016F090F802944FF00309CDF804900094A8
:101CE0002346324621460C9816F084F80294CDF82B
:101CF000049000942346224631460D9816F07AF857
:101D000002944FF0040ACDF804A000942346324612
:101D100021460E9816F06EF80294CDF804A00094B7
:101D20002346224631460F9816F064F802940523A4
:101D300001930094434632464946089816F05AF8F3
:101D4000029406230193009443463246494609987B
:101D500016F050F802940194009623463246494604
:101D6000284616F047F802940196009443463246FE
:101D70003146109816F03EF80294CDF80480009693
:101D8000434632463146119816F034F80294CDF8A5
:101D900004900096434632464946069816F02AF8C3
:101DA0000294CDF804A00096434632463146079887
:101DB00016F020F80294052301930096434632461C
:101DC0004946059816F016F80294062301930096EA
:101DD000434632463146149816F00CF80294072315
:101DE00001930096434632464946159816F002F88C
:101DF00002940823019300964346324631461298D6
:101E000015F0F8FF029409230193009643463246E9
:101E10004946139815F0EEFF42F2D171384605F0AD
:101E20000EFD0294CDF804800096234632464946C2
:101E3000384615F0DFFF029401960094434632467F
:101E40003146169815F0D6FF0294CDF8048000961E
:101E5000234632463146179815F0CCFF0294CDF850
:101E600004900094434632462146584615F0C2FF7E
:101E70000294CDF804A000962346324631461A98C3
:101E800015F0B8FF029405230193009623463246CD
:101E90003146199815F0AEFF0294CDF804A00096D3
:101EA000234622463146189815F0A4FF02940523D4
:101EB000019300962346224631461B9815F09AFF5F
:101EC0000CE400BF300100201C0100207400002041
:101ED00050000020C400002094000020F0B591B014
:101EE000054603F035FD04461A2803D01B2C2DD0DF
:101EF00011B0F0BD284603F02FFD0646436BB3F545
:101F0000C02F07D0736BB3F5A02FEFD13369002238
:101F1000DA70EBE7836B022BF4D102AFDFF82CC150
:101F2000BCE80F000FC7BCE80F000FC79CE80F000C
:101F300087E80F00336C10AA02EB830353F8383C98
:101F40003D4A316BF06A23F0DFF9DBE7284603F006
:101F500003FD0446436BB3F5A02FC9D102A80DF0D1
:101F600023FAE368DD885A88AD1AADB201352DB287
:101F7000B3F90020ADF80020B3F90420ADF8042037
:101F8000B3F90220ADF80220A16B2C4B53F821309D
:101F900005FB03F32A4EA6FB03135B0913FA82F336
:101FA0000433ADF80630002021F0ACFDADF80C0094
:101FB0000423ADF808306A4602A920680DF01CFA27
:101FC000BDF80620043AADF80220A16B1D4B53F872
:101FD000213003FB05F3A6FB03135B0913FA82F31D
:101FE000ADF80630052021F08DFDADF80C00002382
:101FF000ADF808306A4602A920680DF0FDF9BDF978
:102000000620ADF80220A16B0F4B53F8213003FBE3
:1020100005F3A6FB03135B0913FA82F3ADF8063050
:10202000092021F06FFDADF80C006A4602A9206876
:102030000DF0E2F95CE700BF68FB0408E4E3040884
:102040001F85EB51BCE304080CE40408208D030851
:1020500070B5A2B0054603F07BFC0446284603F0A9
:1020600073FC132C04D006461B2C0BD022B070BD81
:10207000284603F071FCB0F900303C2BB8BF3C237C
:102080000380F3E7284603F067FC0446436BB3F58F
:10209000403FEBD12021304604F050FC0028E5D031
:1020A000304626F0BCFA0346664A082106A823F00B
:1020B0002BF90025029541F6FF73019300952B46FD
:1020C000614A126806A905A824F090FFE1680A8811
:1020D0008B889B1A9BB20133C3F3C03000FA83F3A1
:1020E00002EB63039BB2BDF9142002EBD270A3EBA9
:1020F00060039EB2ADF8203016FA82F2ADF82420CB
:102100004B880A3B9AB2ADF82630BDF81630D31A88
:10211000ADF82230284620F0ABFE1D284FDC01230D
:10212000F61AADF82860BDF82450002020F0A0FE7B
:102130001D2851DC01232B44ADF82C30BDF8225072
:10214000002020F095FE1D2853DC0123EB1AADF88A
:102150002A30BDF82650002020F08AFE1D2855DCCC
:1021600001232B44ADF82E3014A80DF01DF90321E6
:10217000122021F01DFDADF85400002020F078FE63
:1021800000EB8000EF284EDC0123ADF850300AAAA6
:1021900014A920680DF030F90CA80BF02FFA4FF6B7
:1021A000FF73ADF83C30284B1B680C93206800236C
:1021B000009306AB08AA0CA90BF040FA56E7284694
:1021C00020F056FE00F10A03204A82FB0312DB17BF
:1021D000C3EBE2039BB2A3E7002020F049FE00F12D
:1021E0000A031A4A82FB0312DB17C3EBE2039BB21A
:1021F000A1E7002020F03CFE00F10A03134A82FB15
:102200000312DB17C3EBE2039BB29FE7002020F031
:102210002FFE00F10A030D4A82FB0312DB17C3EB0A
:10222000E2039BB29DE7002020F022FE00EB80003D
:1022300000F15003054A82FB0312DB17C3EBA21324
:102240001BB2A2E72CDF04084C0C00206766666610
:1022500038B5054603F07CFB0446284603F074FBC2
:102260000E2C00D038BD054603F0FCFD03F000FE47
:102270000128F7D12C4B1B68002BF3D120F0C2FDB5
:1022800003F0F0F9022104F0B9FA20F0BBFD03F0ED
:10229000E9F91AF0E9FB244B186020F0B3FD03F0D4
:1022A000E1F900227F2109F0A4F820F0ABFD03F052
:1022B000D9F90446122021F025FC014600222046CF
:1022C00009F087F8194B1B7803B3012B25D04FF485
:1022D000A5724FF49671144B186805F0C7FA124CAA
:1022E000012240F2C67120681AF0D4FB1E2300229E
:1022F0000921206805F038FB2B4600220C49206894
:1023000003F042FB20681AF08DFEABE7C822B4212F
:10231000054B186805F0AAFAE1E7DC22C821024B58
:10232000186805F0A3FADAE7340C0020440C00200A
:102330003523000870B58CB0044603F009FB054650
:10234000204603F00BFB0646204603F0FFFA1C2D47
:1023500001D00CB070BD03A91AF0BEFC9DF90E307F
:10236000BDF80C20019200939DF90F300F4A2021F7
:1023700004A822F0C9FF04A930462DF029FB0C4D1A
:10238000286809F09BF900242C6020F03BFD03F045
:1023900069F9022104F06BFA20F034FD03F062F9D0
:1023A0002246214609F025F8D3E700BF30DF0408B4
:1023B000340C0020F8B5054603F0CAFA0446284656
:1023C00003F0C2FA0646284603F0C8FA05460E2C6A
:1023D00006D00F2C39D01F3CE4B2012C4BD9F8BDEC
:1023E00003F040FD03F044FD0228F8D031462846B2
:1023F0001DF090FE20F006FD20F00AFD4000294966
:1024000081FB0031A1EBE071002209B2284608F0FF
:102410009AFF254C206806F095FB276820F0F2FC17
:1024200020F00EFD84B2284605F007FB81B2611A48
:1024300009B2384605F003FA0121284604F017FADC
:102440000021304607F0D5FAC9E700211DF062FEF1
:10245000154B1C6820F0D6FC20F0F2FC014620460B
:1024600005F0EDF90121284604F0C8F931460020B5
:1024700003F004FDB3E70C4B1C6820F0C3FC20F014
:10248000DFFC0146204605F0DAF90121284604F078
:10249000B5F90221304604F035FA3146002003F048
:1024A000EDFC9CE756555555980C002030B591B081
:1024B000044603F04DFA072801D011B030BD204684
:1024C00003F04CFA044605F0B1FA054620F09AFCF8
:1024D00020F09EFC00EBD07343F34F039D4211DAD2
:1024E000684620F025FE00940F4B019300230793CC
:1024F00008934FF480730993C8230A93684620F029
:102500005FFEDAE7684620F013FE0094064B019365
:102510004FF480730793089300230993C8230A9309
:10252000684620F04DFEC8E70943000838B50C4660
:10253000074D0A46014628681FF00AFB002128685B
:1025400009F002F82246034929F044FD38BD00BFD6
:10255000640C00202CDF04082DE9F047C6685B4BB3
:102560001B78002B00F08A80594A1368893B13605E
:10257000B3F5AF6F02D2554B00221A70554B1B7842
:10258000002B00F08880544A1368033B1360B3F5B6
:10259000AF6F02D24F4B00221A70504B1B78002BAA
:1025A00000F086804E4A1368393B1360B3F5AF6F75
:1025B00002D24A4B00221A70DFF81491D9F8004079
:1025C000DFF81481D8F80030E518454F3A68154413
:1025D00004EB440204EB4214B4FBF5F403EB4302B6
:1025E00003EB4213B3FBF5F5DFF804A100223168D9
:1025F000DAF800001FF0D3FA22463168DAF800005A
:102600001FF0E7FA621C7168DAF800001FF0C7FAE1
:102610002C44621C7168DAF800001FF0DAFAA21C80
:10262000B168DAF800001FF0BAFA6322B168DAF88C
:1026300000001FF0CEFADAF8000008F047FF044669
:102640006FF0040108F080FFD9F80020254929F037
:10265000C1FC6FF00201204608F076FFD8F8002098
:10266000214929F0B7FC4FF0FF31204608F06CFFFC
:102670003A681E4929F0AEFCBDE8F087144A136899
:102680007433136041F2941293427FF677AF0F4B8D
:1026900001221A7072E7104A13680933136041F27D
:1026A000941293427FF679AF0A4B01221A7074E7B5
:1026B0000B4A13684C33136041F2941293427FF635
:1026C0007BAF064B01221A7076E700BF450C002055
:1026D00064010020460C00206C010020470C002003
:1026E0006801002040DF040850DF04085CDF0408B4
:1026F000540C002038B50C46084D0A46014628689F
:102700001FF067FA286808F0E1FE4FF0FF3108F08B
:102710001BFF2246024929F05DFC38BD500C002009
:1027200068DF040838B50C46084D0A46014628689B
:102730001FF04FFA286808F0C9FE6FF0020108F098
:1027400003FF2246024929F045FC38BD500C002009
:1027500078DF040838B50C46084D0A46014628685B
:102760001FF037FA286808F0B1FE6FF0040108F096
:10277000EBFE2246024929F02DFC38BD500C00200A
:1027800088DF04082DE9F043A9B0054603F0E0F81E
:102790000446284603F0D8F80646012C00F0918044
:1027A000082C00F08E801A2C40F08E80284603F012
:1027B000D3F80446436BB3F5C02F00F08880B3F51F
:1027C000A02F40F08180616A00296DD0A06A0028A6
:1027D0006AD0B0F90030B1F90220B1F90010032538
:1027E0000195B0F9020000900FA80CF093FB0021B6
:1027F0000FA80CF09DFA0746304605F01EF906F1C9
:102800001408F38A02460028C0F2968003EBE20324
:10281000B6F91A200192002500951BB2FF2241460D
:1028200009A80CF0A3FD294609A80CF081FA054679
:102830001AA80CF0B9FD7F238DF86B30A3691B88B3
:10284000ADF86C3023680DF114094246996848468A
:1028500020F0E0FD2368D3F80880C3F80890626A8E
:10286000B2F90030ADF81C30A16A0B88013BADF81D
:102870002030B1F90230B2F902209342A8BF1346CA
:10288000ADF81E30B6F91A30ADF8223007AA1AA9F1
:1028900020680CF0B1FD2368C3F8088038460CF0BE
:1028A0009DFA28460CF09AFA656C30461CF0CEF87A
:1028B000A36B984242D022690023D3842269D38536
:1028C00002E0304605F080FC29B0BDE8F083826B61
:1028D000022A7FF474AF30461BF0F4FC022815D0B6
:1028E0001AADC14E0FCE0FC50FCE0FC596E80F0023
:1028F00085E80F00236C28AA02EB830353F8383CC9
:10290000BA4A216BE06A22F0FFFCDDE71AADB84E4F
:102910000FCE0FC50FCE0FC596E80F0085E80F004C
:10292000236C28AA02EB830353F8383CAF4A216B8F
:10293000E06A22F0E9FCC7E7C21D67E730461BF0FA
:10294000C1FC012800F0A78023692A899A852369A0
:102950000F22DA85236900229A86236CA54A082172
:1029600005A822F0D1FC0023029341F6FF720192E8
:102970000093A14A126805A904A824F037FB304649
:102980001BF0A0FC022800F08E80E1680B888A888A
:10299000D21A92B20132C2F3C03000FA82F203EBD3
:1029A00062039BB2BDF9102002EBD270A3EB60036F
:1029B000ADF81C3092B212FA83F3ADF820304E8895
:1029C000002020F055FAC0EB0010EF2800F3BA8089
:1029D0000123F31A9AB2ADF82230BDF81230D31A9F
:1029E000ADF81E30BDF81C60002020F041FA1D2813
:1029F00000F3B7800123F31AADF82430BDF820604E
:102A0000002020F035FA1D2800F3B880012333445C
:102A1000ADF82830BDF81E60002020F029FA1D28EE
:102A200000F3B9800123F31AADF82630BDF8226017
:102A3000002020F01DFA1D2800F3BA800123334442
:102A4000ADF82A301AA80CF0AFFC2B89ADF86C3029
:102A5000002020F00DFA00EB8000EF2800F3B58095
:102A60000123ADF8683009AA1AA920680CF0C4FC4B
:102A70000FA80AF0C3FD4FF6FF73ADF848305E4B68
:102A80001B680F9320680023009305AB07AA0FA9CA
:102A90000AF0D4FD18E723694FF6FF729A84236980
:102AA0000222DA8459E7E3685F88002020F0E0F929
:102AB000C0EB0010EF2824DC0123FB1A9AB2ADF81A
:102AC0002230BDF81230D31AADF81E300021304646
:102AD0001BF07EFF854220D0E3681A889B889B1AF2
:102AE0009BB20133C3F3C03101FA83F302EB6303FA
:102AF0009AB2ADF82030BDF81030D31AADF81C30C2
:102B000070E7002020F0B4F9C0EB001000F1500392
:102B1000A02293FBF2F39BB2CFE7E3681A889B886D
:102B20009B1A9BB20133C3F3C03101FA83F302EB6A
:102B30006303ADF81C30BDF8102012FA83F3ADF832
:102B400020304FE7002020F093F9C0EB001000F197
:102B500050032A4A82FB0312DB17C3EBA2139BB27A
:102B600037E7002020F084F900F10A03234A82FBB2
:102B70000312DB17C3EBE2039BB23CE7002020F01B
:102B800077F900F10A031D4A82FB0312DB17C3EB3E
:102B9000E2039BB23BE7002020F06AF900F10A0350
:102BA000164A82FB0312DB17C3EBE2039BB23AE740
:102BB000002020F05DF900F10A03104A82FB0312A5
:102BC000DB17C3EBE2039BB239E7002020F050F99A
:102BD00000EB800000F15003084A82FB0312DB1770
:102BE000C3EBA2131BB23CE7208D030868FB04086B
:102BF000508D030864DF04084C0C0020676666668D
:102C00002DE9F04F89B00D4617461E4603F0EAFD48
:102C1000044642F2D17104F012FE0121204614F064
:102C2000DFFA204628F0A6FC8246294629F070F9F2
:102C30000022A349504608F0ADF820461EF074FE6D
:102C400005460022114608F049FA4FF400320021EF
:102C5000284608F043FA42F26401284604F0D8FD01
:102C6000204603F0BFFD80460D22114604F0FEFD14
:102C70004FF480320021404608F030FADFF85892D5
:102C800000224946404608F085F8002020F03AFF2F
:102C900001460022404608F09CFB204628F06AFCD2
:102CA0000590394629F034F9204603F09BFD07468C
:102CB0000D22114604F0DAFD4FF48032002138462F
:102CC00008F00CFA00224946384608F063F805205F
:102CD00020F018FF01460022384608F07AFB204613
:102CE00028F048FC0690314629F012F9204603F0FE
:102CF00079FD06460D22114604F0B8FD4FF48032EE
:102D00000021304608F0EAF900224946304608F032
:102D100041F8092020F0F6FE01460022304608F076
:102D200058FB204628F026FC0790129929F0F0F86D
:102D3000644B1B78012B65D0634A6449204615F02B
:102D400009F84FF00109CDF808900024019400948F
:102D5000022322462146504615F04CF8CDF8089043
:102D6000CDF804900094022322462146284615F00F
:102D700041F8CDF808904FF0020ACDF804A0009475
:102D80004B4622462146404615F034F8CDF80890CF
:102D90004FF00308CDF8048000944B4622462146AC
:102DA000384615F027F8CDF80890042701970094CD
:102DB0004B4622462146304615F01CF8CDF80890C7
:102DC000CDF804A000944B464A464146059815F0BC
:102DD00011F8CDF80890CDF8048000944B464A468F
:102DE0004146069815F006F8CDF808900197009432
:102DF0004B464A464146079814F0FCFF284609B066
:102E0000BDE8F08F324A3349204614F0A3FF012475
:102E100002944FF00009CDF80490CDF800900423FF
:102E20004A464946504614F0E5FF4FF0030ACDF8F4
:102E300008A00194CDF8009023464A46494628460A
:102E400014F0D8FF02944FF0020BCDF804B00094B8
:102E500023465A464946404614F0CCFF0294CDF82A
:102E600004A0009423465A464946384614F0C2FF4F
:102E7000029404270197009423465A464946304657
:102E800014F0B8FF0294CDF804B0009423465246E3
:102E90005146059814F0AEFF0294CDF804A00094BA
:102EA000234652465146069814F0A4FF0294019717
:102EB0000094234652465146079814F09BFF9DE725
:102EC000900C0020440C002048010020F800002055
:102ED00038010020EC000020780C00202DE9F043A0
:102EE00085B00C461646994603F07CFC05462E4AF2
:102EF000002108F0F3F842F2D17242F26401284650
:102F000004F0B4FC294A2A49284614F023FF284635
:102F100028F0A4F88046214628F0ACF80227029752
:102F2000002401940094012322462146404614F0D7
:102F300061FF284628F01EFB8046314628F0E8FF56
:102F4000012602960194009733463A4621464046B0
:102F500014F050FF284628F00DFB8046494628F023
:102F6000D7FF22461349404607F014FF0296019608
:102F7000009433463A462146404614F03BFF28462B
:102F800028F0F8FA80460C9928F0C2FF02960194C6
:102F90000097334603223946404614F02BFF28465B
:102FA00005B0BDE8F08300BFFFFF0F005401002013
:102FB00000010020880C00202DE9F04794B006465F
:102FC000042114F0BDF8304603F00CFC0546012145
:102FD00014F006F9CE4ACF49284614F0BBFE42F25F
:102FE0006401284604F02BFC00224FF49671284619
:102FF00008F0A9F9284628F0BDFA8046C64928F00D
:1030000087FF0022C549404607F0C4FE012702970A
:10301000002401940094022322462146404614F0E5
:10302000E9FE28461BF01EF9BD4D286002F016FE91
:10303000296802F043FE4FF48061286803F0DEFB4C
:1030400002970197032100913B463A46286814F005
:10305000D1FE502303930297019705230093234643
:103060002246214628681CF025F932230393029753
:1030700001970C27009723462246022128681CF05E
:1030800019F93A46214628681BF0F8F839462868AD
:103090001BF0C0FB23462246A249286802F074FCBC
:1030A000A14B1B78002B00F07085012B00F074857C
:1030B0009B4C00220521206808F0A9F90022114646
:1030C000206808F0E7F92568284609F0F3FD014675
:1030D000002228461BF0D8FB0746944D2860D4F800
:1030E000008050210A2021F0DBF902B23946404627
:1030F0001BF078FC2768D5F8008050210A2021F0C9
:10310000CFF902B2414638461BF06CFC2768D5F86F
:10311000008050210A2021F0C3F902B2414638460E
:103120001BF060FC2768D5F8008050210A2021F0B0
:10313000B7F902B2414638461BF054FC2768D5F86F
:10314000008050210A2021F0ABF902B241463846F6
:103150001BF048FC2768D5F8008050210A2021F098
:103160009FF902B2414638461BF03CFC2768D5F86F
:10317000008050210A2021F093F902B241463846DE
:103180001BF030FC2768D5F8008050210A2021F080
:1031900087F902B2414638461BF024FC2768D5F86F
:1031A000008050210A2021F07BF902B241463846C6
:1031B0001BF018FC2768D5F8008050210A2021F068
:1031C0006FF902B2414638461BF00CFC2768D5F86F
:1031D000008050210A2021F063F902B241463846AE
:1031E0001BF000FC2768D5F8008050210A2021F050
:1031F00057F902B2414638461BF0F4FB24682D68AB
:1032000050210A2021F04CF902B2294620461BF039
:10321000E9FB304603F0E6FA05464FF4000103F0FF
:10322000EDFA0121284613F0DBFF42F26401284643
:1032300004F005FB00224FF49671284608F083F84D
:10324000334A3449284614F085FD284628F092F97F
:103250008046374928F05CFE00223049404607F09E
:1032600099FD01270297002401940094022322462D
:103270002146404614F0BEFD28461AF0F3FF2D4DBE
:10328000286002F0EBFC296802F018FD4FF4806121
:10329000286803F0B3FA02970197032100913B4697
:1032A0003A46286814F0A6FD50230393029701972D
:1032B0004FF00508CDF800802346224621462868B5
:1032C0001BF0F8FF32230393029701970C27009716
:1032D00023462246022128681BF0ECFF42F26402DA
:1032E0001146286804F0C2FA022128681BF034FA5B
:1032F0002246062128681AF0C1FF394628681BF0CB
:1033000089FA234622460749286802F03DFB13E06C
:10331000E4000020DC00002098DF0408900C00206E
:10332000380C002085270008440C0020680C002081
:10333000A8DF04083C0C00204FF4007128681AF044
:10334000AEFF22464146286808F061F82246214631
:10335000286808F09FF8D24B1B78002B00F02484DB
:10336000022B00F03C84CF4C25680121122020F074
:10337000E9FB0146002228461BF086FA0746CA4DA3
:103380002860D4F8008050210A2021F089F802B288
:10339000394640461BF026FB2768D5F800805021AF
:1033A0000A2021F07DF802B2414638461BF01AFB94
:1033B0002768D5F8008050210A2021F071F802B268
:1033C000414638461BF00EFB2768D5F80080502197
:1033D0000A2021F065F802B2414638461BF002FB94
:1033E0002768D5F8008050210A2021F059F802B250
:1033F000414638461BF0F6FA2768D5F80080502180
:103400000A2021F04DF802B2414638461BF0EAFA94
:103410002768D5F8008050210A2021F041F802B237
:10342000414638461BF0DEFA2768D5F80080502167
:103430000A2021F035F802B2414638461BF0D2FA94
:103440002768D5F8008050210A2021F029F802B21F
:10345000414638461BF0C6FA2768D5F8008050214F
:103460000A2021F01DF802B2414638461BF0BAFA94
:103470002768D5F8008050210A2021F011F802B207
:10348000414638461BF0AEFA2768D5F80080502137
:103490000A2021F005F802B2414638461BF0A2FA94
:1034A00027682D6850210A2020F0FAFF02B2294631
:1034B00038461BF097FA25687C4B186809F0FAFB30
:1034C0000146002228461BF0DFF90746784D2860A8
:1034D000D4F8008050210A2020F0E2FF02B23946E1
:1034E00040461BF07FFA2768D5F8008050210A205B
:1034F00020F0D6FF02B2414638461BF073FA276827
:10350000D5F8008050210A2020F0CAFF02B24146BF
:1035100038461BF067FA2768D5F8008050210A204A
:1035200020F0BEFF02B2414638461BF05BFA276826
:10353000D5F8008050210A2020F0B2FF02B24146A7
:1035400038461BF04FFA2768D5F8008050210A2032
:1035500020F0A6FF02B2414638461BF043FA276826
:10356000D5F8008050210A2020F09AFF02B241468F
:1035700038461BF037FA2768D5F8008050210A201A
:1035800020F08EFF02B2414638461BF02BFA276826
:10359000D5F8008050210A2020F082FF02B2414677
:1035A00038461BF01FFA2768D5F8008050210A2002
:1035B00020F076FF02B2414638461BF013FA276826
:1035C000D5F8008050210A2020F06AFF02B241465F
:1035D00038461BF007FA2768D5F8008050210A20EA
:1035E00020F05EFF02B2414638461BF0FBF924682A
:1035F0002D6850210A2020F053FF02B229462046B0
:103600001BF0F0F92B4B00932B4B2C4A2C493046E6
:10361000FFF7F6FA2B4D286007F058FF4FF4000132
:1036200003F0ECF828681EF08BF904465A23019346
:103630004FF48773009364230022014628681EF02C
:10364000CEF94FF00003ADF80430002700973B4659
:103650003A46214628681EF0A7F904A81FF068FD25
:1036600014230B930C9364230D934FF6FF73ADF863
:103670004C30D5F80080052020F044FA034600972E
:103680000F22214640461EF0EDF90F4B05930490A2
:1036900041F204030E9340F68C23119304A815E025
:1036A000440C00203C0C00206C0C0020380C002046
:1036B000700C0020E4DF0408B8DF0408C4DF04084D
:1036C000D4DF0408500C0020552700081FF078FDB7
:1036D000D5F80080384620F015FA03466FF0130243
:1036E00000920F22214640461EF0BCF9D24B0593B2
:1036F000049040F628230E934FF4486311930990E9
:1037000004A81FF05DFD2D68092020F0FBF9034699
:103710006FF0270200920F22214628461EF0A2F9E0
:10372000C64B059304904FF42F630E934FF4E1635F
:10373000119304A81FF044FDC14B0093C14BC24A32
:10374000C2493046FFF75CFAC14B1860C14B1B7889
:10375000012B40F25282BE4C20681EF0F1F8074661
:103760005A2301934FF4B47300936423002201465B
:1037700020681EF034F94FF00003ADF804304FF02C
:103780000008CDF8008043464246394620681EF0C6
:103790000BF92568404620F0B5F903466FF00902A1
:1037A00000921422394628461EF05CF90146AA4DC3
:1037B0002860424620681EF0F2F927222968206816
:1037C0001EF007FAD4F80090052020F09BF903467C
:1037D000CDF800801E22394648461EF043F90146C6
:1037E0006860282220681EF0DAF94522696820689E
:1037F0001EF0EFF9D4F80080092020F083F9034689
:103800006FF0130200920A22394640461EF02AF950
:103810000146A860462220681EF0C1F96322A9680B
:1038200020681EF0D6F92A4664218C4822F058F907
:103830008B4B00938B4B8C4A8C493046FFF7E0F959
:103840008B4B1860834B1B78012B40F2DD81884C39
:10385000256800220A21284607F09FFD00220A2140
:10386000284607F0A1FD25684FF400320A212846BA
:1038700007F054FD4FF400320A21284607F05CFDA2
:103880004FF4003247F6FF71206807F003FE4FF453
:103890000032FF21206807F0ACFD256804211220CA
:1038A00020F086F901464FF40032284607F091FDDA
:1038B0004FF400324FF0FF31206807F0B6FD4FF4AF
:1038C00000320321206807F0A9FD2568012112209C
:1038D00020F06EF901464FF4C022284607F0BCFDE7
:1038E00020681EF02DF805468C230193DC230093FD
:1038F0003C230A22014620681EF071F84FF6FF7340
:10390000ADF80430112300930323152229462068C3
:103910001EF04AF80F2302934FF6FF73ADF8043000
:103920001623009304231A46294620681EF048F8FF
:10393000D4F80080002020F0E5F803460027009727
:103940000A22294640461EF08DF880463A46014636
:1039500020681EF024F91422414620681EF039F92F
:10396000D4F800A00321384620F022F98046032134
:10397000384620F01DF9034601974FF00109CDF8B4
:1039800000904246294650461EF0A4F880463A462A
:10399000014620681EF003F91422414620681EF0FB
:1039A00018F9D4F80080052020F0ACF80346009701
:1039B0000C22294640461EF055F880461422014646
:1039C00020681EF0ECF82822414620681EF001F91C
:1039D000D4F800A00321052020F0EAF88046032156
:1039E000052020F0E5F803460197CDF80090424607
:1039F000294650461EF06EF8804614220146206883
:103A00001EF0CDF82822414620681EF0E2F8D4F8D6
:103A10000080092020F076F8034600970A22294604
:103A200040461EF01FF880462822014620681EF0FE
:103A3000B6F83C221EE000BF25270008F526000846
:103A400014E00408F0DF0408FCDF040808E00408C0
:103A5000540C0020440C0020580C0020592500086C
:103A60004CE0040820E0040830E004083CE00408CE
:103A7000640C0020414620681EF0ABF8D4F800A08A
:103A80000321092020F094F880460321092020F02A
:103A90008FF803460197CDF80090424629465046DC
:103AA0001EF018F880462822014620681EF077F89C
:103AB0003C22414620681EF08CF8D4F80080042196
:103AC000122020F075F803466FF0180200920422CD
:103AD000294640461DF08EFF8046206827F04AFDAB
:103AE0000546564928F014FA3A465549284607F043
:103AF00051F9206827F03EFD0446524928F008FAA3
:103B000004A81FF015FB0A230B930C933C230D9381
:103B10004FF6FF73ADF84C304B4B0593CDF810804A
:103B200041F204030E934FF44873119304A81FF05D
:103B300047FB304605F006F8444B1B784B456AD0EE
:103B4000434F386803F072FF06460146386803F0B9
:103B500076FE31463F4B186803F071FE31463E4B0E
:103B6000186803F06CFE42F237030A22022128464D
:103B700003F0FAFE002300930A231522294620466B
:103B800005F000F814B0BDE8F0874FF440712868E4
:103B90001AF085FBFFF78CBA4FF400712F4B1868B1
:103BA0001AF07DFBFFF784BA2C462D684FF4A02253
:103BB0000021284607F0FFFB4FF4A02200212846F1
:103BC00007F000FC246800220221204607F0F3FBE6
:103BD00000220221204607F0F5FBFFF7C4BB204B73
:103BE0001C6800221021204607F0E5FB002210216E
:103BF000204607F0E7FBFFF7B6BB07F067FC4FF482
:103C0000000102F0FBFDA6E507F060FC4FF40001A7
:103C100002F0F4FD1BE6C82211460D4B186803F0B4
:103C200025FEC82211460B4B186803F01FFEC82260
:103C30001146094B186803F019FE94E758E0040890
:103C4000900C00205CE004082D250008440C0020A6
:103C5000500C0020540C0020640C0020380C002074
:103C60003C0C00202DE9F04F87B00746042113F0EB
:103C700067FA384602F0B6FD064642F2D17242F2C9
:103C8000640103F0F3FD00221E21304607F07EFBA5
:103C9000304627F06FFC8246DB4928F039F9DB4CCF
:103CA00000222146504607F075F8304627F062FCA6
:103CB0008146D74928F02CF90022D649484607F01A
:103CC00069F8304627F056FC05460490D24928F0A2
:103CD0001FF900222146284607F05CF8304627F0FD
:103CE00049FC04460590CD4928F012F909201FF03F
:103CF00009FF01460022204607F0AEFB30461AF0CD
:103D0000B1FAC74C20605023039301250295019519
:103D10004FF00608CDF8008000231A4619461BF024
:103D2000C9FA3223039302950195072500950023D4
:103D30001A46022120681BF0BDFA022120681AF001
:103D40000BFD0022414620681AF098FA29462068A7
:103D50001AF060FD00231A46B249206801F014FEF3
:103D60002568284608F0A6FF0146002228461AF0DA
:103D70008BFD8046AC4D2860D4F800B05A213C2021
:103D800020F08EFB02B2414658461AF02BFED4F8C2
:103D90000080D5F800B05A213C2020F081FB02B20F
:103DA000594640461AF01EFED4F80080D5F800B0FF
:103DB0005A213C2020F074FB02B2594640461AF0CA
:103DC00011FED4F80080D5F800B05A213C2020F034
:103DD00067FB02B2594640461AF004FED4F8008050
:103DE000D5F800B05A213C2020F05AFB02B25946C7
:103DF00040461AF0F7FDD4F80080D5F800B05A21FB
:103E00003C2020F04DFB02B2594640461AF0EAFD34
:103E1000D4F80080D5F800B05A213C2020F040FBB7
:103E200002B2594640461AF0DDFDD4F80080D5F8BC
:103E300000B05A213C2020F033FB02B259464046E4
:103E40001AF0D0FDD4F80080D5F800B05A213C20FB
:103E500020F026FB02B2594640461AF0C3FDD4F8C2
:103E60000080D5F800B05A213C2020F019FB02B2A6
:103E7000594640461AF0B6FDD4F80080D5F800B097
:103E80005A213C2020F00CFB02B2594640461AF061
:103E9000A9FD24682D685A213C2020F001FB02B2C4
:103EA000294620461AF09EFD604B1B78022B00F03D
:103EB000EB80012B00F04581002B00F0A4813846F7
:103EC00002F090FC0446594B1B78002B40F0F18126
:103ED0004FF4000102F092FC42F26401204603F02C
:103EE000AEFC0121204613F02BF90121204613F0EE
:103EF00077F94FF40001204602F080FC204627F0BD
:103F000039FB05464A4928F003F800223F49284674
:103F100006F040FFDFF84C81464E474D474B00937B
:103F20004346324629462046FEF7D8FF444B0093CD
:103F30004346324629462046FEF7D0FF414B0093C8
:103F40004346324629462046FEF7C8FF3E4B0093C3
:103F50004346324629462046FEF7C0FF3B4B0093BE
:103F60004346324629462046FEF7B8FF384602F05F
:103F700039FC04462D4B1B78002B40F0A5814FF4F3
:103F8000000102F03BFC42F26401204603F057FCC2
:103F90000121204613F0D4F80121204613F020F926
:103FA000204627F0E7FA0546294927F0B1FF00220D
:103FB0001649284606F0EEFE204625F049FE254922
:103FC00025F052FE204625F043FE234925F04CFE05
:103FD000204625F03DFE0546204925F045FE0121FD
:103FE000284602F083FC204625F032FE05461C4997
:103FF00025F03AFE8021284602F078FC204625F084
:1040000027FE054630E000BF64E00408900C002065
:1040100074E00408880C002084E0040890E00408A0
:10402000400C0020DD1E0008740C0020440C002011
:10403000ACE00408C4E00408988D0308D0E004084C
:10404000D8E00408E0E00408E8E00408ECE0040834
:10405000F4E0040804E1040814E1040824E104087D
:1040600034E10408BCE004089D4925F0FDFD8121F0
:10407000284602F03BFC204625F0EAFD994925F050
:10408000F3FD07B0BDE8F08F974C42F26402114691
:10409000206803F0EBFB246800201EF0E9FEC0EB73
:1040A00000104000EF283DDC01210022204607F0EF
:1040B00089F98E4A8E49304613F04CFE012502954F
:1040C0000024019400942B4622462146504613F0CA
:1040D00091FE0295019500942B46224621464846C2
:1040E00013F088FE02950326019600942B46224683
:1040F0002146049813F07EFE029504230193009458
:104100002B4622462146059813F074FE05230293A0
:10411000019400962B462A4631467348006813F0F6
:1041200069FECCE600201EF0A3FEC0EB00104300A9
:104130005033704A82FB0312D917C1EBA21109B2A6
:10414000B3E7304604F0FEFC674C2568304603F0C8
:1041500087FC81B2143909B2284603F059FB246860
:1041600000201EF085FEC0EB00104000EF283BDC75
:1041700001210022204607F025F95F4A5F493046B9
:1041800013F0E8FD012402940025019500942346D4
:104190002A462946504613F02DFE029401950094BC
:1041A000234622462946484613F024FE02940194F1
:1041B000009423462A462946049813F01BFE0294D5
:1041C00001940094234622462946059813F012FED6
:1041D000029402210191032300930B462A46424890
:1041E000006813F007FE6AE600201EF041FEC0EBF7
:1041F0000010430050333F4A82FB0312D917C1EB32
:10420000A21109B2B5E7384D42F25F01286803F008
:10421000FFFA2C681EF0F6FD1EF012FE81B2463940
:1042200009B2204603F00BFB00224FF49671286878
:1042300007F089F84FF4007128681AF030F8304A16
:104240003049304613F086FD012602960024019481
:104250000094334622462146504613F0CBFD029689
:1042600001960094334622462146484613F0C2FD8B
:1042700002964FF00208CDF804800094334622469F
:104280002146049813F0B6FD02960323019300948F
:10429000334622462146059813F0ACFD02960423CE
:1042A00001930094334622464146286813F0A2FD4C
:1042B00005E642F2640103F0C2FA00224FF496715F
:1042C000204607F040F80CE642F2640103F0B7FA2A
:1042D00000224FF49671204607F035F858E600BFEB
:1042E00040E1040854E10408400C002014000020C0
:1042F000000000206766666620000020080000209D
:10430000280000201000002070B582B005460E463F
:1043100007F0DCF803F08AFB84B200201EF0A8FD51
:1043200000EB80008000EF2847DC0120241A24B233
:104330006D4B1B78002B7BD100201EF099FD3423A0
:1043400003FB00F3EF2B47DC012300944FF4807252
:104350000021304620F080F801B2284603F058FAD8
:1043600000201EF085FD00EB80004000EF2841DCBE
:104370004FF0FF3400201EF07BFD00EB800040007A
:10438000EF2846DC4FF0FF3322460621284603F093
:10439000EBFAFF2E00DDFF260024284607F0E9F89F
:1043A000A04240F29F802146284607F0CDF8002227
:1043B000F1B207F076F80134EFE700201EF058FD67
:1043C00000EB800083005033484A82FB0312D81769
:1043D000C0EBA21080B2A9E700201EF049FD3422F4
:1043E00002FB00F25032414981FB0231D317C3EB8B
:1043F000A113AAE700201EF03BFD00EB8000430064
:1044000050333A4A82FB0312DC17A4EBA21424B205
:10441000B0E700201EF02CFD00EB8000430050337D
:10442000324A82FB0312DB17A3EBA2131BB2ABE7EA
:1044300000201EF01DFDC0EB00108000EF2825DCE1
:10444000012300944FF480720021304620F004F8DC
:1044500001B2284603F0DCF900201EF009FD00EB54
:1044600080004000EF281FDC4FF0FF3400201EF0DA
:10447000FFFC00EB80004000EF2824DC4FF0FF330E
:1044800022460621284603F06FFA82E700201EF03C
:10449000EFFCC0EB001082005032144981FB023166
:1044A000D317C3EBA113CCE700201EF0E1FC00EB17
:1044B0008000430050330D4A82FB0312DC17A4EB4B
:1044C000A21424B2D2E700201EF0D2FC00EB800040
:1044D00043005033054A82FB0312DB17A3EBA21300
:1044E0001BB2CDE702B070BD440C00206766666663
:1044F00070B592B0054601F02BFA0446284601F04B
:1045000023FA0E2C03D0072C23D012B070BD06F076
:10451000DDFF054603F08AFA04461EF073FC1EF028
:1045200077FC00EBD07343F34F039C42EDDA02A813
:104530001EF0FEFD02951F4B0393002309930A937F
:104540004FF480730B93C8230C9302A81EF038FE1F
:10455000DBE7284601F002FA05460078C41CE4B205
:10456000122C00D900241FF0CDFA064620461FF079
:10457000C9FA0246104B1B680093002331461846C7
:1045800018F0F8F828781FF0BDFA044601460B48E9
:1045900021F04EFA22460A4B19680A4B18681AF0A5
:1045A000F5F92246084B1968084B18681AF0EEF91D
:1045B000ABE700BF094300084C0C0020800C002032
:1045C000680C0020380C0020700C00203C0C0020EF
:1045D0002DE9F041804602F005F90746D74A00214F
:1045E00006F07CFD0021384612F0AAFD02231A468F
:1045F0000321384612F0D0FD4FF48021384602F0F6
:10460000FDF800224FF0FF31384606F0E2FECC4BB9
:104610001B78002B5FD100201EF02AFC00EB40032A
:10462000C0EB0310EF2846DC01210022384606F0DB
:10463000BBFE0022FF21384606F0DBFE002247F6D3
:10464000FF71384606F026FFBD4B1B78002B7BD14F
:1046500000201EF00DFC342303FB00F3EF2B55DC90
:10466000012400201EF004FC342303FB00F3EF2B95
:104670005BDC01222146384603F0F8F800201EF0EA
:10468000F7FB00EB80004000EF2800F392804FF032
:10469000FF3400201EF0ECFB00EB80004000EF2810
:1046A00000F396804FF0FF3322460621384603F090
:1046B0005BF90025C4E000201EF0DAFB00EB4003AC
:1046C000C0EB031050309F4B83FB0023C117C1EB9D
:1046D000A31109B2A9E700201EF0CAFBC0EBC0037A
:1046E000C0EBC300EF2801DC01219EE700201EF093
:1046F000BFFBC0EBC003C0EBC3005030914B83FB4A
:104700000023C117C1EBA31109B28EE700201EF0F0
:10471000AFFB342303FB00F350338A4A82FB0312BE
:10472000DC17C4EBA21424B29BE700201EF0A0FB10
:10473000342303FB00F35033824981FB0321DA1752
:10474000C2EBA11212B295E700201EF091FBC0EB64
:1047500000108000EF280EDC012400201EF088FBF2
:10476000C0EB00108000EF2814DC012221463846FF
:1047700003F07CF882E700201EF07AFBC0EB00100B
:10478000830050336F4A82FB0312DC17C4EBA21480
:1047900024B2E2E700201EF06BFBC0EB00108300A8
:1047A0005033684981FB0321DA17C2EBA11212B220
:1047B000DCE700201EF05CFB00EB80004300503380
:1047C000604A82FB0312DC17A4EBA21424B260E758
:1047D00000201EF04DFB00EB800043005033594A8F
:1047E00082FB0312DB17A3EBA2131BB25CE7384674
:1047F00023F03EFF0446544E705D1FF083F90146DE
:104800000022204606F0E5FD002247F6FF71204613
:1048100006F040FE00221146204606F042FE142219
:104820001146204603F022F873190022474920461A
:1048300001F0AAF84FF48061204602F018F8013523
:10484000414B5B5D132BD2D1404623F011FF044650
:104850003F4901F0D3FF01224FF0FF31204606F01F
:10486000B8FD00220A21204606F097FD00220A2109
:10487000204606F099FD00220A21204606F07FFD21
:1048800000220A21204606F081FD002247F6FF7132
:10489000204606F0FFFD3B4600222E49204601F04F
:1048A00073F800221146204606F0CFFD00222A4967
:1048B000204606F0A5FD224B1B78002B7BD1002063
:1048C0001EF0D6FA2A2303FB00F3EF2B26DC01258A
:1048D00000201EF0CDFA2A2303FB00F3EF2B3DDC72
:1048E00001222946204602F0C1FF00201EF0C0FA36
:1048F000C0EB0010EF2840DC4FF0FF3500201EF029
:10490000B7FAC0EB0010EF2846DC4FF0FF332A4621
:104910000621204603F028F8BDE8F08100201EF0B3
:10492000A7FA2A2303FB00F35033064A82FB031243
:10493000DD17C5EBA2152DB2CAE700BFFFFF0F00C0
:10494000440C0020676666665C010020F1440008A4
:1049500002000400AD24000864E1040800201EF0F9
:1049600087FA2A2303FB00F35033484981FB0321D4
:10497000DA17C2EBA11212B2B3E700201EF078FAE8
:10498000C0EB001000F15003404A82FB0312DD1718
:10499000A5EBA2152DB2B1E700201EF069FAC0EB1D
:1049A000001000F15003394A82FB0312DB17A3EB1E
:1049B000A2131BB2ABE700201EF05AFA322303FB0E
:1049C00000F3EF2B25DC012500201EF051FA3223E5
:1049D00003FB00F3EF2B2BDC01222946204602F0DB
:1049E00045FF00201EF044FAC0EB0010EF282EDC3B
:1049F0004FF0FF3500201EF03BFAC0EB0010EF280F
:104A000034DC4FF0FF332A460621204602F0ACFF8B
:104A100082E700201EF02CFA322303FB00F3503310
:104A20001A4A82FB0312DD17C5EBA2152DB2CBE7A4
:104A300000201EF01DFA322303FB00F3503313490C
:104A400081FB0321DA17C2EBA11212B2C5E70020E5
:104A50001EF00EFAC0EB001000F150030B4A82FB6F
:104A60000312DD17A5EBA2152DB2C3E700201EF03F
:104A7000FFF9C0EB001000F15003044A82FB03125F
:104A8000DB17A3EBA2131BB2BDE700BF6766666628
:104A9000F0B583B01EF0B6F91EF0BAF9B0F5A07FFC
:104AA00000F39480894B00221A70894B894A136065
:104AB000894A1360854B1B78022B00F09680012BEE
:104AC00000F0A780854D864C864B00932B468A22AA
:104AD000214602201FF088FB834B00932B468F2238
:104AE000214602201FF080FB2D2705201FF00AF829
:104AF000044600201FF006F80246774D2B6800930D
:104B000000232146184617F035FE784C204620F049
:104B10001DFC7F21204620F09BFF754C204620F095
:104B200015FC6C4E3168204620F098FF714C2046F1
:104B300020F00CFC002008F0BDF80146204620F0D3
:104B400077FF3168204620F089FF6B4C204620F02B
:104B5000FDFB0021204620F0DDFE47F6FF712046D8
:104B600020F08EFF1EF04EF900F044FD3A4604217D
:104B70001DF06CFB614B18601EF044F900F03AFD2B
:104B80000022296806F078FC504B1B78022B4DD090
:104B90005A4C5B4920681DF06DFC07465949206856
:104BA0001DF068FC0646584920681DF063FC054668
:104BB0003846FCF71DFC3046FEF7FEF92846FFF7A5
:104BC00051F82068FFF704FD03B0F0BD1EF01AF99C
:104BD0001EF01EF9B0F5347F03DA3C4B01221A7047
:104BE00063E73A4B02221A705FE73C4D3C4C474B5F
:104BF00000932B467022214602201FF0F5FA444B09
:104C000000932B467522214602201FF0EDFA46271D
:104C10006BE7404B0093314B7D22314902201FF05E
:104C2000E3FA2D4B2A4A1A602D275EE7334B1868AA
:104C30001DF027FB04461EF0E5F81EF0E9F800EB36
:104C4000D070002240F34F01204606F0A6FB20461C
:104C500026F004FA0546304926F00CFA1EF0D2F888
:104C60001EF0D6F800EBD0725210524292B21932B6
:104C7000002312B20721284602F076FE204626F0D5
:104C800079FC064600221A4906F084F8234930468A
:104C900027F03EF9002700970A23132229463046C1
:104CA00003F070FF204626F065FC04461C4927F0FF
:104CB0002FF93A460D49204606F06CF800970A2372
:104CC00015222946204603F05DFF61E7440C0020D1
:104CD00090430508480C00204C0C0020ACE304086D
:104CE00068E10408C0E204081CE30408880C002002
:104CF000900C0020800C0020780C0020980C0020E4
:104D000090E3040898E30408A4E30408ACE1040871
:104D100008E2040864E204085CC8040878E30408B4
:104D200080E304082DE9F0416B4F6C4E6C4D6D4CE7
:104D30003B463246294620462EF020F9DFF8E48132
:104D4000D8F81C1068482EF019F90A202EF02AF91C
:104D50003B463246294620462EF010F9D8F8181066
:104D600062482EF00BF90A202EF01CF93B46324621
:104D7000294620462EF002F9D8F820105C482EF083
:104D8000FDF80A202EF00EF93B4632462946204611
:104D90002EF0F4F898F8001056482EF0EFF80A209C
:104DA0002EF000F93B463246294620462EF0E6F822
:104DB00098F8271050482EF0E1F80A202EF0F2F86B
:104DC0003B463246294620462EF0D8F8D8F80C103B
:104DD0004A482EF0D3F80A202EF0E4F83B4632463B
:104DE000294620462EF0CAF8B8F80A1044482EF09A
:104DF000C5F80A202EF0D6F83B4632462946204612
:104E00002EF0BCF8D8F814103E482EF0B7F80A205F
:104E10002EF0C8F83B463246294620462EF0AEF822
:104E2000D8F8101038482EF0A9F80A202EF0BAF859
:104E30003B463246294620462EF0A0F898F824102A
:104E400032482EF09BF80A202EF0ACF83B46324652
:104E5000294620462EF092F898F825102C482EF07E
:104E60008DF80A202EF09EF83B4632462946204611
:104E70002EF084F898F8261026482EF07FF80A20A5
:104E80002EF090F83B463246294620462EF076F822
:104E900008F1010120482EF071F80A202EF082F866
:104EA0005D23002211461D482BF0CAFCDFF87880F4
:104EB0005D22002140462BF021FD3B46324629462B
:104EC00020462EF05BF8414615482EF057F80A2090
:104ED0002EF068F8BDE8F081DCE5040834E404084D
:104EE00040E404084CE404085CE4040878E40408A2
:104EF00094E40408B8E40408CCE40408E4E40408F6
:104F000000E5040818E5040834E5040850E5040841
:104F100070E5040890E50408B0E50408700100207D
:104F2000C8E50408E0FA00209C0C002008B50A221D
:104F3000024903482DF0C3FE08BD00BFFC0C002051
:104F40009CFA002010B50A4B0A4A0B490B482EF078
:104F500015F80B4C21460B482EF010F80A202EF0C5
:104F600021F80023236063602381FFF7DFFF10BD7A
:104F70007CE7040834E4040840E404084CE4040832
:104F8000FC0C0020F8E5040810B582B00446036C60
:104F9000082B12D0036C042B21D0036C022B30D0D1
:104FA000036C102B3FD0036C012B4ED0036C002BF5
:104FB0005DD0FFF7BBFF02B010BD364B0193472316
:104FC0000093354B354A364936482DF0D7FF216CD2
:104FD00035482DF0D3FF0A202DF0E4FFE9E72D4BF3
:104FE0000193492300932C4B2C4A2D492D482DF039
:104FF000C5FF216C2D482DF0C1FF0A202DF0D2FFF6
:10500000D7E7244B01934B230093234B234A244996
:1050100024482DF0B3FF216C25482DF0AFFF0A2066
:105020002DF0C0FFC5E71B4B01934D2300931A4B96
:105030001A4A1B491B482DF0A1FF216C1C482DF07A
:105040009DFF0A202DF0AEFFB3E7124B01934F23D3
:105050000093114B114A124912482DF08FFF216C19
:1050600014482DF08BFF0A202DF09CFFA1E7094B7F
:10507000019351230093084B084A094909482DF030
:105080007DFF216C0C482DF079FF0A202DF08AFF5E
:105090008FE700BF94E7040810E6040834E404082E
:1050A00040E4040840E604085CE6040884E60408DA
:1050B000A8E60408CCE60408F4E604082DE9F0416B
:1050C0000446DFF87480164F164E174D43463A4695
:1050D000314628462DF052FF216A14482DF04EFF2C
:1050E0000A202DF05FFF43463A46314628462DF010
:1050F00045FFA18C0E482DF041FF0A202DF052FFF4
:1051000043463A46314628462DF038FFE18C89B2B5
:1051100008482DF033FF0A202DF044FFBDE8F08150
:1051200034E4040840E404084CE4040818E70408E4
:1051300038E7040858E70408A8E7040810B582B067
:1051400000240094224B1A6B42F480021A631A6BFB
:1051500002F480020092009A01941A6B42F4001249
:105160001A631B6B03F400130193019B2246214633
:105170000E202BF085FC0E202BF0B6FC224621469B
:105180000F202BF07DFC0F202BF0AEFC2246214699
:1051900038202BF075FC38202BF0A6FC2246214647
:1051A0003A202BF06DFC3A202BF09EFC2246214643
:1051B0003B202BF065FC3B202BF096FC2246214641
:1051C00046202BF05DFC46202BF08EFC02B010BD7B
:1051D000003802402DE9F0418AB00024059406947D
:1051E00007940894099400942B4B1A6B42F0040224
:1051F0001A631A6B02F004020092009A01941A6B6F
:1052000042F080021A631A6B02F080020192019A46
:1052100002941A6B42F002021A631A6B02F0020245
:105220000292029A03941A6B42F010021A631A6BEC
:1052300002F010020392039A04941A6B42F00102E6
:105240001A631B6B03F001030493049BDFF8508087
:105250000122114640462BF06FFF104E01224FF401
:10526000607130462BF068FF01250595069507947F
:105270000327089705A940462BF074FE4FF460738E
:10528000059306950794089705A930462BF06AFE0A
:105290000AB0BDE8F08100BF0038024000100240B3
:1052A0000004024010B582B08DF807000E4C0022B9
:1052B0004FF4807120462BF03FFF00224FF4007125
:1052C00020462BF039FF4FF0FF3301220DF107018B
:1052D00006482CF0B0FB01224FF4007120462BF061
:1052E0002BFF02B010BD00BF0010024038F90020B3
:1052F00010B582B08DF807000E4C01224FF480717A
:1053000020462BF019FF00224FF4007120462BF0AD
:1053100013FF4FF0FF3301220DF1070106482CF077
:105320008AFB01224FF4007120462BF005FF02B0EA
:1053300010BD00BF0010024038F90020F8B5074644
:105340000D4616461C462A20FFF7ACFF380AFFF729
:10535000CFFFF8B2FFF7CCFF300AFFF7C9FFF0B27A
:10536000FFF7C6FF2B20FFF79DFF280AFFF7C0FFBE
:10537000E8B2FFF7BDFF200AFFF7BAFFE0B2FFF780
:10538000B7FF2C20FFF78EFFF8BD000010B5104CC2
:1053900001224FF4007120462BF0CEFE0122802125
:1053A00020462BF0C9FE32202BF044FB0022802146
:1053B00020462BF0C1FE32202BF03CFB0122802145
:1053C00020462BF0B9FE32202BF034FB10BD00BF7D
:1053D0000010024010B5002406E0144B03EB8403D8
:1053E0009878FFF75FFF0134104B33F82430013B0E
:1053F000032BF8D801A252F823F000BF295400086B
:10540000DB5300080D5400081B540008074B03EB46
:1054100084039878FFF76CFFE5E7044B03EB840304
:1054200058882BF007FBDEE710BD00BFC0E704087B
:105430002DE9F041BDF81850EF283EDC06460C4639
:1054400090461F46EF2938DC8318F02B03DDC0F1AE
:10545000F0080FFA88F8E319F02B02DDC4F1F00729
:105460003FB200224FF4007115482BF065FEB0B238
:10547000A1B200EB080292B2CB199BB2013B013AF8
:105480009BB292B2FFF75AFF2E0AEDB20BE0304604
:10549000FFF72EFF2846FFF72BFF013C24B2002C1C
:1054A000F5DC013F3FB2002F01DD4446F7E7012262
:1054B0004FF4007102482BF03FFEBDE8F08100BFC1
:1054C0000010024000B583B00090F0231A4600217E
:1054D0000846FFF7ADFF03B05DF804FB08B5FFF722
:1054E00055FFFFF777FF4FF6FF70FFF7EBFF002048
:1054F00008BD00002DE9F041064688461746234DB9
:1055000000224FF4007128462BF016FEB8F9000077
:10551000B8F90210B8F90420B8F906309BB292B27B
:1055200089B280B2FFF70AFFB8F90430B8F9004039
:105530001C1BB8F90630B8F902209B1A013304FB92
:1055400003335C0001224FF4807128462BF0F4FDF8
:1055500000224FF4007128462BF0EEFDA2B24FF06E
:10556000FF3339460A482CF066FA01224FF40071E5
:1055700028462BF0E1FD01224FF4007128462BF064
:10558000DBFD30461DF083FCBDE8F08100100240D9
:1055900038F9002010B50446FFF7ACFF20461DF097
:1055A00076FC10BD08B5FFF799FF08BD38B5FFF7C9
:1055B000F9FF0B4D4FF416630A4A0B4928461DF0BC
:1055C00037FB0A4C20461DF00BFBF0232380638041
:1055D000074B6361E56020461DF038FB38BD00BF16
:1055E000D8320020C81F0020080D0020883200207B
:1055F0009555000810B582B0044618B134B1206941
:1056000002B010BD1DF0FEFB0446F7E7044B00930B
:10561000044B3622044902201EF0E6FD2046EFE747
:10562000F0EA0408CCEB0408B0EA040810B582B034
:10563000044618B134B1606902B010BD1DF0E2FB40
:105640000446F7E7044B0093044B47220449022029
:105650001EF0CAFD2046EFE720EB0408E0EB04084B
:10566000B0EA040810B582B0044618B134B1E0695C
:1056700002B010BD1DF0C6FB0446F7E7044B0093D3
:10568000044B6D22044902201EF0AEFD2046EFE7D8
:1056900054EB0408F8EB0408B0EA040810B582B033
:1056A000044618B134B1206A02B010BD1DF0AAFB47
:1056B0000446F7E7044B0093044B7E220449022082
:1056C0001EF092FD2046EFE790EB040810EC040872
:1056D000B0EA040808B5034608B1986808BD1DF093
:1056E00091FB0346F9E7806858B1837E03F03F03DE
:1056F0008B4205D9C06801EB410100EB8100704786
:1057000000207047037E13F0040F4FD110B50446FC
:10571000037A233B012B01D8012010BD4FF48041B7
:10572000406801F0FCF80028F7D0237A113B1B2BCE
:10573000F3D801A252F823F0A9570008A95700088E
:10574000A9570008A9570008A9570008A957000839
:10575000A9570008A9570008A9570008A957000829
:10576000A95700081B5700081B570008A957000835
:105770001B5700081B570008A9570008A957000825
:10578000A9570008A95700081B5700081B57000815
:105790001B5700081B570008A9570008A957000805
:1057A0001B570008A95700080020B6E700207047E3
:1057B00010B50C4628B1006830B1036923B9006800
:1057C000FAE74B681868F7E760B1036963B1002333
:1057D000E360036921469847237E13F0010F05D14A
:1057E000012010BD0120FCE70120FAE70020F8E7C6
:1057F000F8B5064600F036FB58B1006883680BB177
:10580000317A9847337E13F0020774D113F0010FF9
:105810005BD100217068FFF766FF0446002511E0A8
:105820006368F360236830469847337E13F00207BD
:1058300063D113F0010F48D1013529467068FFF795
:1058400052FF04467CB12368002BF5D0237A94F9EB
:105850000820002AF0DA802BE2D023F08003327A8D
:105860009342E9D1DCE731460020FFF7A1FF07466C
:1058700020B100217068FFF736FF0446002511E0D3
:105880006368F360236830469847337E13F0020262
:105890001BD113F0010F32D1013529467068FFF793
:1058A00022FF04467CB1012F0DD12368002BF3D0D9
:1058B000227A94F90830002BEEDB002AE0D0337A0C
:1058C0009A42E9D1DCE7012F01D03846F8BD736870
:1058D0005B68002BF9D03046FFF714FF0028F4D0A6
:1058E00073685B6873603046FFF782FF07460128E4
:1058F000EBD00027E9E70127E7E70127E5E71746AF
:10590000E3E70000D8B110B588B0019002908DF89F
:105910000C100021049105929DF81C3003F0FA034D
:1059200061F341038DF81C30064C2368069301A8EF
:105930002060FFF75DFF069B236008B010BD0120CB
:10594000704700BFF432002000687047406870471D
:10595000007A00F07F00704700697047C0687047A8
:10596000084B1B6804E01A7E42F001021A765B695C
:1059700033B15A688242F6D01A688242F7D1F2E710
:10598000704700BFF43200202DE9F04184B0044696
:105990000F4616461D4601F0EFF9A1688B7E03F015
:1059A0003F02013262F305038B76D4F8088098F841
:1059B0001A1001F03F0101EB41018900D8F80C00F9
:1059C0001EF0CAFDC8F80C00A368DA6852B39B7ECB
:1059D00003F03F0303EB43039B000C3BD750A3684A
:1059E000DA689B7E03F03F0303EB43039B000C3B11
:1059F00013441E72A368DA689B7E03F03F0303EB37
:105A000043039B000C3B13445D60A368D8689B7EF6
:105A100003F03F0303EB43039B000C3B184404B02B
:105A2000BDE8F081064B0293064B0193064B0093B1
:105A3000064BAB22064903201EF0D6FBFEE700BF53
:105A400068EC040878EC04089CEC0408E4EC040816
:105A500028EC040800B583B0037A013BDBB20F2BBE
:105A600004D8FFF779FF03B05DF804FB054B009302
:105A7000054B4FF49072054902201EF0B5FB002043
:105A8000F1E700BFBCEC0408F8EC040828EC0408BB
:105A900000B583B0027AA2F11403DBB2022B05D960
:105AA000182A03D0172A01D0192A04D1FFF754FF6E
:105AB00003B05DF804FB054B0093054B4FF49E7259
:105AC000044902201EF090FB0020F1E7BCEC040822
:105AD0000CED040828EC040810B582B0037A132BEF
:105AE0000AD10C46FFF738FFB0F90010A142B8BF49
:105AF0002146018002B010BD044B0093044B40F2DC
:105B00006B12044902201EF06FFBF3E7BCEC0408A3
