:020000040800F2
:100000000000022031380308A1020308A3020308FC
:10001000A5020308A7020308A902030800000000C4
:10002000000000000000000000000000AB02030818
:10003000AD02030800000000AF020308B10203088C
:1000400081380308813803088138030881380308A0
:100050008138030881380308813803088138030890
:100060008138030881380308813803088138030880
:100070008138030881380308B9020308C90203085C
:10008000D9020308E902030881380308F9020308CA
:100090000903030819030308290303088138030827
:1000A0008138030881380308813803088138030840
:1000B0008138030881380308813803088138030830
:1000C000813803088138030881380308390303089D
:1000D000490303085903030871030308813803081F
:1000E0008138030881380308813803088138030800
:1000F00081380308813803088138030881380308F0
:1001000081380308813803088138030881380308DF
:1001100081380308813803088903030881380308FC
:100120009903030881380308A9030308B9030308E6
:1001300081380308813803088138030881380308AF
:10014000813803088138030881380308813803089F
:100150008138030881380308C9030308813803087C
:10016000813803088138030881380308813803087F
:100170008138030881380308813803080000000033
:080180008138030881380308EF
:1001C00010B5054C237833B9044B13B10448AFF391
:1001D00000800123237010BD180C002000000000D7
:1001E0003C98030808B5034B1BB103490348AFF320
:1001F000008008BD000000001C0C00203C98030893
:1002000053B94AB9002908BF00281CBF4FF0FF317D
:100210004FF0FF3000F06CB9ADF1080C6DE904CE81
:1002200000F006F8DDF804E0DDE9022304B07047D1
:100230002DE9F047089E0D4604468E46002B40F0FF
:1002400082808A42174646D9B2FA82F24AB1C2F196
:10025000200105FA02F320FA01F1974041EA030E6A
:1002600094404FEA1748230CBEFBF8FCB9B208FBD8
:100270001CEE43EA0E430CFB01F098420AD9FB182E
:100280000CF1FF3580F01681984240F21381ACF1F9
:10029000020C3B441B1AA4B2B3FBF8F008FB10336A
:1002A00044EA034400FB01F1A14209D93C1900F1E1
:1002B000FF3380F00181A14240F2FE8002383C44CD
:1002C000641A40EA0C4000211EB1D4400023C6E964
:1002D0000043BDE8F08702B9FFDEB2FA82F2002ADD
:1002E0004FD1CB1B4FEA174E1FFA87F80121B3FB02
:1002F000FEFC250C0EFB1C3345EA034508FB0CF302
:10030000AB4207D97D190CF1FF3002D2AB4200F2AB
:10031000E7808446ED1AA3B2B5FBFEF00EFB105544
:1003200043EA054408FB00F8A04507D93C1900F151
:10033000FF3302D2A04500F2D7801846A4EB080490
:1003400040EA0C40C0E78B4208D9002E00F0AF8095
:100350000021C6E900050846BDE8F087B3FA83F13D
:1003600000294BD1AB4202D3824200F2B780841AFB
:1003700065EB030301209E46002EAAD0C6E9004E7D
:10038000A7E7C2F1200C01FA02F3974020FA0CF023
:100390004FEA174E21FA0CFC1843BCFBFEF1050C8A
:1003A0000EFB11CC1FFA87F845EA0C4501FB08F358
:1003B000AB4204FA02F409D97D1901F1FF3C80F047
:1003C0008B80AB4240F2888002393D44EB1A85B203
:1003D000B3FBFEF00EFB103345EA034500FB08F3C8
:1003E000AB4207D97D1900F1FF3C71D2AB426FD906
:1003F00002383D44EB1A40EA014178E7C1F1200C94
:100400008B4022FA0CF71F4320FA0CF405FA01F393
:100410004FEA174E25FA0CF51C43230CB5FBFEF9E9
:100420001FFA87F80EFB195543EA054509FB08FA40
:10043000AA4502FA01F200FA01F308D97D1909F17F
:10044000FF3047D2AA4545D9A9F102093D44A5EBA1
:100450000A05A4B2B5FBFEF00EFB105544EA0544B4
:1004600000FB08F8A04507D93C1900F1FF352DD253
:10047000A0452BD902383C4440EA0940A4EB0804CB
:10048000A0FB02894C45C6464D4619D316D05EB135
:10049000B3EB0E0264EB050404FA0CFCCA404CEA10
:1004A0000202CC40C6E900240021BDE8F0873146B5
:1004B00030460EE7AC46EDE6184601E74345E6D286
:1004C000B8EB020E69EB07050138E0E72846D3E7F1
:1004D00060468FE78146BAE7614677E708464BE713
:1004E000ACF1020C3D4415E702383C4426E700BF5E
:1004F000704700BF844641EA000313F003036DD147
:10050000403A41D351F8043B40F8043B51F8043BD6
:1005100040F8043B51F8043B40F8043B51F8043BDD
:1005200040F8043B51F8043B40F8043B51F8043BCD
:1005300040F8043B51F8043B40F8043B51F8043BBD
:1005400040F8043B51F8043B40F8043B51F8043BAD
:1005500040F8043B51F8043B40F8043B51F8043B9D
:1005600040F8043B51F8043B40F8043B51F8043B8D
:1005700040F8043B51F8043B40F8043B51F8043B7D
:1005800040F8043B403ABDD2303211D351F8043B1D
:1005900040F8043B51F8043B40F8043B51F8043B5D
:1005A00040F8043B51F8043B40F8043B103AEDD2CC
:1005B0000C3205D351F8043B40F8043B043AF9D21D
:1005C000043208D0D2071CBF11F8013B00F8013BF0
:1005D00001D30B8803806046704700BF082A13D3FD
:1005E0008B078DD010F003038AD0C3F10403D21A15
:1005F000DB071CBF11F8013B00F8013B80D331F849
:10060000023B20F8023B7BE7043AD9D3013A11F8C8
:10061000013B00F8013BF9D20B7803704B78437033
:100620008B78837060467047000000000000000077
:1006300000000000000000000000000000000000BA
:10064000A2EB0300704700BF02780B78012A28BF95
:100650009A42F5D16DE9044540EA0104CDE902670B
:100660006FF0000C4FEA447212B380EA010414F0F8
:10067000070F6AD100F0070420F0070004F003051B
:1006800021F007014FEAC505F0E8042314F0040F38
:10069000F1E804670CFA05F462EA040266EA04066B
:1006A0000AD063EA0403624667EA0407664603E089
:1006B000F0E80423F1E8046782FA4CF582EA0604C4
:1006C000A4FA8CF46CBB83FA4CF583EA0705A5FA0F
:1006D0008CF595B950E9022351E9026782FA4CF58D
:1006E00082EA0604A4FA8CF483FA4CF583EA07053F
:1006F000A5FA8CF52543DBD09CB92DBAB5FA85F463
:1007000024F0070427FA04F1DDE9026723FA04F371
:1007100003F0FF0001F0FF01FDE80445A0EB01003C
:10072000704724BAB4FA84F424F0070426FA04F1DA
:10073000DDE9026722FA04F202F0FF0001F0FF0196
:10074000FDE80445A0EB0100704714F0030F3CD115
:1007500010F0030428D150F8082B51F8083B82FA16
:100760004CF582EA0305A5FA8CF55DB950F8042C26
:1007700051F8043C82FA4CF582EA0305A5FA8CF59F
:10078000002DE8D02DBAB5FA85F424F0070423FA39
:1007900004F122FA04F202F0FF0001F0FF01FDE88B
:1007A0000445A0EB010070474FEAC40420F00300A9
:1007B00050F8082B21F0030151F8083B0CFA04F41F
:1007C00062EA040263EA0403C9E710F003041AD0E2
:1007D000A1EB040120F00300E40750F8042B06D03D
:1007E0000FD28B785FFAA2F4E41A06D12BB1CB7842
:1007F0005FFAB2F4E41A00D11BB920465DF8104B41
:10080000704701F1040150F8042BCC0721F00301DB
:1008100051F8043B48D824D222F07F4482FA4CF5A8
:1008200094EA1325A5FA8CF50AD165B951F8043B71
:1008300084EA0204B4EB036F0ED150F8042BEBE70B
:100840004FEA132355E035F07F454DD10878FDE898
:100850000445C0F1000070474FEA126203F0FF0345
:1008600047E002EA1C4482FA4CF594EA1345A5FAE3
:100870008CF50AD165B951F8043B84EA0204B4EB63
:10088000034F0CD150F8042BEBE74FEA134330E051
:1008900015EA1C4528D10B884FEA124229E04FEA9D
:1008A000124203EA1C4324E002F0FF0482FA4CF5F2
:1008B00094EA1365A5FA8CF50AD165B951F8043BA1
:1008C00084EA0204B4EB032F09D150F8042BEBE7C0
:1008D0004FEA13630DE015F0FF0F05D10B684FEAE7
:1008E000122223F07F4304E04FF00000FDE80445AE
:1008F000704712BA1BBA82FA4CF482EA0304A4FAD3
:100900008CF5B5FA85F402FA04F203FA04F34FEA1F
:100910001260FDE80445A0EB136070470000000082
:1009200000000000000000000000000000000000C7
:1009300000000000000000000000000000000000B7
:1009400090F800F06DE9024520F007016FF0000C0F
:1009500010F0070491F820F040F049804FF00004B7
:100960006FF00700D1E9002391F840F000F1080092
:1009700082FA4CF2A4FA8CF283FA4CF3A2FA8CF3CA
:100980004BBBD1E9022382FA4CF200F10800A4FA31
:100990008CF283FA4CF3A2FA8CF3E3B9D1E9042385
:1009A00082FA4CF200F10800A4FA8CF283FA4CF3BC
:1009B000A2FA8CF37BB9D1E9062301F1200182FA76
:1009C0004CF200F10800A4FA8CF283FA4CF3A2FA7C
:1009D0008CF3002BC6D0002A04BF04301A4612BA8A
:1009E000B2FA82F2FDE8024500EBD2007047D1E98D
:1009F000002304F00305C4F100004FEAC50514F01C
:100A0000040F91F840F00CFA05F562EA05021CBFEC
:100A100063EA050362464FF00004A9E70000000006
:100A200001F0FF01102A2BDB10F0070F08D010F89F
:100A3000013B013A8B422DD010F0070F42B3F6D1A3
:100A4000F0B441EA012141EA014122F007047FF0BC
:100A500000070023F0E80256083C85EA010586EA13
:100A6000010685FA47F5A3FA87F586FA47F6A5FA4F
:100A700087F68EB9EED1F0BC01F0FF0102F007025B
:100A800032B110F8013B013A83EA010313B1F8D106
:100A90000020704701387047002D06BF35460338E7
:100AA000073815F0010F07D1013015F4807F02BF20
:100AB000013015F4C03F0130F0BC0138704700BF71
:100AC00081F0004102E000BF83F0004330B54FEAFF
:100AD00041044FEA430594EA050F08BF90EA020F6C
:100AE0001FBF54EA000C55EA020C7FEA645C7FEAFF
:100AF000655C00F0E2804FEA5454D4EB5555B8BF22
:100B00006D420CDD2C4480EA020281EA030382EA92
:100B1000000083EA010180EA020281EA0303362D24
:100B200088BF30BD11F0004F4FEA01314FF4801CF7
:100B30004CEA113102D0404261EB410113F0004F09
:100B40004FEA03334CEA133302D0524263EB4303C0
:100B500094EA050F00F0A780A4F10104D5F1200E5E
:100B60000DDB02FA0EFC22FA05F2801841F10001B9
:100B700003FA0EF2801843FA05F359410EE0A5F18D
:100B800020050EF1200E012A03FA0EFC28BF4CF0BE
:100B9000020C43FA05F3C01851EBE37101F0004574
:100BA00007D54FF0000EDCF1000C7EEB00006EEB81
:100BB0000101B1F5801F1BD3B1F5001F0CD349080B
:100BC0005FEA30004FEA3C0C04F101044FEA445262
:100BD00012F5800F80F09A80BCF1004F08BF5FEAE9
:100BE000500C50F1000041EB045141EA050130BDC9
:100BF0005FEA4C0C404141EB0101013C28BFB1F5DB
:100C0000801FE9D291F0000F04BF01460020B1FA25
:100C100081F308BF2033A3F10B03B3F120020CDAF8
:100C20000C3208DD02F1140CC2F10C0201FA0CF0D6
:100C300021FA02F10CE002F11402D8BFC2F1200C3B
:100C400001FA02F120FA0CFCDCBF41EA0C019040F1
:100C5000E41AA2BF01EB0451294330BD6FEA04043A
:100C60001F3C1CDA0C340EDC04F11404C4F1200225
:100C700020FA04F001FA02F340EA030021FA04F337
:100C800045EA030130BDC4F10C04C4F1200220FA8E
:100C900002F001FA04F340EA0300294630BD21FACC
:100CA00004F0294630BD94F0000F83F4801306BF92
:100CB00081F480110134013D4EE77FEA645C18BF86
:100CC0007FEA655C29D094EA050F08BF90EA020F1D
:100CD00005D054EA000C04BF1946104630BD91EA15
:100CE000030F1EBF0021002030BD5FEA545C05D118
:100CF0004000494128BF41F0004130BD14F5800457
:100D00003CBF01F5801130BD01F0004545F0FE41CA
:100D100041F470014FF0000030BD7FEA645C1ABFFF
:100D2000194610467FEA655C1CBF0B46024650EA36
:100D3000013406BF52EA033591EA030F41F4002162
:100D400030BD00BF90F0000F04BF0021704730B5E8
:100D50004FF4806404F132044FF000054FF00001BD
:100D600050E700BF90F0000F04BF0021704730B57E
:100D70004FF4806404F1320410F0004548BF404253
:100D80004FF000013EE700BF42004FEAE2014FEAA8
:100D900031014FEA02701FBF12F07F4393F07F4F83
:100DA00081F06051704732F07F4208BF704793F086
:100DB0007F4F04BF41F40021704730B54FF4607499
:100DC00001F0004521F000411CE700BF50EA01029C
:100DD00008BF704730B54FF000050AE050EA010245
:100DE00008BF704730B511F0004502D5404261EBB5
:100DF00041014FF4806404F132045FEA915C3FF4F6
:100E0000D8AE4FF003025FEADC0C18BF03325FEA92
:100E1000DC0C18BF033202EBDC02C2F1200300FA43
:100E200003FC20FA02F001FA03FE40EA0E0021FA68
:100E300002F11444BDE600BF70B54FF0FF0C4CF456
:100E4000E06C1CEA11541DBF1CEA135594EA0C0F08
:100E500095EA0C0F00F0DEF82C4481EA030621EA43
:100E60004C5123EA4C5350EA013518BF52EA03357E
:100E700041F4801143F4801338D0A0FB02CE4FF030
:100E80000005E1FB02E506F00042E0FB03E54FF060
:100E90000006E1FB03569CF0000F18BF4EF0010E58
:100EA000A4F1FF04B6F5007F64F5407404D25FEA54
:100EB0004E0E6D4146EB060642EAC62141EA555107
:100EC0004FEAC52040EA5E504FEACE2EB4F1FD0C49
:100ED00088BFBCF5E06F1ED8BEF1004F08BF5FEAC7
:100EE000500E50F1000041EB045170BD06F0004679
:100EF00046EA010140EA020081EA0301B4EB5C0426
:100F0000C2BFD4EB0C0541EA045170BD41F480111D
:100F10004FF0000E013C00F3AB8014F1360FDEBF42
:100F2000002001F0004170BDC4F10004203C35DA1E
:100F30000C341BDC04F11404C4F1200500FA05F3A1
:100F400020FA04F001FA05F240EA020001F0004242
:100F500021F0004110EBD37021FA04F642EB0601B8
:100F60005EEA430E08BF20EAD37070BDC4F10C04E2
:100F7000C4F1200500FA04F320FA05F001FA04F2A6
:100F800040EA020001F0004110EBD37041F1000192
:100F90005EEA430E08BF20EAD37070BDC4F120059D
:100FA00000FA05F24EEA020E20FA04F301FA05F205
:100FB00043EA020321FA04F001F0004121FA04F2AD
:100FC00020EA020000EBD3705EEA430E08BF20EA7D
:100FD000D37070BD94F0000F0FD101F000464000B7
:100FE00041EB010111F4801F08BF013CF7D041EA39
:100FF000060195F0000F18BF704703F0004652003D
:1010000043EB030313F4801F08BF013DF7D043EA0D
:101010000603704794EA0C0F0CEA135518BF95EAC3
:101020000C0F0CD050EA410618BF52EA4306D1D14A
:1010300081EA030101F000414FF0000070BD50EA69
:10104000410606BF1046194652EA430619D094EAF3
:101050000C0F02D150EA013613D195EA0C0F05D1DD
:1010600052EA03361CBF104619460AD181EA030131
:1010700001F0004141F0FE4141F470014FF00000E9
:1010800070BD41F0FE4141F4780170BD70B54FF084
:10109000FF0C4CF4E06C1CEA11541DBF1CEA135504
:1010A00094EA0C0F95EA0C0F00F0A7F8A4EB0504E6
:1010B00081EA030E52EA03354FEA013100F08880DD
:1010C0004FEA03334FF0805545EA131343EA1263A6
:1010D0004FEA022245EA111545EA10654FEA00265B
:1010E0000EF000419D4208BF964244F1FD0404F514
:1010F000407402D25B084FEA3202B61A65EB030570
:101100005B084FEA32024FF480104FF4002CB6EB2C
:10111000020E75EB030E22BFB61A754640EA0C00AC
:101120005B084FEA3202B6EB020E75EB030E22BFEC
:10113000B61A754640EA5C005B084FEA3202B6EB2D
:10114000020E75EB030E22BFB61A754640EA9C00EC
:101150005B084FEA3202B6EB020E75EB030E22BFBC
:10116000B61A754640EADC0055EA060E18D04FEA7A
:10117000051545EA16754FEA06164FEAC30343EA1A
:1011800052734FEAC2025FEA1C1CC0D111F4801FE7
:101190000BD141EA00014FF000004FF0004CB6E7E0
:1011A00011F4801F04BF01430020B4F1FD0C88BF7F
:1011B000BCF5E06F3FF6AFAEB5EB030C04BFB6EB8A
:1011C000020C5FEA500C50F1000041EB045170BD7D
:1011D0000EF0004E4EEA113114EB5C04C2BFD4EBAA
:1011E0000C0541EA045170BD41F480114FF0000E2E
:1011F000013C90E645EA060E8DE60CEA135594EAAA
:101200000C0F08BF95EA0C0F3FF43BAF94EA0C0FAC
:101210000AD150EA01347FF434AF95EA0C0F7FF421
:1012200025AF104619462CE795EA0C0F06D152EA75
:1012300003353FF4FDAE1046194622E750EA410659
:1012400018BF52EA43067FF4C5AE50EA41047FF46A
:101250000DAF52EA43057FF4EBAE12E74FF0FF3CCF
:1012600006E000BF4FF0010C02E000BF4FF0010CA0
:101270004DF804CD4FEA410C7FEA6C5C4FEA430C19
:1012800018BF7FEA6C5C1BD001B050EA410C0CBF68
:1012900052EA430C91EA030F02BF90EA020F0020CA
:1012A000704710F1000F91EA030F58BF994208BF31
:1012B00090422CBFD8176FEAE37040F001007047EE
:1012C0004FEA410C7FEA6C5C02D150EA013C07D145
:1012D0004FEA430C7FEA6C5CD6D152EA033CD3D090
:1012E0005DF8040B704700BF8446104662468C468A
:1012F0001946634600E000BF01B5FFF7B7FF0028BD
:1013000048BF10F1000F01BD4DF808EDFFF7F4FFE5
:101310000CBF012000205DF808FB00BF4DF808ED70
:10132000FFF7EAFF34BF012000205DF808FB00BF93
:101330004DF808EDFFF7E0FF94BF012000205DF8B5
:1013400008FB00BF4DF808EDFFF7CEFF94BF01206A
:1013500000205DF808FB00BF4DF808EDFFF7C4FF63
:1013600034BF012000205DF808FB00BF4FEA410CAC
:101370007FEA6C5C02D150EA013C0AD14FEA430C8F
:101380007FEA6C5C02D152EA033C02D14FF00000CC
:1013900070474FF0010070474FEA410212F500120A
:1013A00015D211D56FF47873B3EB625212D94FEAAC
:1013B000C12343F0004343EA505311F0004F23FA96
:1013C00002F018BF404270474FF00000704750EAEB
:1013D000013005D111F0004008BF6FF000407047A8
:1013E0004FF00000704700BF08B503F051FB08BD87
:1013F0002DE9F04F9DB0064605F076FA804642F2A0
:10140000D17106F09EFA404629F0AAFE0A90B5492D
:1014100029F0B2FE40462AF02FF904460B90B2495B
:101420002AF0F8FDDFF824A300225146204609F0F7
:1014300033FD40462AF020F98146AC4C002221467B
:1014400009F02AFDAA4948462AF0E4FD0021484651
:101450002AF09CFE40462AF00FF907460C90A54D55
:101460000022294609F018FDA34938462AF0D2FD8A
:1014700040462AF001F90D90A0492AF0CBFD4046E4
:101480002AF0FAF807460E900022294609F004FDDA
:101490009B4938462AF0BEFD40462AF0EDF80F90F1
:1014A00098492AF0B7FD404627F064F905460890B0
:1014B00042F2D17106F045FA28462AF0DDF80546D9
:1014C00091492AF0A7FD00231A460921284606F073
:1014D000CDFA404627F04EF905460990802105F0E7
:1014E00087FA42F2D171284606F02BFA28462AF0F4
:1014F000C3F8054685492AF08DFD00231A460921C7
:10150000284606F0B3FA21F0FFFC04F0F5F81EF0CF
:1015100077FE0746012105F0F3F9304605F0E4F9BE
:10152000054642F2D17106F00CFA28462AF0A4F8DA
:101530008346109076492AF06DFD002251465846A8
:1015400009F0AAFC28462AF097F8834611907149C1
:101550002AF060FD00222146584609F09DFC2846ED
:101560002DF0B2FC834601212DF00DFD6A49CDF826
:1015700018B058462DF0B4FCDFF8D4B13B46002239
:101580005946069804F082FA28462AF075F8079022
:1015900062492AF03FFD00222146079809F07CFCB1
:1015A00028462DF091FC059001212DF0ECFC012145
:1015B00005982EF025FB5A4905982DF091FC3B46E5
:1015C00000225946059804F061FA28462AF054F89A
:1015D0000746129053492AF01DFD00222146384645
:1015E00009F05AFC284628F0BFFD13904E4928F018
:1015F0002DFE28462AF040F8074614904B492AF061
:1016000009FD00222146384609F046FC28462DF007
:101610005BFC0746159001212DF0B5FC00231A460E
:101620004349384604F032FA304605F05DF9074682
:101630002AF022F8834616903E492AF0EBFC00225D
:101640005146584609F028FC38462AF015F88246DB
:10165000179039492AF0DEFC00222146504609F055
:101660001BFC38462CF0C8FB834642F25F0106F0B3
:1016700051F900231A463149584604F007FA5846F2
:1016800006F094F8384629F0F7FF824618902C4966
:101690002AF0C0FC00222146504609F0FDFB3846E6
:1016A0002CF056FD1990384629F0E6FF82461A9034
:1016B00024492AF0AFFC00222146504609F0ECFBF9
:1016C00038462CF045FD1B901F4B1B78022B41D058
:1016D000012B00F07981002B00F0B8821DB0BDE82D
:1016E000F08F00BF9CBD03083CE90408880C002073
:1016F00048E90408800C002088E904088CE9040803
:101700009CE90408A0E90408B4E90408BCE9040859
:10171000C4E90408D4E90408E0E90408ECE9040891
:10172000F8E9040808EA040810EA040824EA0408AE
:101730005122000830EA04083CEA0408512000085D
:1017400048EA040854EA0408440C0020900C0020E5
:10175000B5230008964A9749304616F07DFB0124D0
:10176000029400260196009402233246032140464B
:1017700016F0C2FB904A9149404616F06DFB4FF0BF
:10178000050ACDF808A0019600942346324621466A
:101790000A9816F0B1FB02940196009402231A46AF
:1017A00031460B9816F0A8FB02940194009604238E
:1017B00002220321484616F09FFB02944FF00308D3
:1017C000CDF8048000942346022221460C9816F09E
:1017D00093FB0294CDF804800094234642463146A0
:1017E0000D9816F089FB029404230193009423467C
:1017F000022221460E9816F07FFB029404230193E7
:1018000000942346424631460F9816F075FB4FF080
:101810000209CDF80890CDF80480009423460422F4
:101820004146089816F068FBCDF80890CDF8048082
:101830000094234652464146099816F05DFB0294F7
:1018400001940096234632464146284616F054FB42
:101850005B4A5C49284616F0FFFA02940196009410
:101860004B4632463146109816F046FB0294CDF8AE
:1018700004800094234632464146069816F03CFB0D
:101880000294CDF8049000962346324631461198D2
:1018900016F032FB0294CDF80480009423462246D1
:1018A0004146059816F028FB0294CDF80490009666
:1018B000234622463146079816F01EFB0294062561
:1018C00001950094234622464146159816F014FBD4
:1018D0000294CDF804A0009623462246314614987F
:1018E00016F00AFB029401950094234632464146C5
:1018F000139816F001FB0294CDF804A0009623463D
:1019000032463146129816F0F7FA02940194CDF857
:101910000080234622464146384616F0EDFA284A12
:101920002849384616F098FA0294019600944B46DE
:1019300032463146169816F0DFFA0294CDF804804C
:1019400000944B4632462146584616F0D5FA02948A
:10195000CDF804900096234632463146179816F08B
:10196000CBFA0294019500942346224631461B98F7
:1019700016F0C2FA0294CDF804A00096234632462F
:1019800031461A9816F0B8FA02940195009423464D
:1019900032463146199816F0AFFA0294CDF804A0F9
:1019A0000096234622463146189816F0A5FA95E689
:1019B000200100200C0100205800002034000020ED
:1019C0009C000020840000209A4A9B49304616F073
:1019D00043FA012402940026019600940223324621
:1019E0000321404616F088FA7821089805F092FF06
:1019F0007821099805F08EFF904A9149404616F0EB
:101A00002BFA4FF0040ACDF808A001960096234661
:101A1000324621460A9816F06FFA02940196009415
:101A200002231A4631460B9816F066FA0294019486
:101A3000009602231A460321484616F05DFA0294E6
:101A40004FF00208CDF8048000942346032231466B
:101A50000D9816F051FA0294CDF8048000942346B4
:101A6000424621460C9816F047FA0294CDF804A09D
:101A700000942346424621460E9816F03DFA029401
:101A8000CDF804A000942346032231460F9816F0A7
:101A900033FA02944FF00509CDF8049000942346E0
:101AA00022463146089816F027FA0294CDF80490A1
:101AB0000094234603224146099816F01DFA029429
:101AC00001940096234632460321284616F014FA64
:101AD0005C4A5D49284616F0BFF9029401960094CD
:101AE000434632463146109816F006FA0294CDF875
:101AF00004800096434632463146119816F0FCF9B0
:101B000002940325019500964346324629460698DD
:101B100016F0F2F90294CDF804A00096434632463E
:101B20003146079816F0E8F90294CDF80490009633
:101B3000434632462946059816F0DEF902940623FC
:101B400001930096434632463146149816F0D4F974
:101B5000029407230193009643463246294615987E
:101B600016F0CAF9029408230193009643463246C0
:101B70003146129816F0C0F9029409230193009699
:101B8000434632462946139816F0B6F9029401945A
:101B90000095234622462946384616F0ADF9294AD3
:101BA0002949384616F058F90294019600944346A4
:101BB00032463146169816F09FF90294019500942A
:101BC000434632462146584616F096F90294CDF81F
:101BD00004800096234632463146179816F08CF959
:101BE0000294CDF804A000962346324631461A9856
:101BF00016F082F90294CDF80490009623463246FE
:101C000031461B9816F078F902940623019300964A
:101C1000234632463146189816F06EF9029407238F
:101C200001930096234632463146199816F064F91E
:101C300054E500BF280100201401002064000020AA
:101C400044000020AC0000208C0000209D4A9E49EA
:101C5000304616F001F99D4A9D49404616F0FCF8C1
:101C60009C4E9D4C32462146284616F0F5F83246E9
:101C70002146384616F0F0F8012402940026019619
:101C80000094234632460321404616F035F9324689
:101C90000221484609F079FC02940196009402233F
:101CA000324621460A9816F027F9029401940094CE
:101CB0000223324621460B9816F01EF902944FF08B
:101CC0000208CDF804800096434632460321484678
:101CD00016F012F902944FF00309CDF80490009425
:101CE0002346324621460C9816F006F90294CDF8A8
:101CF000049000942346224631460D9816F0FCF8D5
:101D000002944FF0040ACDF804A000942346324612
:101D100021460E9816F0F0F80294CDF804A0009435
:101D20002346224631460F9816F0E6F80294052322
:101D300001930094434632464946089816F0DCF871
:101D4000029406230193009443463246494609987B
:101D500016F0D2F802940194009623463246494682
:101D6000284616F0C9F8029401960094434632467C
:101D70003146109816F0C0F80294CDF80480009611
:101D8000434632463146119816F0B6F80294CDF823
:101D900004900096434632464946069816F0ACF841
:101DA0000294CDF804A00096434632463146079887
:101DB00016F0A2F80294052301930096434632469A
:101DC0004946059816F098F8029406230193009668
:101DD000434632463146149816F08EF80294072393
:101DE00001930096434632464946159816F084F80A
:101DF00002940823019300964346324631461298D6
:101E000016F07AF80294092301930096434632466D
:101E10004946139816F070F842F2D171384605F031
:101E200090FD0294CDF80480009623463246494640
:101E3000384616F061F80294019600944346324603
:101E40003146169816F058F80294CDF804800096A2
:101E5000234632463146179816F04EF80294CDF8D4
:101E600004900094434632462146584616F044F802
:101E70000294CDF804A000962346324631461A98C3
:101E800016F03AF802940523019300962346324651
:101E90003146199816F030F80294CDF804A0009657
:101EA000234622463146189816F026F80294052358
:101EB000019300962346224631461B9816F01CF8E3
:101EC0000CE400BF300100201C0100207400002041
:101ED00050000020C400002094000020F0B591B014
:101EE000054603F0B7FD04461A2803D01B2C2DD05D
:101EF00011B0F0BD284603F0B1FD0646436BB3F5C3
:101F0000C02F07D0736BB3F5A02FEFD13369002238
:101F1000DA70EBE7836B022BF4D102AFDFF82CC150
:101F2000BCE80F000FC7BCE80F000FC79CE80F000C
:101F300087E80F00336C10AA02EB830353F8383C98
:101F40003D4A316BF06A23F061FADBE7284603F083
:101F500085FD0446436BB3F5A02FC9D102A80DF04F
:101F6000A5FAE368DD885A88AD1AADB201352DB205
:101F7000B3F90020ADF80020B3F90420ADF8042037
:101F8000B3F90220ADF80220A16B2C4B53F821309D
:101F900005FB03F32A4EA6FB03135B0913FA82F336
:101FA0000433ADF80630002021F02EFEADF80C0011
:101FB0000423ADF808306A4602A920680DF09EFAA5
:101FC000BDF80620043AADF80220A16B1D4B53F872
:101FD000213003FB05F3A6FB03135B0913FA82F31D
:101FE000ADF80630052021F00FFEADF80C000023FF
:101FF000ADF808306A4602A920680DF07FFABDF9F5
:102000000620ADF80220A16B0F4B53F8213003FBE3
:1020100005F3A6FB03135B0913FA82F3ADF8063050
:10202000092021F0F1FDADF80C006A4602A92068F4
:102030000DF064FA5CE700BFA00605081CEF040879
:102040001F85EB51F4EE040844EF04085898030888
:1020500070B5A2B0054603F0FDFC0446284603F027
:10206000F5FC132C04D006461B2C0BD022B070BDFF
:10207000284603F0F3FCB0F900303C2BB8BF3C23FA
:102080000380F3E7284603F0E9FC0446436BB3F50D
:10209000403FEBD12021304604F0D2FC0028E5D0AF
:1020A000304626F03EFB0346664A082106A823F088
:1020B000ADF90025029541F6FF73019300952B467B
:1020C000614A126806A905A825F012F8E1680A8895
:1020D0008B889B1A9BB20133C3F3C03000FA83F3A1
:1020E00002EB63039BB2BDF9142002EBD270A3EBA9
:1020F00060039EB2ADF8203016FA82F2ADF82420CB
:102100004B880A3B9AB2ADF82630BDF81630D31A88
:10211000ADF82230284620F02DFF1D284FDC01238A
:10212000F61AADF82860BDF82450002020F022FFF8
:102130001D2851DC01232B44ADF82C30BDF8225072
:10214000002020F017FF1D2853DC0123EB1AADF807
:102150002A30BDF82650002020F00CFF1D2855DC49
:1021600001232B44ADF82E3014A80DF09FF9032164
:10217000122021F09FFDADF85400002020F0FAFE5F
:1021800000EB8000EF284EDC0123ADF850300AAAA6
:1021900014A920680DF0B2F90CA80BF0B1FA4FF6B3
:1021A000FF73ADF83C30284B1B680C93206800236C
:1021B000009306AB08AA0CA90BF0C2FA56E7284612
:1021C00020F0D8FE00F10A03204A82FB0312DB173D
:1021D000C3EBE2039BB2A3E7002020F0CBFE00F1AB
:1021E0000A031A4A82FB0312DB17C3EBE2039BB21A
:1021F000A1E7002020F0BEFE00F10A03134A82FB93
:102200000312DB17C3EBE2039BB29FE7002020F031
:10221000B1FE00F10A030D4A82FB0312DB17C3EB88
:10222000E2039BB29DE7002020F0A4FE00EB8000BB
:1022300000F15003054A82FB0312DB17C3EBA21324
:102240001BB2A2E764EA04084C0C002067666666CD
:1022500038B5054603F0FEFB0446284603F0F6FBBE
:102260000E2C00D038BD054603F07EFE03F082FE42
:102270000128F7D12C4B1B68002BF3D120F044FE32
:1022800003F072FA022104F03BFB20F03DFE03F064
:102290006BFA1AF06BFC244B186020F035FE03F04B
:1022A00063FA00227F2109F026F920F02DFE03F0C9
:1022B0005BFA0446122021F0A7FC014600222046CA
:1022C00009F009F9194B1B7803B3012B25D04FF402
:1022D000A5724FF49671144B186805F049FB124C27
:1022E000012240F2C67120681AF056FC1E2300221B
:1022F0000921206805F0BAFB2B4600220C49206812
:1023000003F0C4FB20681AF00FFFABE7C822B4212A
:10231000054B186805F02CFBE1E7DC22C821024BD5
:10232000186805F025FBDAE7340C0020440C002087
:102330003523000870B58CB0044603F08BFB0546CE
:10234000204603F08DFB0646204603F081FB1C2D42
:1023500001D00CB070BD03A91AF040FD9DF90E30FC
:10236000BDF80C20019200939DF90F300F4A2021F7
:1023700004A823F04BF804A930462DF0ABFB0C4D1C
:10238000286809F01DFA00242C6020F0BDFD03F040
:10239000EBF9022104F0EDFA20F0B6FD03F0E4F9C8
:1023A0002246214609F0A7F8D3E700BF68EA0408EF
:1023B000340C0020F8B5054603F04CFB04462846D3
:1023C00003F044FB0646284603F04AFB05460E2C64
:1023D00006D00F2C39D01F3CE4B2012C4BD9F8BDEC
:1023E00003F0C2FD03F0C6FD0228F8D031462846AE
:1023F0001DF012FF20F088FD20F08CFD40002949DF
:1024000081FB0031A1EBE071002209B2284609F0FE
:102410001CF8254C206806F017FC276820F074FD96
:1024200020F090FD84B2284605F089FB81B2611A44
:1024300009B2384605F085FA0121284604F099FAD8
:102440000021304607F057FBC9E700211DF0E4FEEC
:10245000154B1C6820F058FD20F074FD0146204605
:1024600005F06FFA0121284604F04AFA31460020AF
:1024700003F086FDB3E70C4B1C6820F045FD20F00F
:1024800061FD0146204605F05CFA0121284604F072
:1024900037FA0221304604F0B7FA3146002003F043
:1024A0006FFD9CE756555555980C002030B591B0FE
:1024B000044603F0CFFA072801D011B030BD204602
:1024C00003F0CEFA044605F033FB054620F01CFD70
:1024D00020F020FD00EBD07343F34F039D4211DA4F
:1024E000684620F0A7FE00940F4B0193002307934A
:1024F00008934FF480730993C8230A93684620F029
:10250000E1FEDAE7684620F095FE0094064B019361
:102510004FF480730793089300230993C8230A9309
:10252000684620F0CFFEC8E70943000838B50C46DE
:10253000074D0A46014628681FF08CFB00212868D9
:1025400009F084F82246034929F0C6FD38BD00BFD2
:10255000640C002064EA04082DE9F047C6685B4B70
:102560001B78002B00F08A80594A1368893B13605E
:10257000B3F5AF6F02D2554B00221A70554B1B7842
:10258000002B00F08880544A1368033B1360B3F5B6
:10259000AF6F02D24F4B00221A70504B1B78002BAA
:1025A00000F086804E4A1368393B1360B3F5AF6F75
:1025B00002D24A4B00221A70DFF81491D9F8004079
:1025C000DFF81481D8F80030E518454F3A68154413
:1025D00004EB440204EB4214B4FBF5F403EB4302B6
:1025E00003EB4213B3FBF5F5DFF804A100223168D9
:1025F000DAF800001FF055FB22463168DAF80000D7
:102600001FF069FB621C7168DAF800001FF049FBDB
:102610002C44621C7168DAF800001FF05CFBA21CFD
:10262000B168DAF800001FF03CFB6322B168DAF809
:1026300000001FF050FBDAF8000008F0C9FF044664
:102640006FF0040109F002F8D9F80020254929F0BB
:1026500043FD6FF00201204608F0F8FFD8F8002093
:10266000214929F039FD4FF0FF31204608F0EEFFF7
:102670003A681E4929F030FDBDE8F087144A136816
:102680007433136041F2941293427FF677AF0F4B8D
:1026900001221A7072E7104A13680933136041F27D
:1026A000941293427FF679AF0A4B01221A7074E7B5
:1026B0000B4A13684C33136041F2941293427FF635
:1026C0007BAF064B01221A7076E700BF450C002055
:1026D00064010020460C00206C010020470C002003
:1026E0006801002078EA040888EA040894EA0408EB
:1026F000540C002038B50C46084D0A46014628689F
:102700001FF0E9FA286808F063FF4FF0FF3108F086
:102710009DFF2246024929F0DFFC38BD500C002005
:10272000A0EA040838B50C46084D0A460146286858
:102730001FF0D1FA286808F04BFF6FF0020108F093
:1027400085FF2246024929F0C7FC38BD500C002005
:10275000B0EA040838B50C46084D0A460146286818
:102760001FF0B9FA286808F033FF6FF0040108F091
:102770006DFF2246024929F0AFFC38BD500C002005
:10278000C0EA04082DE9F043A9B0054603F062F958
:102790000446284603F05AF90646012C00F09180C1
:1027A000082C00F08E801A2C40F08E80284603F012
:1027B00055F90446436BB3F5C02F00F08880B3F59C
:1027C000A02F40F08180616A00296DD0A06A0028A6
:1027D0006AD0B0F90030B1F90220B1F90010032538
:1027E0000195B0F9020000900FA80CF015FC002133
:1027F0000FA80CF01FFB0746304605F0A0F906F1C4
:102800001408F38A02460028C0F2968003EBE20324
:10281000B6F91A200192002500951BB2FF2241460D
:1028200009A80CF025FE294609A80CF003FB054673
:102830001AA80CF03BFE7F238DF86B30A3691B8830
:10284000ADF86C3023680DF114094246996848468A
:1028500020F062FE2368D3F80880C3F80890626A0B
:10286000B2F90030ADF81C30A16A0B88013BADF81D
:102870002030B1F90230B2F902209342A8BF1346CA
:10288000ADF81E30B6F91A30ADF8223007AA1AA9F1
:1028900020680CF033FE2368C3F8088038460CF03B
:1028A0001FFB28460CF01CFB656C30461CF050F9F1
:1028B000A36B984242D022690023D3842269D38536
:1028C00002E0304605F002FD29B0BDE8F083826BDE
:1028D000022A7FF474AF30461BF076FD022815D033
:1028E0001AADC14E0FCE0FC50FCE0FC596E80F0023
:1028F00085E80F00236C28AA02EB830353F8383CC9
:10290000BA4A216BE06A22F081FDDDE71AADB84ECC
:102910000FCE0FC50FCE0FC596E80F0085E80F004C
:10292000236C28AA02EB830353F8383CAF4A216B8F
:10293000E06A22F06BFDC7E7C21D67E730461BF077
:1029400043FD012800F0A78023692A899A8523691D
:102950000F22DA85236900229A86236CA54A082172
:1029600005A822F053FD0023029341F6FF72019265
:102970000093A14A126805A904A824F0B9FB3046C7
:102980001BF022FD022800F08E80E1680B888A8807
:10299000D21A92B20132C2F3C03000FA82F203EBD3
:1029A00062039BB2BDF9102002EBD270A3EB60036F
:1029B000ADF81C3092B212FA83F3ADF820304E8895
:1029C000002020F0D7FAC0EB0010EF2800F3BA8007
:1029D0000123F31A9AB2ADF82230BDF81230D31A9F
:1029E000ADF81E30BDF81C60002020F0C3FA1D2891
:1029F00000F3B7800123F31AADF82430BDF820604E
:102A0000002020F0B7FA1D2800F3B88001233344DA
:102A1000ADF82830BDF81E60002020F0ABFA1D286C
:102A200000F3B9800123F31AADF82630BDF8226017
:102A3000002020F09FFA1D2800F3BA8001233344C0
:102A4000ADF82A301AA80CF031FD2B89ADF86C30A6
:102A5000002020F08FFA00EB8000EF2800F3B58013
:102A60000123ADF8683009AA1AA920680CF046FDC8
:102A70000FA80AF045FE4FF6FF73ADF848305E4BE5
:102A80001B680F9320680023009305AB07AA0FA9CA
:102A90000AF056FE18E723694FF6FF729A842369FD
:102AA0000222DA8459E7E3685F88002020F062FAA6
:102AB000C0EB0010EF2824DC0123FB1A9AB2ADF81A
:102AC0002230BDF81230D31AADF81E300021304646
:102AD0001CF000F8854220D0E3681A889B889B1A76
:102AE0009BB20133C3F3C03101FA83F302EB6303FA
:102AF0009AB2ADF82030BDF81030D31AADF81C30C2
:102B000070E7002020F036FAC0EB001000F150030F
:102B1000A02293FBF2F39BB2CFE7E3681A889B886D
:102B20009B1A9BB20133C3F3C03101FA83F302EB6A
:102B30006303ADF81C30BDF8102012FA83F3ADF832
:102B400020304FE7002020F015FAC0EB001000F114
:102B500050032A4A82FB0312DB17C3EBA2139BB27A
:102B600037E7002020F006FA00F10A03234A82FB2F
:102B70000312DB17C3EBE2039BB23CE7002020F01B
:102B8000F9F900F10A031D4A82FB0312DB17C3EBBC
:102B9000E2039BB23BE7002020F0ECF900F10A03CE
:102BA000164A82FB0312DB17C3EBE2039BB23AE740
:102BB000002020F0DFF900F10A03104A82FB031223
:102BC000DB17C3EBE2039BB239E7002020F0D2F918
:102BD00000EB800000F15003084A82FB0312DB1770
:102BE000C3EBA2131BB23CE758980308A0060508E4
:102BF000889803089CEA04084C0C00206766666607
:102C00002DE9F04F89B00D4617461E4603F06CFEC5
:102C1000044642F2D17104F094FE0121204614F0E2
:102C200061FB204628F028FD8246294629F0F2F96A
:102C30000022A349504608F02FF920461EF0F6FE68
:102C400005460022114608F0CBFA4FF4003200216D
:102C5000284608F0C5FA42F26401284604F05AFEFC
:102C6000204603F041FE80460D22114604F080FE0E
:102C70004FF480320021404608F0B2FADFF8589253
:102C800000224946404608F007F9002020F0BCFF2A
:102C900001460022404608F01EFC204628F0ECFCCD
:102CA0000590394629F0B6F9204603F01DFE074687
:102CB0000D22114604F05CFE4FF4803200213846AC
:102CC00008F08EFA00224946384608F0E5F805205B
:102CD00020F09AFF01460022384608F0FCFB20460F
:102CE00028F0CAFC0690314629F094F9204603F0FA
:102CF000FBFD06460D22114604F03AFE4FF48032E9
:102D00000021304608F06CFA00224946304608F0AF
:102D1000C3F8092020F078FF01460022304608F071
:102D2000DAFB204628F0A8FC0790129929F072F9E6
:102D3000644B1B78012B65D0634A6449204615F02B
:102D40008BF84FF00109CDF808900024019400940D
:102D5000022322462146504615F0CEF8CDF80890C1
:102D6000CDF804900094022322462146284615F00F
:102D7000C3F8CDF808904FF0020ACDF804A00094F3
:102D80004B4622462146404615F0B6F8CDF808904D
:102D90004FF00308CDF8048000944B4622462146AC
:102DA000384615F0A9F8CDF808900427019700944B
:102DB0004B4622462146304615F09EF8CDF8089045
:102DC000CDF804A000944B464A464146059815F0BC
:102DD00093F8CDF80890CDF8048000944B464A460D
:102DE0004146069815F088F8CDF8089001970094B0
:102DF0004B464A464146079815F07EF8284609B0EA
:102E0000BDE8F08F324A3349204615F025F80124F9
:102E100002944FF00009CDF80490CDF800900423FF
:102E20004A464946504615F067F84FF0030ACDF878
:102E300008A00194CDF8009023464A46494628460A
:102E400015F05AF802944FF0020BCDF804B000943C
:102E500023465A464946404615F04EF80294CDF8AE
:102E600004A0009423465A464946384615F044F8D3
:102E7000029404270197009423465A464946304657
:102E800015F03AF80294CDF804B000942346524667
:102E90005146059815F030F80294CDF804A000943E
:102EA000234652465146069815F026F8029401979B
:102EB0000094234652465146079815F01DF89DE7A9
:102EC000900C0020440C002048010020F800002055
:102ED00038010020EC000020780C00202DE9F043A0
:102EE00085B00C461646994603F0FEFC05462E4A70
:102EF000002108F075F942F2D17242F264012846CD
:102F000004F036FD294A2A49284614F0A5FF284630
:102F100028F026F98046214628F02EF9022702974C
:102F2000002401940094012322462146404614F0D7
:102F3000E3FF284628F0A0FB8046314629F06AF8D6
:102F4000012602960194009733463A4621464046B0
:102F500014F0D2FF284628F08FFB8046494629F01E
:102F600059F822461349404607F096FF029601960B
:102F7000009433463A462146404614F0BDFF2846A9
:102F800028F07AFB80460C9929F044F802960194C7
:102F90000097334603223946404614F0ADFF2846D9
:102FA00005B0BDE8F08300BFFFFF0F005401002013
:102FB00000010020880C00202DE9F04794B006465F
:102FC000042114F03FF9304603F08EFC0546012140
:102FD00014F088F9CE4ACF49284614F03DFF42F25A
:102FE0006401284604F0ADFC00224FF49671284697
:102FF00008F02BFA284628F03FFB8046C64929F006
:1030000009F80022C549404607F046FF012702970C
:10301000002401940094022322462146404614F0E5
:103020006BFF28461BF0A0F9BD4D286002F098FE0A
:10303000296802F0C5FE4FF48061286803F060FC47
:1030400002970197032100913B463A46286814F005
:1030500053FF5023039302970197052300932346C0
:103060002246214628681CF0A7F9322303930297D1
:1030700001970C27009723462246022128681CF05E
:103080009BF93A46214628681BF07AF939462868A8
:103090001BF042FC23462246A249286802F0F6FCB7
:1030A000A14B1B78002B00F07085012B00F074857C
:1030B0009B4C00220521206808F02BFA00221146C3
:1030C000206808F069FA2568284609F075FE01466F
:1030D000002228461BF05AFC0746944D2860D4F87D
:1030E000008050210A2021F05DFA02B239464046A4
:1030F0001BF0FAFC2768D5F8008050210A2021F047
:1031000051FA02B2414638461BF0EEFC2768D5F86A
:10311000008050210A2021F045FA02B2414638468B
:103120001BF0E2FC2768D5F8008050210A2021F02E
:1031300039FA02B2414638461BF0D6FC2768D5F86A
:10314000008050210A2021F02DFA02B24146384673
:103150001BF0CAFC2768D5F8008050210A2021F016
:1031600021FA02B2414638461BF0BEFC2768D5F86A
:10317000008050210A2021F015FA02B2414638465B
:103180001BF0B2FC2768D5F8008050210A2021F0FE
:1031900009FA02B2414638461BF0A6FC2768D5F86A
:1031A000008050210A2021F0FDF902B24146384644
:1031B0001BF09AFC2768D5F8008050210A2021F0E6
:1031C000F1F902B2414638461BF08EFC2768D5F86B
:1031D000008050210A2021F0E5F902B2414638462C
:1031E0001BF082FC2768D5F8008050210A2021F0CE
:1031F000D9F902B2414638461BF076FC24682D68A6
:1032000050210A2021F0CEF902B2294620461BF0B7
:103210006BFC304603F068FB05464FF4000103F0F9
:103220006FFB0121284614F05DF842F26401284644
:1032300004F087FB00224FF49671284608F005F948
:10324000334A3449284614F007FE284628F014FA79
:103250008046374928F0DEFE00223049404607F01C
:103260001BFE0127029700240194009402232246AA
:103270002146404614F040FE28461BF075F82D4DBF
:10328000286002F06DFD296802F09AFD4FF480611C
:10329000286803F035FB02970197032100913B4614
:1032A0003A46286814F028FE5023039302970197AA
:1032B0004FF00508CDF800802346224621462868B5
:1032C0001CF07AF832230393029701970C2700979A
:1032D00023462246022128681CF06EF842F264025E
:1032E0001146286804F044FB022128681BF0B6FA56
:1032F0002246062128681BF043F8394628681BF04F
:103300000BFB234622460749286802F0BFFB13E067
:10331000E4000020DC000020D0EA0408900C00202B
:10332000380C002085270008440C0020680C002081
:10333000E0EA04083C0C00204FF4007128681BF000
:1033400030F822464146286808F0E3F82246214634
:10335000286808F021F9D24B1B78002B00F0248458
:10336000022B00F03C84CF4C25680121122020F074
:103370006BFC0146002228461BF008FB0746CA4D9D
:103380002860D4F8008050210A2021F00BF902B205
:10339000394640461BF0A8FB2768D5F8008050212D
:1033A0000A2021F0FFF802B2414638461BF09CFB90
:1033B0002768D5F8008050210A2021F0F3F802B2E6
:1033C000414638461BF090FB2768D5F80080502115
:1033D0000A2021F0E7F802B2414638461BF084FB90
:1033E0002768D5F8008050210A2021F0DBF802B2CE
:1033F000414638461BF078FB2768D5F800805021FD
:103400000A2021F0CFF802B2414638461BF06CFB8F
:103410002768D5F8008050210A2021F0C3F802B2B5
:10342000414638461BF060FB2768D5F800805021E4
:103430000A2021F0B7F802B2414638461BF054FB8F
:103440002768D5F8008050210A2021F0ABF802B29D
:10345000414638461BF048FB2768D5F800805021CC
:103460000A2021F09FF802B2414638461BF03CFB8F
:103470002768D5F8008050210A2021F093F802B285
:10348000414638461BF030FB2768D5F800805021B4
:103490000A2021F087F802B2414638461BF024FB8F
:1034A00027682D6850210A2021F07CF802B22946B5
:1034B00038461BF019FB25687C4B186809F07CFC2A
:1034C0000146002228461BF061FA0746784D286025
:1034D000D4F8008050210A2021F064F802B2394665
:1034E00040461BF001FB2768D5F8008050210A20D8
:1034F00021F058F802B2414638461BF0F5FA276829
:10350000D5F8008050210A2021F04CF802B2414643
:1035100038461BF0E9FA2768D5F8008050210A20C8
:1035200021F040F802B2414638461BF0DDFA276828
:10353000D5F8008050210A2021F034F802B241462B
:1035400038461BF0D1FA2768D5F8008050210A20B0
:1035500021F028F802B2414638461BF0C5FA276828
:10356000D5F8008050210A2021F01CF802B2414613
:1035700038461BF0B9FA2768D5F8008050210A2098
:1035800021F010F802B2414638461BF0ADFA276828
:10359000D5F8008050210A2021F004F802B24146FB
:1035A00038461BF0A1FA2768D5F8008050210A2080
:1035B00020F0F8FF02B2414638461BF095FA276822
:1035C000D5F8008050210A2020F0ECFF02B24146DD
:1035D00038461BF089FA2768D5F8008050210A2068
:1035E00020F0E0FF02B2414638461BF07DFA246825
:1035F0002D6850210A2020F0D5FF02B2294620462E
:103600001BF072FA2B4B00932B4B2C4A2C49304663
:10361000FFF7F6FA2B4D286007F0DAFF4FF40001B0
:1036200003F06EF928681EF00DFA04465A23019340
:103630004FF48773009364230022014628681EF02C
:1036400050FA4FF00003ADF80430002700973B46D6
:103650003A46214628681EF029FA04A81FF0EAFD20
:1036600014230B930C9364230D934FF6FF73ADF863
:103670004C30D5F80080052020F0C6FA03460097AC
:103680000F22214640461EF06FFA0F4B059304901F
:1036900041F204030E9340F68C23119304A815E025
:1036A000440C00203C0C00206C0C0020380C002046
:1036B000700C00201CEB0408F0EA0408FCEA040883
:1036C0000CEB0408500C0020552700081FF0FAFDF1
:1036D000D5F80080384620F097FA03466FF01302C1
:1036E00000920F22214640461EF03EFAD24B05932F
:1036F000049040F628230E934FF4486311930990E9
:1037000004A81FF0DFFD2D68092020F07DFA034694
:103710006FF0270200920F22214628461EF024FA5D
:10372000C64B059304904FF42F630E934FF4E1635F
:10373000119304A81FF0C6FDC14B0093C14BC24AB0
:10374000C2493046FFF75CFAC14B1860C14B1B7889
:10375000012B40F25282BE4C20681EF073F90746DE
:103760005A2301934FF4B47300936423002201465B
:1037700020681EF0B6F94FF00003ADF804304FF0AA
:103780000008CDF8008043464246394620681EF0C6
:103790008DF92568404620F037FA03466FF009029C
:1037A00000921422394628461EF0DEF90146AA4D41
:1037B0002860424620681EF074FA27222968206893
:1037C0001EF089FAD4F80090052020F01DFA034677
:1037D000CDF800801E22394648461EF0C5F9014644
:1037E0006860282220681EF05CFA4522696820681B
:1037F0001EF071FAD4F80080092020F005FA034683
:103800006FF0130200920A22394640461EF0ACF9CE
:103810000146A860462220681EF043FA6322A96888
:1038200020681EF058FA2A4664218C4822F0DAF902
:103830008B4B00938B4B8C4A8C493046FFF7E0F959
:103840008B4B1860834B1B78012B40F2DD81884C39
:10385000256800220A21284607F021FE00220A21BD
:10386000284607F023FE25684FF400320A21284637
:1038700007F0D6FD4FF400320A21284607F0DEFD9E
:103880004FF4003247F6FF71206807F085FE4FF4D1
:103890000032FF21206807F02EFE25680421122047
:1038A00020F008FA01464FF40032284607F013FED4
:1038B0004FF400324FF0FF31206807F038FE4FF42C
:1038C00000320321206807F02BFE25680121122019
:1038D00020F0F0F901464FF4C022284607F03EFEE2
:1038E00020681EF0AFF805468C230193DC2300937B
:1038F0003C230A22014620681EF0F3F84FF6FF73BE
:10390000ADF80430112300930323152229462068C3
:103910001EF0CCF80F2302934FF6FF73ADF804307E
:103920001623009304231A46294620681EF0CAF87D
:10393000D4F80080002020F067F9034600270097A4
:103940000A22294640461EF00FF980463A460146B3
:1039500020681EF0A6F91422414620681EF0BBF92B
:10396000D4F800A00321384620F0A4F980460321B2
:10397000384620F09FF9034601974FF00109CDF832
:1039800000904246294650461EF026F980463A46A7
:10399000014620681EF085F91422414620681EF079
:1039A0009AF9D4F80080052020F02EF903460097FC
:1039B0000C22294640461EF0D7F8804614220146C4
:1039C00020681EF06EF92822414620681EF083F917
:1039D000D4F800A00321052020F06CF980460321D3
:1039E000052020F067F903460197CDF80090424684
:1039F000294650461EF0F0F8804614220146206801
:103A00001EF04FF92822414620681EF064F9D4F8D0
:103A10000080092020F0F8F8034600970A22294682
:103A200040461EF0A1F880462822014620681EF07C
:103A300038F93C221EE000BF25270008F5260008C3
:103A40004CEB040828EB040834EB040840EB0408B2
:103A5000540C0020440C0020580C0020592500086C
:103A600084EB040858EB040868EB040874EB0408C2
:103A7000640C0020414620681EF02DF9D4F800A007
:103A80000321092020F016F980460321092020F0A7
:103A900011F903460197CDF8009042462946504659
:103AA0001EF09AF880462822014620681EF0F9F898
:103AB0003C22414620681EF00EF9D4F80080042113
:103AC000122020F0F7F803466FF01802009204224B
:103AD000294640461EF010F88046206827F0CCFDAD
:103AE0000546564928F096FA3A465549284607F0C1
:103AF000D3F9206827F0C0FD0446524928F08AFA1D
:103B000004A81FF097FB0A230B930C933C230D93FF
:103B10004FF6FF73ADF84C304B4B0593CDF810804A
:103B200041F204030E934FF44873119304A81FF05D
:103B3000C9FB304605F088F8444B1B784B456AD0EA
:103B4000434F386803F0F4FF06460146386803F037
:103B5000F8FE31463F4B186803F0F3FE31463E4B0A
:103B6000186803F0EEFE42F237030A2202212846CB
:103B700003F07CFF002300930A23152229462046E8
:103B800005F082F814B0BDE8F0874FF44071286862
:103B90001AF007FCFFF78CBA4FF400712F4B18682E
:103BA0001AF0FFFBFFF784BA2C462D684FF4A022D1
:103BB0000021284607F081FC4FF4A022002128466E
:103BC00007F082FC246800220221204607F075FCE1
:103BD00000220221204607F077FCFFF7C4BB204BF0
:103BE0001C6800221021204607F067FC00221021EB
:103BF000204607F069FCFFF7B6BB07F0E9FC4FF47D
:103C0000000102F07DFEA6E507F0E2FC4FF40001A2
:103C100002F076FE1BE6C82211460D4B186803F031
:103C2000A7FEC82211460B4B186803F0A1FEC8225C
:103C30001146094B186803F09BFE94E790EB0408CB
:103C4000900C002094EB04082D250008440C002063
:103C5000500C0020540C0020640C0020380C002074
:103C60003C0C00202DE9F04F87B00746042113F0EB
:103C7000E9FA384602F038FE064642F2D17242F2C4
:103C8000640103F075FE00221E21304607F000FC9F
:103C9000304627F0F1FC8246DB4928F0BBF9DB4CCB
:103CA00000222146504607F0F7F8304627F0E4FCA2
:103CB0008146D74928F0AEF90022D649484607F098
:103CC000EBF8304627F0D8FC05460490D24928F09E
:103CD000A1F900222146284607F0DEF8304627F0F9
:103CE000CBFC04460590CD4928F094F909201FF03B
:103CF0008BFF01460022204607F030FC30461AF0C8
:103D000033FBC74C20605023039301250295019596
:103D10004FF00608CDF8008000231A4619461BF024
:103D20004BFB322303930295019507250095002351
:103D30001A46022120681BF03FFB022120681AF07E
:103D40008DFD0022414620681AF01AFB29462068A2
:103D50001AF0E2FD00231A46B249206801F096FEEF
:103D60002568284609F028F80146002228461AF05E
:103D70000DFE8046AC4D2860D4F800B05A213C209E
:103D800020F010FC02B2414658461AF0ADFED4F8BD
:103D90000080D5F800B05A213C2020F003FC02B28C
:103DA000594640461AF0A0FED4F80080D5F800B07D
:103DB0005A213C2020F0F6FB02B2594640461AF048
:103DC00093FED4F80080D5F800B05A213C2020F0B2
:103DD000E9FB02B2594640461AF086FED4F800804C
:103DE000D5F800B05A213C2020F0DCFB02B2594645
:103DF00040461AF079FED4F80080D5F800B05A2178
:103E00003C2020F0CFFB02B2594640461AF06CFE2F
:103E1000D4F80080D5F800B05A213C2020F0C2FB35
:103E200002B2594640461AF05FFED4F80080D5F839
:103E300000B05A213C2020F0B5FB02B25946404662
:103E40001AF052FED4F80080D5F800B05A213C2078
:103E500020F0A8FB02B2594640461AF045FED4F8BD
:103E60000080D5F800B05A213C2020F09BFB02B224
:103E7000594640461AF038FED4F80080D5F800B014
:103E80005A213C2020F08EFB02B2594640461AF0DF
:103E90002BFE24682D685A213C2020F083FB02B2BF
:103EA000294620461AF020FE604B1B78022B00F0BA
:103EB000EB80012B00F04581002B00F0A4813846F7
:103EC00002F012FD0446594B1B78002B40F0F181A3
:103ED0004FF4000102F014FD42F26401204603F0A9
:103EE00030FD0121204613F0ADF90121204613F0E9
:103EF000F9F94FF40001204602F002FD204627F0B8
:103F0000BBFB05464A4928F085F800223F49284670
:103F100006F0C2FFDFF84C81464E474D474B0093F9
:103F20004346324629462046FEF7D8FF444B0093CD
:103F30004346324629462046FEF7D0FF414B0093C8
:103F40004346324629462046FEF7C8FF3E4B0093C3
:103F50004346324629462046FEF7C0FF3B4B0093BE
:103F60004346324629462046FEF7B8FF384602F05F
:103F7000BBFC04462D4B1B78002B40F0A5814FF471
:103F8000000102F0BDFC42F26401204603F0D9FCBE
:103F90000121204613F056F90121204613F0A2F921
:103FA000204627F069FB0546294928F033F800220E
:103FB0001649284606F070FF204625F0CBFE25491D
:103FC00025F0D4FE204625F0C5FE234925F0CEFE7F
:103FD000204625F0BFFE0546204925F0C7FE0121F9
:103FE000284602F005FD204625F0B4FE05461C4992
:103FF00025F0BCFE8021284602F0FAFC204625F080
:10400000A9FE054630E000BF9CEB0408900C0020A0
:10401000ACEB0408880C0020BCEB0408C8EB0408D7
:10402000400C0020DD1E0008740C0020440C002011
:10403000E4EB0408FCEB0408D098030808EC04083F
:1040400010EC040818EC040820EC040824EC040824
:104050002CEC04083CEC04084CEC04085CEC040870
:104060006CEC0408F4EB04089D4925F07FFE8121E7
:10407000284602F0BDFC204625F06CFE994925F04B
:1040800075FE07B0BDE8F08F974C42F2640211460E
:10409000206803F06DFC246800201EF06BFFC0EB6D
:1040A00000104000EF283DDC01210022204607F0EF
:1040B0000BFA8E4A8E49304613F0CEFE012502954A
:1040C0000024019400942B4622462146504613F0CA
:1040D00013FF0295019500942B462246214648463F
:1040E00013F00AFF02950326019600942B46224600
:1040F0002146049813F000FF0295042301930094D5
:104100002B4622462146059813F0F6FE052302931E
:10411000019400962B462A4631467348006813F0F6
:10412000EBFECCE600201EF025FFC0EB00104300A4
:104130005033704A82FB0312D917C1EBA21109B2A6
:10414000B3E7304604F080FD674C2568304603F045
:1041500009FD81B2143909B2284603F0DBFB24685B
:1041600000201EF007FFC0EB00104000EF283BDCF2
:1041700001210022204607F0A7F95F4A5F49304637
:1041800013F06AFE01240294002501950094234651
:104190002A462946504613F0AFFE0294019500943A
:1041A000234622462946484613F0A6FE029401946F
:1041B000009423462A462946049813F09DFE029453
:1041C00001940094234622462946059813F094FE54
:1041D000029402210191032300930B462A46424890
:1041E000006813F089FE6AE600201EF0C3FEC0EBF3
:1041F0000010430050333F4A82FB0312D917C1EB32
:10420000A21109B2B5E7384D42F25F01286803F008
:1042100081FB2C681EF078FE1EF094FE81B24639B8
:1042200009B2204603F08DFB00224FF496712868F6
:1042300007F00BF94FF4007128681AF0B2F8304A11
:104240003049304613F008FE0126029600240194FE
:104250000094334622462146504613F04DFE029606
:1042600001960094334622462146484613F044FE08
:1042700002964FF00208CDF804800094334622469F
:104280002146049813F038FE02960323019300940C
:10429000334622462146059813F02EFE029604234B
:1042A00001930094334622464146286813F024FEC9
:1042B00005E642F2640103F044FB00224FF49671DC
:1042C000204607F0C2F80CE642F2640103F039FB25
:1042D00000224FF49671204607F0B7F858E600BF69
:1042E00078EC04088CEC0408400C0020140000203A
:1042F000000000206766666620000020080000209D
:10430000280000201000002070B582B005460E463F
:1043100007F05EF903F00CFC84B200201EF02AFEC8
:1043200000EB80008000EF2847DC0120241A24B233
:104330006D4B1B78002B7BD100201EF01BFE34231D
:1043400003FB00F3EF2B47DC012300944FF4807252
:104350000021304620F002F901B2284603F0DAFAD3
:1043600000201EF007FE00EB80004000EF2841DC3B
:104370004FF0FF3400201EF0FDFD00EB80004000F8
:10438000EF2846DC4FF0FF3322460621284603F093
:104390006DFBFF2E00DDFF260024284607F06BF999
:1043A000A04240F29F802146284607F04FF90022A4
:1043B000F1B207F0F8F80134EFE700201EF0DAFD63
:1043C00000EB800083005033484A82FB0312D81769
:1043D000C0EBA21080B2A9E700201EF0CBFD342272
:1043E00002FB00F25032414981FB0231D317C3EB8B
:1043F000A113AAE700201EF0BDFD00EB80004300E2
:1044000050333A4A82FB0312DC17A4EBA21424B205
:10441000B0E700201EF0AEFD00EB800043005033FB
:10442000324A82FB0312DB17A3EBA2131BB2ABE7EA
:1044300000201EF09FFDC0EB00108000EF2825DC5F
:10444000012300944FF480720021304620F086F85A
:1044500001B2284603F05EFA00201EF08BFD00EB4F
:1044600080004000EF281FDC4FF0FF3400201EF0DA
:1044700081FD00EB80004000EF2824DC4FF0FF338B
:1044800022460621284603F0F1FA82E700201EF0BA
:1044900071FDC0EB001082005032144981FB0231E3
:1044A000D317C3EBA113CCE700201EF063FD00EB94
:1044B0008000430050330D4A82FB0312DC17A4EB4B
:1044C000A21424B2D2E700201EF054FD00EB8000BD
:1044D00043005033054A82FB0312DB17A3EBA21300
:1044E0001BB2CDE702B070BD440C00206766666663
:1044F00070B592B0054601F0ADFA0446284601F0C9
:10450000A5FA0E2C03D0072C23D012B070BD07F0F3
:104510005FF8054603F00CFB04461EF0F5FC1EF0A8
:10452000F9FC00EBD07343F34F039C42EDDA02A891
:104530001EF080FE02951F4B0393002309930A93FC
:104540004FF480730B93C8230C9302A81EF0BAFE9D
:10455000DBE7284601F084FA05460078C41CE4B283
:10456000122C00D900241FF04FFB064620461FF0F6
:104570004BFB0246104B1B68009300233146184644
:1045800018F07AF928781FF03FFB044601460B48E3
:1045900021F0D0FA22460A4B19680A4B18681AF023
:1045A00077FA2246084B1968084B18681AF070FA17
:1045B000ABE700BF094300084C0C0020800C002032
:1045C000680C0020380C0020700C00203C0C0020EF
:1045D0002DE9F041804602F087F90746D74A0021CD
:1045E00006F0FEFD0021384612F02CFE02231A468A
:1045F0000321384612F052FE4FF48021384602F073
:104600007FF900224FF0FF31384606F064FFCC4BB3
:104610001B78002B5FD100201EF0ACFC00EB4003A8
:10462000C0EB0310EF2846DC01210022384606F0DB
:104630003DFF0022FF21384606F05DFF002247F6CD
:10464000FF71384606F0A8FFBD4B1B78002B7BD1CD
:1046500000201EF08FFC342303FB00F3EF2B55DC0E
:10466000012400201EF086FC342303FB00F3EF2B13
:104670005BDC01222146384603F07AF900201EF067
:1046800079FC00EB80004000EF2800F392804FF0AF
:10469000FF3400201EF06EFC00EB80004000EF288D
:1046A00000F396804FF0FF3322460621384603F090
:1046B000DDF90025C4E000201EF05CFC00EB4003A7
:1046C000C0EB031050309F4B83FB0023C117C1EB9D
:1046D000A31109B2A9E700201EF04CFCC0EBC003F7
:1046E000C0EBC300EF2801DC01219EE700201EF093
:1046F00041FCC0EBC003C0EBC3005030914B83FBC7
:104700000023C117C1EBA31109B28EE700201EF0F0
:1047100031FC342303FB00F350338A4A82FB03123B
:10472000DC17C4EBA21424B29BE700201EF022FC8D
:10473000342303FB00F35033824981FB0321DA1752
:10474000C2EBA11212B295E700201EF013FCC0EBE1
:1047500000108000EF280EDC012400201EF00AFC6F
:10476000C0EB00108000EF2814DC012221463846FF
:1047700003F0FEF882E700201EF0FCFBC0EB001007
:10478000830050336F4A82FB0312DC17C4EBA21480
:1047900024B2E2E700201EF0EDFBC0EB0010830026
:1047A0005033684981FB0321DA17C2EBA11212B220
:1047B000DCE700201EF0DEFB00EB800043005033FE
:1047C000604A82FB0312DC17A4EBA21424B260E758
:1047D00000201EF0CFFB00EB800043005033594A0D
:1047E00082FB0312DB17A3EBA2131BB25CE7384674
:1047F00023F0C0FF0446544E705D1FF005FA0146D9
:104800000022204606F067FE002247F6FF71204690
:1048100006F0C2FE00221146204606F0C4FE142215
:104820001146204603F0A4F8731900224749204698
:1048300001F02CF94FF48061204602F09AF801351E
:10484000414B5B5D132BD2D1404623F093FF0446CE
:104850003F4902F055F801224FF0FF31204606F0A3
:104860003AFE00220A21204606F019FE00220A2103
:10487000204606F01BFE00220A21204606F001FE1B
:1048800000220A21204606F003FE002247F6FF71AF
:10489000204606F081FE3B4600222E49204601F0CC
:1048A000F5F800221146204606F051FE00222A4962
:1048B000204606F027FE224B1B78002B7BD10020E0
:1048C0001EF058FB2A2303FB00F3EF2B26DC012507
:1048D00000201EF04FFB2A2303FB00F3EF2B3DDCEF
:1048E00001222946204603F043F800201EF042FB37
:1048F000C0EB0010EF2840DC4FF0FF3500201EF029
:1049000039FBC0EB0010EF2846DC4FF0FF332A469E
:104910000621204603F0AAF8BDE8F08100201EF031
:1049200029FB2A2303FB00F35033064A82FB0312C0
:10493000DD17C5EBA2152DB2CAE700BFFFFF0F00C0
:10494000440C0020676666665C010020F1440008A4
:1049500002000400AD2400089CEC040800201EF0B6
:1049600009FB2A2303FB00F35033484981FB032151
:10497000DA17C2EBA11212B2B3E700201EF0FAFA66
:10498000C0EB001000F15003404A82FB0312DD1718
:10499000A5EBA2152DB2B1E700201EF0EBFAC0EB9B
:1049A000001000F15003394A82FB0312DB17A3EB1E
:1049B000A2131BB2ABE700201EF0DCFA322303FB8C
:1049C00000F3EF2B25DC012500201EF0D3FA322363
:1049D00003FB00F3EF2B2BDC01222946204602F0DB
:1049E000C7FF00201EF0C6FAC0EB0010EF282EDC37
:1049F0004FF0FF3500201EF0BDFAC0EB0010EF288D
:104A000034DC4FF0FF332A460621204603F02EF80F
:104A100082E700201EF0AEFA322303FB00F350338E
:104A20001A4A82FB0312DD17C5EBA2152DB2CBE7A4
:104A300000201EF09FFA322303FB00F3503313498A
:104A400081FB0321DA17C2EBA11212B2C5E70020E5
:104A50001EF090FAC0EB001000F150030B4A82FBED
:104A60000312DD17A5EBA2152DB2C3E700201EF03F
:104A700081FAC0EB001000F15003044A82FB0312DC
:104A8000DB17A3EBA2131BB2BDE700BF6766666628
:104A9000F0B583B01EF038FA1EF03CFAB0F5A07FF6
:104AA00000F39480894B00221A70894B894A136065
:104AB000894A1360854B1B78022B00F09680012BEE
:104AC00000F0A780854D864C864B00932B468A22AA
:104AD000214602201FF00AFC834B00932B468F22B5
:104AE000214602201FF002FC2D2705201FF08CF824
:104AF000044600201FF088F80246774D2B6800938B
:104B000000232146184617F0B7FE784C204620F0C7
:104B10009FFC7F21204621F01DF8754C204620F097
:104B200097FC6C4E3168204621F01AF8714C2046F3
:104B300020F08EFC002008F03FF90146204620F0CE
:104B4000F9FF3168204621F00BF86B4C204620F02D
:104B50007FFC0021204620F05FFF47F6FF712046D2
:104B600021F010F81EF0D0F900F0C6FD3A460421FD
:104B70001DF0EEFB614B18601EF0C6F900F0BCFDA5
:104B80000022296806F0FAFC504B1B78022B4DD00E
:104B90005A4C5B4920681DF0EFFC074659492068D4
:104BA0001DF0EAFC0646584920681DF0E5FC054664
:104BB0003846FCF71DFC3046FEF7FEF92846FFF7A5
:104BC00051F82068FFF704FD03B0F0BD1EF09CF91A
:104BD0001EF0A0F9B0F5347F03DA3C4B01221A70C5
:104BE00063E73A4B02221A705FE73C4D3C4C474B5F
:104BF00000932B467022214602201FF077FB444B86
:104C000000932B467522214602201FF06FFB46279A
:104C10006BE7404B0093314B7D22314902201FF05E
:104C200065FB2D4B2A4A1A602D275EE7334B186827
:104C30001DF0A9FB04461EF067F91EF06BF900EBAE
:104C4000D070002240F34F01204606F028FC204699
:104C500026F086FA0546304926F08EFA1EF054F901
:104C60001EF058F900EBD0725210524292B2193233
:104C7000002312B20721284602F0F8FE204626F053
:104C8000FBFC064600221A4906F006F92349304685
:104C900027F0C0F9002700970A231322294630463F
:104CA00003F0F2FF204626F0E7FC04461C4927F0FB
:104CB000B1F93A460D49204606F0EEF800970A236E
:104CC00015222946204603F0DFFF61E7440C00204F
:104CD000C84E0508480C00204C0C0020E4EE0408E7
:104CE000A0EC0408F8ED040854EE0408880C002039
:104CF000900C0020800C0020780C0020980C0020E4
:104D0000C8EE0408D0EE0408DCEE0408E4EC040865
:104D100040ED04089CED040894D30408B0EE0408A8
:104D2000B8EE04082DE9F0416B4F6C4E6C4D6D4CA4
:104D30003B463246294620462EF0BCFEDFF8E48191
:104D4000D8F81C1068482EF0B5FE0A202EF0C6FEDA
:104D50003B463246294620462EF0ACFED8F81810C5
:104D600062482EF0A7FE0A202EF0B8FE3B463246DF
:104D7000294620462EF09EFED8F820105C482EF0E2
:104D800099FE0A202EF0AAFE3B46324629462046CE
:104D90002EF090FE98F8001056482EF08BFE0A2058
:104DA0002EF09CFE3B463246294620462EF082FEDF
:104DB00098F8271050482EF07DFE0A202EF08EFE27
:104DC0003B463246294620462EF074FED8F80C1099
:104DD0004A482EF06FFE0A202EF080FE3B463246F7
:104DE000294620462EF066FEB8F80A1044482EF0F8
:104DF00061FE0A202EF072FE3B46324629462046CE
:104E00002EF058FED8F814103E482EF053FE0A201B
:104E10002EF064FE3B463246294620462EF04AFEDE
:104E2000D8F8101038482EF045FE0A202EF056FE15
:104E30003B463246294620462EF03CFE98F8241088
:104E400032482EF037FE0A202EF048FE3B4632460E
:104E5000294620462EF02EFE98F825102C482EF0DC
:104E600029FE0A202EF03AFE3B46324629462046CD
:104E70002EF020FE98F8261026482EF01BFE0A2061
:104E80002EF02CFE3B463246294620462EF012FEDE
:104E900008F1010120482EF00DFE0A202EF01EFE22
:104EA0005D23002211461D482BF082FEDFF878803A
:104EB0005D22002140462BF0D9FE3B463246294672
:104EC00020462EF0F7FD414615482EF0F3FD0A204E
:104ED0002EF004FEBDE8F08114F104086CEF040824
:104EE00078EF040884EF040894EF0408B0EF040896
:104EF000CCEF0408F0EF040804F004081CF00408E8
:104F000038F0040850F004086CF0040888F0040835
:104F1000A8F00408C8F00408E8F0040870010020B4
:104F200000F104084CEA00209C0C002008B50B4856
:104F30000B4B03601023436000238360C360036155
:104F40004361037643768376C376037743772BF00A
:104F50003DFF00B908BD2AF0A9FFFBE7FC0C0020CB
:104F60000064004010B588B00023039304930593B8
:104F7000069307930268254B9A4201D008B010BDF2
:104F80000024019403F5EA331A6C42F000721A64AB
:104F90001A6C02F000720192019A02941A6B42F0AC
:104FA00001021A631B6B03F001030293029B4FF48F
:104FB000C053039302230493059403230693092308
:104FC000079303A912482CF0A7FB22462146132081
:104FD0002CF0E6F813202CF017F922462146142075
:104FE0002CF0DEF814202CF00FF922462146152073
:104FF0002CF0D6F815202CF007F922462146162071
:105000002CF0CEF816202CF0FFF8B7E70064004033
:105010000000024008B50A22024903482EF07BFB3B
:1050200008BD00BF240D0020C4E9002010B50A4BC4
:105030000A4A0B490B482EF03DFD0B4C21460B480C
:105040002EF038FD0A202EF049FD00232360636016
:105050002381FFF7DFFF10BDB4F204086CEF0408F2
:1050600078EF040884EF0408240D002030F10408D0
:1050700010B582B00446036C082B12D0036C042BCD
:1050800021D0036C022B30D0036C102B3FD0036C6B
:10509000012B4ED0036C002B5DD0FFF7BBFF02B09D
:1050A00010BD364B019347230093354B354A3649A3
:1050B00036482EF0FFFC216C35482EF0FBFC0A2010
:1050C0002EF00CFDE9E72D4B0193492300932C4B67
:1050D0002C4A2D492D482EF0EDFC216C2D482EF048
:1050E000E9FC0A202EF0FAFCD7E7244B01934B236E
:1050F0000093234B234A244924482EF0DBFC216CE7
:1051000025482EF0D7FC0A202EF0E8FCC5E71B4B03
:1051100001934D2300931A4B1A4A1B491B482EF04A
:10512000C9FC216C1C482EF0C5FC0A202EF0D6FCD0
:10513000B3E7124B01934F230093114B114A1249CD
:1051400012482EF0B7FC216C14482EF0B3FC0A2054
:105150002EF0C4FCA1E7094B019351230093084BA7
:10516000084A094909482EF0A5FC216C0C482EF08C
:10517000A1FC0A202EF0B2FC8FE700BFCCF204089D
:1051800048F104086CEF040878EF040878F104088B
:1051900094F10408BCF10408E0F1040804F20408E6
:1051A0002CF204082DE9F0410446DFF87480164F14
:1051B000164E174D43463A46314628462EF07AFCA5
:1051C000216A14482EF076FC0A202EF087FC434614
:1051D0003A46314628462EF06DFCA18C0E482EF042
:1051E00069FC0A202EF07AFC43463A4631462846AE
:1051F0002EF060FCE18C89B208482EF05BFC0A209E
:105200002EF06CFCBDE8F0816CEF040878EF040828
:1052100084EF040850F2040870F2040890F20408C5
:10522000E0F2040810B582B0002400942A4B1A6BF7
:1052300042F480021A631A6B02F480020092009A10
:1052400001941A6B42F400121A631B6B03F40013EF
:105250000193019B224621460E202BF0A1FF0E2038
:105260002BF0D2FF224621460F202BF099FF0F2072
:105270002BF0CAFF2246214610202BF091FF102070
:105280002BF0C2FF2246214611202BF089FF11206E
:105290002BF0BAFF2246214638202BF081FF382020
:1052A0002BF0B2FF224621463A202BF079FF3A201C
:1052B0002BF0AAFF224621463B202BF071FF3B201A
:1052C0002BF0A2FF2246214646202BF069FF462004
:1052D0002BF09AFF02B010BD003802402DE9F041DA
:1052E0008AB00024059406940794089409940094C5
:1052F0002B4B1A6B42F010021A631A6B02F0100269
:105300000092009A01941A6B42F004021A631A6B1D
:1053100002F004020192019A02941A6B42F0800298
:105320001A631A6B02F080020292029A03941A6BBB
:1053300042F001021A631A6B02F001020392039A0F
:1053400004941A6B42F002021A631B6B03F002030F
:105350000493049BDFF850800122114640462CF054
:10536000C5FA104E01224FF4607130462CF0BEFA9F
:1053700001250595069507940327089705A940463A
:105380002CF0CAF94FF460730593069507940897BB
:1053900005A930462CF0C0F90AB0BDE8F08100BF85
:1053A00000380240001002400004024010B582B0F4
:1053B0008DF807000E4C00224FF4807120462CF02F
:1053C00095FA00224FF4007120462CF08FFA4FF02E
:1053D000FF3301220DF1070106482CF006FF0122E0
:1053E0004FF4007120462CF081FA02B010BD00BFCE
:1053F00000100240A0E6002010B582B08DF8070032
:105400000E4C01224FF4807120462CF06FFA0022DE
:105410004FF4007120462CF069FA4FF0FF3301225F
:105420000DF1070106482CF0E0FE01224FF4007157
:1054300020462CF05BFA02B010BD00BF0010024005
:10544000A0E60020F8B507460D4616461C462A2061
:10545000FFF7ACFF380AFFF7CFFFF8B2FFF7CCFF3A
:10546000300AFFF7C9FFF0B2FFF7C6FF2B20FFF7A6
:105470009DFF280AFFF7C0FFE8B2FFF7BDFF200A33
:10548000FFF7BAFFE0B2FFF7B7FF2C20FFF78EFF60
:10549000F8BD000010B5104C01224FF400712046F9
:1054A0002CF024FA0122802120462CF01FFA322011
:1054B0002BF078FC0022802120462CF017FA3220B5
:1054C0002BF070FC0122802120462CF00FFA3220B4
:1054D0002BF068FC10BD00BF0010024010B5002486
:1054E00006E0144B03EB84039878FFF75FFF013469
:1054F000104B33F82430013B032BF8D801A252F8AB
:1055000023F000BF31550008E3540008155500088A
:1055100023550008074B03EB84039878FFF76CFFD3
:10552000E5E7044B03EB840358882BF03BFCDEE7F4
:1055300010BD00BFF8F204082DE9F041BDF8185085
:10554000EF283EDC06460C4690461F46EF2938DC25
:105550008318F02B03DDC0F1F0080FFA88F8E31987
:10556000F02B02DDC4F1F0073FB200224FF40071CE
:1055700015482CF0BBF9B0B2A1B200EB080292B210
:10558000CB199BB2013B013A9BB292B2FFF75AFF93
:105590002E0AEDB20BE03046FFF72EFF2846FFF74C
:1055A0002BFF013C24B2002CF5DC013F3FB2002F61
:1055B00001DD4446F7E701224FF4007102482CF068
:1055C00095F9BDE8F08100BF0010024000B583B03E
:1055D0000090F0231A4600210846FFF7ADFF03B004
:1055E0005DF804FB08B5FFF755FFFFF777FF4FF6AF
:1055F000FF70FFF7EBFF002008BD00002DE9F04130
:10560000064688461746234D00224FF4007128466F
:105610002CF06CF9B8F90000B8F90210B8F90420C0
:10562000B8F906309BB292B289B280B2FFF70AFF96
:10563000B8F90430B8F900401C1BB8F90630B8F9C5
:1056400002209B1A013304FB03335C0001224FF458
:10565000807128462CF04AF900224FF40071284648
:105660002CF044F9A2B24FF0FF3339460A482CF02F
:10567000BCFD01224FF4007128462CF037F90122BD
:105680004FF4007128462CF031F930461DF081FCB2
:10569000BDE8F08100100240A0E6002010B50446ED
:1056A000FFF7ACFF20461DF074FC10BD08B5FFF7F6
:1056B00099FF08BD38B5FFF7F9FF0B4D4FF416639E
:1056C00000220A4928461DF035FB094C20461DF0F2
:1056D00009FBF02323806380064B6361E56020466D
:1056E0001DF036FB38BD00BF40200020300D0020EB
:1056F000F01F00209D56000810B582B0044618B176
:1057000034B1206902B010BD1DF0FEFB0446F7E77E
:10571000044B0093044B3622044902201EF0E6FDA0
:105720002046EFE728F6040804F70408E8F5040823
:1057300010B582B0044618B134B1606902B010BD32
:105740001DF0E2FB0446F7E7044B0093044B4722AD
:10575000044902201EF0CAFD2046EFE758F604086F
:1057600018F70408E8F5040810B582B0044618B12B
:1057700034B1E06902B010BD1DF0C6FB0446F7E786
:10578000044B0093044B6D22044902201EF0AEFD31
:105790002046EFE78CF6040830F70408E8F5040823
:1057A00010B582B0044618B134B1206A02B010BD01
:1057B0001DF0AAFB0446F7E7044B0093044B7E223E
:1057C000044902201EF092FD2046EFE7C8F60408C7
:1057D00048F70408E8F5040808B5034608B19868D6
:1057E00008BD1DF091FB0346F9E7806858B1837E40
:1057F00003F03F038B4205D9C06801EB410100EB88
:105800008100704700207047037E13F0040F4FD1D2
:1058100010B50446037A233B012B01D8012010BDAB
:105820004FF48041406801F0FCF80028F7D0237A5B
:10583000113B1B2BF3D801A252F823F0AD580008FE
:10584000AD580008AD580008AD580008AD58000824
:10585000AD580008AD580008AD580008AD58000814
:10586000AD580008AD5800081F5800081F58000820
:10587000AD5800081F5800081F580008AD58000810
:10588000AD580008AD580008AD5800081F58000872
:105890001F5800081F5800081F580008AD5800087E
:1058A000AD5800081F580008AD5800080020B6E7A2
:1058B0000020704710B50C4628B1006830B103696C
:1058C00023B90068FAE74B681868F7E760B1036925
:1058D00063B10023E360036921469847237E13F0F8
:1058E000010F05D1012010BD0120FCE70120FAE7DE
:1058F0000020F8E7F8B5064600F036FB58B100681E
:1059000083680BB1317A9847337E13F0020774D164
:1059100013F0010F5BD100217068FFF766FF0446AA
:10592000002511E06368F360236830469847337EB2
:1059300013F0020763D113F0010F48D10135294656
:105940007068FFF752FF04467CB12368002BF5D046
:10595000237A94F90820002AF0DA802BE2D023F091
:105960008003327A9342E9D1DCE731460020FFF729
:10597000A1FF074620B100217068FFF736FF0446FB
:10598000002511E06368F360236830469847337E52
:1059900013F002021BD113F0010F32D10135294659
:1059A0007068FFF722FF04467CB1012F0DD12368F8
:1059B000002BF3D0227A94F90830002BEEDB002A7A
:1059C000E0D0337A9A42E9D1DCE7012F01D03846A2
:1059D000F8BD73685B68002BF9D03046FFF714FF01
:1059E0000028F4D073685B6873603046FFF782FF6D
:1059F00007460128EBD00027E9E70127E7E7012761
:105A0000E5E71746E3E70000D8B110B588B001908C
:105A100002908DF80C100021049105929DF81C3025
:105A200003F0FA0361F341038DF81C30064C236840
:105A3000069301A82060FFF75DFF069B236008B076
:105A400010BD0120704700BF5C2000200068704737
:105A500040687047007A00F07F0070470069704727
:105A6000C0687047084B1B6804E01A7E42F00102D0
:105A70001A765B6933B15A688242F6D01A6882425C
:105A8000F7D1F2E7704700BF5C2000202DE9F0411C
:105A900084B004460F4616461D4601F0EFF9A16892
:105AA0008B7E03F03F02013262F305038B76D4F85C
:105AB000088098F81A1001F03F0101EB41018900BC
:105AC000D8F80C001EF0CAFDC8F80C00A368DA680C
:105AD00052B39B7E03F03F0303EB43039B000C3B5D
:105AE000D750A368DA689B7E03F03F0303EB4303C0
:105AF0009B000C3B13441E72A368DA689B7E03F084
:105B00003F0303EB43039B000C3B13445D60A3681E
