:020000040800F2
:1000000000000220D531030881020308830203089F
:100010008502030887020308890203080000000024
:100020000000000000000000000000008B02030838
:100030008D020308000000008F02030891020308EC
:100040002532030825320308253203082532030828
:100050002532030825320308253203082532030818
:100060002532030825320308253203082532030808
:10007000253203082532030899020308A902030860
:10008000253203082532030825320308B902030884
:10009000C9020308D9020308E9020308253203084C
:1000A00025320308253203082532030825320308C8
:1000B00025320308253203082532030825320308B8
:1000C000253203082532030825320308F902030804
:1000D000090303081903030825320308253203081E
:1000E0002532030825320308253203082532030888
:1000F0002532030825320308253203082532030878
:100100002532030825320308253203082532030867
:100110002532030825320308290303082532030882
:100120003903030825320308490303085903030868
:100130002532030825320308253203082532030837
:100140002532030825320308253203082532030827
:100150002532030825320308690303082532030802
:100160002532030825320308253203082532030807
:100170002532030825320308253203080000000059
:080180002532030825320308B3
:1001C00010B5054C237833B9044B13B10448AFF391
:1001D00000800123237010BD180C002000000000D7
:1001E000E491030808B5034B1BB103490348AFF37F
:1001F000008008BD000000001C0C0020E4910308F2
:1002000053B94AB9002908BF00281CBF4FF0FF317D
:100210004FF0FF3000F06CB9ADF1080C6DE904CE81
:1002200000F006F8DDF804E0DDE9022304B07047D1
:100230002DE9F047089E0D4604468E46002B40F0FF
:1002400082808A42174646D9B2FA82F24AB1C2F196
:10025000200105FA02F320FA01F1974041EA030E6A
:1002600094404FEA1748230CBEFBF8FCB9B208FBD8
:100270001CEE43EA0E430CFB01F098420AD9FB182E
:100280000CF1FF3580F01681984240F21381ACF1F9
:10029000020C3B441B1AA4B2B3FBF8F008FB10336A
:1002A00044EA034400FB01F1A14209D93C1900F1E1
:1002B000FF3380F00181A14240F2FE8002383C44CD
:1002C000641A40EA0C4000211EB1D4400023C6E964
:1002D0000043BDE8F08702B9FFDEB2FA82F2002ADD
:1002E0004FD1CB1B4FEA174E1FFA87F80121B3FB02
:1002F000FEFC250C0EFB1C3345EA034508FB0CF302
:10030000AB4207D97D190CF1FF3002D2AB4200F2AB
:10031000E7808446ED1AA3B2B5FBFEF00EFB105544
:1003200043EA054408FB00F8A04507D93C1900F151
:10033000FF3302D2A04500F2D7801846A4EB080490
:1003400040EA0C40C0E78B4208D9002E00F0AF8095
:100350000021C6E900050846BDE8F087B3FA83F13D
:1003600000294BD1AB4202D3824200F2B780841AFB
:1003700065EB030301209E46002EAAD0C6E9004E7D
:10038000A7E7C2F1200C01FA02F3974020FA0CF023
:100390004FEA174E21FA0CFC1843BCFBFEF1050C8A
:1003A0000EFB11CC1FFA87F845EA0C4501FB08F358
:1003B000AB4204FA02F409D97D1901F1FF3C80F047
:1003C0008B80AB4240F2888002393D44EB1A85B203
:1003D000B3FBFEF00EFB103345EA034500FB08F3C8
:1003E000AB4207D97D1900F1FF3C71D2AB426FD906
:1003F00002383D44EB1A40EA014178E7C1F1200C94
:100400008B4022FA0CF71F4320FA0CF405FA01F393
:100410004FEA174E25FA0CF51C43230CB5FBFEF9E9
:100420001FFA87F80EFB195543EA054509FB08FA40
:10043000AA4502FA01F200FA01F308D97D1909F17F
:10044000FF3047D2AA4545D9A9F102093D44A5EBA1
:100450000A05A4B2B5FBFEF00EFB105544EA0544B4
:1004600000FB08F8A04507D93C1900F1FF352DD253
:10047000A0452BD902383C4440EA0940A4EB0804CB
:10048000A0FB02894C45C6464D4619D316D05EB135
:10049000B3EB0E0264EB050404FA0CFCCA404CEA10
:1004A0000202CC40C6E900240021BDE8F0873146B5
:1004B00030460EE7AC46EDE6184601E74345E6D286
:1004C000B8EB020E69EB07050138E0E72846D3E7F1
:1004D00060468FE78146BAE7614677E708464BE713
:1004E000ACF1020C3D4415E702383C4426E700BF5E
:1004F000704700BF844641EA000313F003036DD147
:10050000403A41D351F8043B40F8043B51F8043BD6
:1005100040F8043B51F8043B40F8043B51F8043BDD
:1005200040F8043B51F8043B40F8043B51F8043BCD
:1005300040F8043B51F8043B40F8043B51F8043BBD
:1005400040F8043B51F8043B40F8043B51F8043BAD
:1005500040F8043B51F8043B40F8043B51F8043B9D
:1005600040F8043B51F8043B40F8043B51F8043B8D
:1005700040F8043B51F8043B40F8043B51F8043B7D
:1005800040F8043B403ABDD2303211D351F8043B1D
:1005900040F8043B51F8043B40F8043B51F8043B5D
:1005A00040F8043B51F8043B40F8043B103AEDD2CC
:1005B0000C3205D351F8043B40F8043B043AF9D21D
:1005C000043208D0D2071CBF11F8013B00F8013BF0
:1005D00001D30B8803806046704700BF082A13D3FD
:1005E0008B078DD010F003038AD0C3F10403D21A15
:1005F000DB071CBF11F8013B00F8013B80D331F849
:10060000023B20F8023B7BE7043AD9D3013A11F8C8
:10061000013B00F8013BF9D20B7803704B78437033
:100620008B78837060467047000000000000000077
:1006300000000000000000000000000000000000BA
:10064000A2EB0300704700BF02780B78012A28BF95
:100650009A42F5D16DE9044540EA0104CDE902670B
:100660006FF0000C4FEA447212B380EA010414F0F8
:10067000070F6AD100F0070420F0070004F003051B
:1006800021F007014FEAC505F0E8042314F0040F38
:10069000F1E804670CFA05F462EA040266EA04066B
:1006A0000AD063EA0403624667EA0407664603E089
:1006B000F0E80423F1E8046782FA4CF582EA0604C4
:1006C000A4FA8CF46CBB83FA4CF583EA0705A5FA0F
:1006D0008CF595B950E9022351E9026782FA4CF58D
:1006E00082EA0604A4FA8CF483FA4CF583EA07053F
:1006F000A5FA8CF52543DBD09CB92DBAB5FA85F463
:1007000024F0070427FA04F1DDE9026723FA04F371
:1007100003F0FF0001F0FF01FDE80445A0EB01003C
:10072000704724BAB4FA84F424F0070426FA04F1DA
:10073000DDE9026722FA04F202F0FF0001F0FF0196
:10074000FDE80445A0EB0100704714F0030F3CD115
:1007500010F0030428D150F8082B51F8083B82FA16
:100760004CF582EA0305A5FA8CF55DB950F8042C26
:1007700051F8043C82FA4CF582EA0305A5FA8CF59F
:10078000002DE8D02DBAB5FA85F424F0070423FA39
:1007900004F122FA04F202F0FF0001F0FF01FDE88B
:1007A0000445A0EB010070474FEAC40420F00300A9
:1007B00050F8082B21F0030151F8083B0CFA04F41F
:1007C00062EA040263EA0403C9E710F003041AD0E2
:1007D000A1EB040120F00300E40750F8042B06D03D
:1007E0000FD28B785FFAA2F4E41A06D12BB1CB7842
:1007F0005FFAB2F4E41A00D11BB920465DF8104B41
:10080000704701F1040150F8042BCC0721F00301DB
:1008100051F8043B48D824D222F07F4482FA4CF5A8
:1008200094EA1325A5FA8CF50AD165B951F8043B71
:1008300084EA0204B4EB036F0ED150F8042BEBE70B
:100840004FEA132355E035F07F454DD10878FDE898
:100850000445C0F1000070474FEA126203F0FF0345
:1008600047E002EA1C4482FA4CF594EA1345A5FAE3
:100870008CF50AD165B951F8043B84EA0204B4EB63
:10088000034F0CD150F8042BEBE74FEA134330E051
:1008900015EA1C4528D10B884FEA124229E04FEA9D
:1008A000124203EA1C4324E002F0FF0482FA4CF5F2
:1008B00094EA1365A5FA8CF50AD165B951F8043BA1
:1008C00084EA0204B4EB032F09D150F8042BEBE7C0
:1008D0004FEA13630DE015F0FF0F05D10B684FEAE7
:1008E000122223F07F4304E04FF00000FDE80445AE
:1008F000704712BA1BBA82FA4CF482EA0304A4FAD3
:100900008CF5B5FA85F402FA04F203FA04F34FEA1F
:100910001260FDE80445A0EB136070470000000082
:1009200000000000000000000000000000000000C7
:1009300000000000000000000000000000000000B7
:1009400090F800F06DE9024520F007016FF0000C0F
:1009500010F0070491F820F040F049804FF00004B7
:100960006FF00700D1E9002391F840F000F1080092
:1009700082FA4CF2A4FA8CF283FA4CF3A2FA8CF3CA
:100980004BBBD1E9022382FA4CF200F10800A4FA31
:100990008CF283FA4CF3A2FA8CF3E3B9D1E9042385
:1009A00082FA4CF200F10800A4FA8CF283FA4CF3BC
:1009B000A2FA8CF37BB9D1E9062301F1200182FA76
:1009C0004CF200F10800A4FA8CF283FA4CF3A2FA7C
:1009D0008CF3002BC6D0002A04BF04301A4612BA8A
:1009E000B2FA82F2FDE8024500EBD2007047D1E98D
:1009F000002304F00305C4F100004FEAC50514F01C
:100A0000040F91F840F00CFA05F562EA05021CBFEC
:100A100063EA050362464FF00004A9E70000000006
:100A200001F0FF01102A2BDB10F0070F08D010F89F
:100A3000013B013A8B422DD010F0070F42B3F6D1A3
:100A4000F0B441EA012141EA014122F007047FF0BC
:100A500000070023F0E80256083C85EA010586EA13
:100A6000010685FA47F5A3FA87F586FA47F6A5FA4F
:100A700087F68EB9EED1F0BC01F0FF0102F007025B
:100A800032B110F8013B013A83EA010313B1F8D106
:100A90000020704701387047002D06BF35460338E7
:100AA000073815F0010F07D1013015F4807F02BF20
:100AB000013015F4C03F0130F0BC0138704700BF71
:100AC00081F0004102E000BF83F0004330B54FEAFF
:100AD00041044FEA430594EA050F08BF90EA020F6C
:100AE0001FBF54EA000C55EA020C7FEA645C7FEAFF
:100AF000655C00F0E2804FEA5454D4EB5555B8BF22
:100B00006D420CDD2C4480EA020281EA030382EA92
:100B1000000083EA010180EA020281EA0303362D24
:100B200088BF30BD11F0004F4FEA01314FF4801CF7
:100B30004CEA113102D0404261EB410113F0004F09
:100B40004FEA03334CEA133302D0524263EB4303C0
:100B500094EA050F00F0A780A4F10104D5F1200E5E
:100B60000DDB02FA0EFC22FA05F2801841F10001B9
:100B700003FA0EF2801843FA05F359410EE0A5F18D
:100B800020050EF1200E012A03FA0EFC28BF4CF0BE
:100B9000020C43FA05F3C01851EBE37101F0004574
:100BA00007D54FF0000EDCF1000C7EEB00006EEB81
:100BB0000101B1F5801F1BD3B1F5001F0CD349080B
:100BC0005FEA30004FEA3C0C04F101044FEA445262
:100BD00012F5800F80F09A80BCF1004F08BF5FEAE9
:100BE000500C50F1000041EB045141EA050130BDC9
:100BF0005FEA4C0C404141EB0101013C28BFB1F5DB
:100C0000801FE9D291F0000F04BF01460020B1FA25
:100C100081F308BF2033A3F10B03B3F120020CDAF8
:100C20000C3208DD02F1140CC2F10C0201FA0CF0D6
:100C300021FA02F10CE002F11402D8BFC2F1200C3B
:100C400001FA02F120FA0CFCDCBF41EA0C019040F1
:100C5000E41AA2BF01EB0451294330BD6FEA04043A
:100C60001F3C1CDA0C340EDC04F11404C4F1200225
:100C700020FA04F001FA02F340EA030021FA04F337
:100C800045EA030130BDC4F10C04C4F1200220FA8E
:100C900002F001FA04F340EA0300294630BD21FACC
:100CA00004F0294630BD94F0000F83F4801306BF92
:100CB00081F480110134013D4EE77FEA645C18BF86
:100CC0007FEA655C29D094EA050F08BF90EA020F1D
:100CD00005D054EA000C04BF1946104630BD91EA15
:100CE000030F1EBF0021002030BD5FEA545C05D118
:100CF0004000494128BF41F0004130BD14F5800457
:100D00003CBF01F5801130BD01F0004545F0FE41CA
:100D100041F470014FF0000030BD7FEA645C1ABFFF
:100D2000194610467FEA655C1CBF0B46024650EA36
:100D3000013406BF52EA033591EA030F41F4002162
:100D400030BD00BF90F0000F04BF0021704730B5E8
:100D50004FF4806404F132044FF000054FF00001BD
:100D600050E700BF90F0000F04BF0021704730B57E
:100D70004FF4806404F1320410F0004548BF404253
:100D80004FF000013EE700BF42004FEAE2014FEAA8
:100D900031014FEA02701FBF12F07F4393F07F4F83
:100DA00081F06051704732F07F4208BF704793F086
:100DB0007F4F04BF41F40021704730B54FF4607499
:100DC00001F0004521F000411CE700BF50EA01029C
:100DD00008BF704730B54FF000050AE050EA010245
:100DE00008BF704730B511F0004502D5404261EBB5
:100DF00041014FF4806404F132045FEA915C3FF4F6
:100E0000D8AE4FF003025FEADC0C18BF03325FEA92
:100E1000DC0C18BF033202EBDC02C2F1200300FA43
:100E200003FC20FA02F001FA03FE40EA0E0021FA68
:100E300002F11444BDE600BF70B54FF0FF0C4CF456
:100E4000E06C1CEA11541DBF1CEA135594EA0C0F08
:100E500095EA0C0F00F0DEF82C4481EA030621EA43
:100E60004C5123EA4C5350EA013518BF52EA03357E
:100E700041F4801143F4801338D0A0FB02CE4FF030
:100E80000005E1FB02E506F00042E0FB03E54FF060
:100E90000006E1FB03569CF0000F18BF4EF0010E58
:100EA000A4F1FF04B6F5007F64F5407404D25FEA54
:100EB0004E0E6D4146EB060642EAC62141EA555107
:100EC0004FEAC52040EA5E504FEACE2EB4F1FD0C49
:100ED00088BFBCF5E06F1ED8BEF1004F08BF5FEAC7
:100EE000500E50F1000041EB045170BD06F0004679
:100EF00046EA010140EA020081EA0301B4EB5C0426
:100F0000C2BFD4EB0C0541EA045170BD41F480111D
:100F10004FF0000E013C00F3AB8014F1360FDEBF42
:100F2000002001F0004170BDC4F10004203C35DA1E
:100F30000C341BDC04F11404C4F1200500FA05F3A1
:100F400020FA04F001FA05F240EA020001F0004242
:100F500021F0004110EBD37021FA04F642EB0601B8
:100F60005EEA430E08BF20EAD37070BDC4F10C04E2
:100F7000C4F1200500FA04F320FA05F001FA04F2A6
:100F800040EA020001F0004110EBD37041F1000192
:100F90005EEA430E08BF20EAD37070BDC4F120059D
:100FA00000FA05F24EEA020E20FA04F301FA05F205
:100FB00043EA020321FA04F001F0004121FA04F2AD
:100FC00020EA020000EBD3705EEA430E08BF20EA7D
:100FD000D37070BD94F0000F0FD101F000464000B7
:100FE00041EB010111F4801F08BF013CF7D041EA39
:100FF000060195F0000F18BF704703F0004652003D
:1010000043EB030313F4801F08BF013DF7D043EA0D
:101010000603704794EA0C0F0CEA135518BF95EAC3
:101020000C0F0CD050EA410618BF52EA4306D1D14A
:1010300081EA030101F000414FF0000070BD50EA69
:10104000410606BF1046194652EA430619D094EAF3
:101050000C0F02D150EA013613D195EA0C0F05D1DD
:1010600052EA03361CBF104619460AD181EA030131
:1010700001F0004141F0FE4141F470014FF00000E9
:1010800070BD41F0FE4141F4780170BD70B54FF084
:10109000FF0C4CF4E06C1CEA11541DBF1CEA135504
:1010A00094EA0C0F95EA0C0F00F0A7F8A4EB0504E6
:1010B00081EA030E52EA03354FEA013100F08880DD
:1010C0004FEA03334FF0805545EA131343EA1263A6
:1010D0004FEA022245EA111545EA10654FEA00265B
:1010E0000EF000419D4208BF964244F1FD0404F514
:1010F000407402D25B084FEA3202B61A65EB030570
:101100005B084FEA32024FF480104FF4002CB6EB2C
:10111000020E75EB030E22BFB61A754640EA0C00AC
:101120005B084FEA3202B6EB020E75EB030E22BFEC
:10113000B61A754640EA5C005B084FEA3202B6EB2D
:10114000020E75EB030E22BFB61A754640EA9C00EC
:101150005B084FEA3202B6EB020E75EB030E22BFBC
:10116000B61A754640EADC0055EA060E18D04FEA7A
:10117000051545EA16754FEA06164FEAC30343EA1A
:1011800052734FEAC2025FEA1C1CC0D111F4801FE7
:101190000BD141EA00014FF000004FF0004CB6E7E0
:1011A00011F4801F04BF01430020B4F1FD0C88BF7F
:1011B000BCF5E06F3FF6AFAEB5EB030C04BFB6EB8A
:1011C000020C5FEA500C50F1000041EB045170BD7D
:1011D0000EF0004E4EEA113114EB5C04C2BFD4EBAA
:1011E0000C0541EA045170BD41F480114FF0000E2E
:1011F000013C90E645EA060E8DE60CEA135594EAAA
:101200000C0F08BF95EA0C0F3FF43BAF94EA0C0FAC
:101210000AD150EA01347FF434AF95EA0C0F7FF421
:1012200025AF104619462CE795EA0C0F06D152EA75
:1012300003353FF4FDAE1046194622E750EA410659
:1012400018BF52EA43067FF4C5AE50EA41047FF46A
:101250000DAF52EA43057FF4EBAE12E74FF0FF3CCF
:1012600006E000BF4FF0010C02E000BF4FF0010CA0
:101270004DF804CD4FEA410C7FEA6C5C4FEA430C19
:1012800018BF7FEA6C5C1BD001B050EA410C0CBF68
:1012900052EA430C91EA030F02BF90EA020F0020CA
:1012A000704710F1000F91EA030F58BF994208BF31
:1012B00090422CBFD8176FEAE37040F001007047EE
:1012C0004FEA410C7FEA6C5C02D150EA013C07D145
:1012D0004FEA430C7FEA6C5CD6D152EA033CD3D090
:1012E0005DF8040B704700BF8446104662468C468A
:1012F0001946634600E000BF01B5FFF7B7FF0028BD
:1013000048BF10F1000F01BD4DF808EDFFF7F4FFE5
:101310000CBF012000205DF808FB00BF4DF808ED70
:10132000FFF7EAFF34BF012000205DF808FB00BF93
:101330004DF808EDFFF7E0FF94BF012000205DF8B5
:1013400008FB00BF4DF808EDFFF7CEFF94BF01206A
:1013500000205DF808FB00BF4DF808EDFFF7C4FF63
:1013600034BF012000205DF808FB00BF4FEA410CAC
:101370007FEA6C5C02D150EA013C0AD14FEA430C8F
:101380007FEA6C5C02D152EA033C02D14FF00000CC
:1013900070474FF0010070474FEA410212F500120A
:1013A00015D211D56FF47873B3EB625212D94FEAAC
:1013B000C12343F0004343EA505311F0004F23FA96
:1013C00002F018BF404270474FF00000704750EAEB
:1013D000013005D111F0004008BF6FF000407047A8
:1013E0004FF00000704700BF08B503F051FB08BD87
:1013F0002DE9F04F9DB0064605F068FA804642F2AE
:10140000D17106F090FA404629F09CFE0A90B54949
:1014100029F0A4FE40462AF021F904460B90B24977
:101420002AF0EAFDDFF824A300225146204609F005
:1014300025FD40462AF012F98146AC4C0022214697
:1014400009F01CFDAA4948462AF0D6FD002148466D
:101450002AF08EFE40462AF001F907460C90A54D71
:101460000022294609F00AFDA34938462AF0C4FDA6
:1014700040462AF0F3F80D90A0492AF0BDFD404601
:101480002AF0ECF807460E900022294609F0F6FCF7
:101490009B4938462AF0B0FD40462AF0DFF80F900D
:1014A00098492AF0A9FD404627F056F905460890CC
:1014B00042F2D17106F037FA28462AF0CFF80546F5
:1014C00091492AF099FD00231A460921284606F081
:1014D000BFFA404627F040F905460990802105F003
:1014E00079FA42F2D171284606F01DFA28462AF010
:1014F000B5F8054685492AF07FFD00231A460921E3
:10150000284606F0A5FA21F0F1FC04F0E7F81EF0F9
:1015100069FE0746012105F0E5F9304605F0D6F9E8
:10152000054642F2D17106F0FEF928462AF096F8F7
:101530008346109076492AF05FFD002251465846B6
:1015400009F09CFC28462AF089F8834611907149DD
:101550002AF052FD00222146584609F08FFC284609
:101560002DF0A4FC834601212DF0FFFC6A49CDF843
:1015700018B058462DF0A6FCDFF8D4B13B46002247
:101580005946069804F074FA28462AF067F807903E
:1015900062492AF031FD00222146079809F06EFCCD
:1015A00028462DF083FC059001212DF0DEFC012161
:1015B00005982EF017FB5A4905982DF083FC3B4601
:1015C00000225946059804F053FA28462AF046F8B6
:1015D0000746129053492AF00FFD00222146384653
:1015E00009F04CFC284628F0B1FD13904E4928F034
:1015F0001FFE28462AF032F8074614904B492AF07D
:10160000FBFC00222146384609F038FC28462DF024
:101610004DFC0746159001212DF0A7FC00231A462A
:101620004349384604F024FA304605F04FF907469E
:101630002AF014F8834616903E492AF0DDFC002279
:101640005146584609F01AFC38462AF007F88246F7
:10165000179039492AF0D0FC00222146504609F063
:101660000DFC38462CF0BAFB834642F25F0106F0CF
:1016700043F900231A463149584604F0F9F958460F
:1016800006F086F8384629F0E9FF824618902C4982
:101690002AF0B2FC00222146504609F0EFFB384602
:1016A0002CF048FD1990384629F0D8FF82461A9050
:1016B00024492AF0A1FC00222146504609F0DEFB15
:1016C00038462CF037FD1B901F4B1B78022B41D066
:1016D000012B00F07981002B00F0B8821DB0BDE82D
:1016E000F08F00BF44B70308E4E20408880C002030
:1016F000F0E20408800C002030E3040834E304081E
:1017000044E3040848E304085CE3040864E30408D1
:101710006CE304087CE3040888E3040894E3040809
:10172000A0E30408B0E30408B8E30408CCE3040829
:1017300051220008D8E30408E4E30408512000081B
:10174000F0E30408FCE30408440C0020900C0020A3
:10175000B5230008964A9749304616F06FFB0124DE
:10176000029400260196009402233246032140464B
:1017700016F0B4FB904A9149404616F05FFB4FF0DB
:10178000050ACDF808A0019600942346324621466A
:101790000A9816F0A3FB02940196009402231A46BD
:1017A00031460B9816F09AFB02940194009604239C
:1017B00002220321484616F091FB02944FF00308E1
:1017C000CDF8048000942346022221460C9816F09E
:1017D00085FB0294CDF804800094234642463146AE
:1017E0000D9816F07BFB029404230193009423468A
:1017F000022221460E9816F071FB029404230193F5
:1018000000942346424631460F9816F067FB4FF08E
:101810000209CDF80890CDF80480009423460422F4
:101820004146089816F05AFBCDF80890CDF8048090
:101830000094234652464146099816F04FFB029405
:1018400001940096234632464146284616F046FB50
:101850005B4A5C49284616F0F1FA0294019600941E
:101860004B4632463146109816F038FB0294CDF8BC
:1018700004800094234632464146069816F02EFB1B
:101880000294CDF8049000962346324631461198D2
:1018900016F024FB0294CDF80480009423462246DF
:1018A0004146059816F01AFB0294CDF80490009674
:1018B000234622463146079816F010FB029406256F
:1018C00001950094234622464146159816F006FBE2
:1018D0000294CDF804A0009623462246314614987F
:1018E00016F0FCFA029401950094234632464146D4
:1018F000139816F0F3FA0294CDF804A0009623464C
:1019000032463146129816F0E9FA02940194CDF865
:101910000080234622464146384616F0DFFA284A20
:101920002849384616F08AFA0294019600944B46EC
:1019300032463146169816F0D1FA0294CDF804805A
:1019400000944B4632462146584616F0C7FA029498
:10195000CDF804900096234632463146179816F08B
:10196000BDFA0294019500942346224631461B9805
:1019700016F0B4FA0294CDF804A00096234632463D
:1019800031461A9816F0AAFA02940195009423465B
:1019900032463146199816F0A1FA0294CDF804A007
:1019A0000096234622463146189816F097FA95E697
:1019B000200100200C0100205800002034000020ED
:1019C0009C000020840000209A4A9B49304616F073
:1019D00035FA01240294002601960094022332462F
:1019E0000321404616F07AFA7821089805F084FF22
:1019F0007821099805F080FF904A9149404616F0F9
:101A00001DFA4FF0040ACDF808A00196009623466F
:101A1000324621460A9816F061FA02940196009423
:101A200002231A4631460B9816F058FA0294019494
:101A3000009602231A460321484616F04FFA0294F4
:101A40004FF00208CDF8048000942346032231466B
:101A50000D9816F043FA0294CDF8048000942346C2
:101A6000424621460C9816F039FA0294CDF804A0AB
:101A700000942346424621460E9816F02FFA02940F
:101A8000CDF804A000942346032231460F9816F0A7
:101A900025FA02944FF00509CDF8049000942346EE
:101AA00022463146089816F019FA0294CDF80490AF
:101AB0000094234603224146099816F00FFA029437
:101AC00001940096234632460321284616F006FA72
:101AD0005C4A5D49284616F0B1F9029401960094DB
:101AE000434632463146109816F0F8F90294CDF884
:101AF00004800096434632463146119816F0EEF9BE
:101B000002940325019500964346324629460698DD
:101B100016F0E4F90294CDF804A00096434632464C
:101B20003146079816F0DAF90294CDF80490009641
:101B3000434632462946059816F0D0F9029406230A
:101B400001930096434632463146149816F0C6F982
:101B5000029407230193009643463246294615987E
:101B600016F0BCF9029408230193009643463246CE
:101B70003146129816F0B2F90294092301930096A7
:101B8000434632462946139816F0A8F90294019468
:101B90000095234622462946384616F09FF9294AE1
:101BA0002949384616F04AF90294019600944346B2
:101BB00032463146169816F091F902940195009438
:101BC000434632462146584616F088F90294CDF82D
:101BD00004800096234632463146179816F07EF967
:101BE0000294CDF804A000962346324631461A9856
:101BF00016F074F90294CDF804900096234632460C
:101C000031461B9816F06AF9029406230193009658
:101C1000234632463146189816F060F9029407239D
:101C200001930096234632463146199816F056F92C
:101C300054E500BF280100201401002064000020AA
:101C400044000020AC0000208C0000209D4A9E49EA
:101C5000304616F0F3F89D4A9D49404616F0EEF8DE
:101C60009C4E9D4C32462146284616F0E7F83246F7
:101C70002146384616F0E2F8012402940026019627
:101C80000094234632460321404616F027F9324697
:101C90000221484609F06BFC02940196009402234D
:101CA000324621460A9816F019F9029401940094DC
:101CB0000223324621460B9816F010F902944FF099
:101CC0000208CDF804800096434632460321484678
:101CD00016F004F902944FF00309CDF80490009433
:101CE0002346324621460C9816F0F8F80294CDF8B7
:101CF000049000942346224631460D9816F0EEF8E3
:101D000002944FF0040ACDF804A000942346324612
:101D100021460E9816F0E2F80294CDF804A0009443
:101D20002346224631460F9816F0D8F80294052330
:101D300001930094434632464946089816F0CEF87F
:101D4000029406230193009443463246494609987B
:101D500016F0C4F802940194009623463246494690
:101D6000284616F0BBF8029401960094434632468A
:101D70003146109816F0B2F80294CDF8048000961F
:101D8000434632463146119816F0A8F80294CDF831
:101D900004900096434632464946069816F09EF84F
:101DA0000294CDF804A00096434632463146079887
:101DB00016F094F8029405230193009643463246A8
:101DC0004946059816F08AF8029406230193009676
:101DD000434632463146149816F080F802940723A1
:101DE00001930096434632464946159816F076F818
:101DF00002940823019300964346324631461298D6
:101E000016F06CF80294092301930096434632467B
:101E10004946139816F062F842F2D171384605F03F
:101E200082FD0294CDF8048000962346324649464E
:101E3000384616F053F80294019600944346324611
:101E40003146169816F04AF80294CDF804800096B0
:101E5000234632463146179816F040F80294CDF8E2
:101E600004900094434632462146584616F036F810
:101E70000294CDF804A000962346324631461A98C3
:101E800016F02CF80294052301930096234632465F
:101E90003146199816F022F80294CDF804A0009665
:101EA000234622463146189816F018F80294052366
:101EB000019300962346224631461B9816F00EF8F1
:101EC0000CE400BF300100201C0100207400002041
:101ED00050000020C400002094000020F0B591B014
:101EE000054603F0A9FD04461A2803D01B2C2DD06B
:101EF00011B0F0BD284603F0A3FD0646436BB3F5D1
:101F0000C02F07D0736BB3F5A02FEFD13369002238
:101F1000DA70EBE7836B022BF4D102AFDFF82CC150
:101F2000BCE80F000FC7BCE80F000FC79CE80F000C
:101F300087E80F00336C10AA02EB830353F8383C98
:101F40003D4A316BF06A23F053FADBE7284603F091
:101F500077FD0446436BB3F5A02FC9D102A80DF05D
:101F600097FAE368DD885A88AD1AADB201352DB213
:101F7000B3F90020ADF80020B3F90420ADF8042037
:101F8000B3F90220ADF80220A16B2C4B53F821309D
:101F900005FB03F32A4EA6FB03135B0913FA82F336
:101FA0000433ADF80630002021F020FEADF80C001F
:101FB0000423ADF808306A4602A920680DF090FAB3
:101FC000BDF80620043AADF80220A16B1D4B53F872
:101FD000213003FB05F3A6FB03135B0913FA82F31D
:101FE000ADF80630052021F001FEADF80C0000230D
:101FF000ADF808306A4602A920680DF071FABDF903
:102000000620ADF80220A16B0F4B53F8213003FBE3
:1020100005F3A6FB03135B0913FA82F3ADF8063050
:10202000092021F0E3FDADF80C006A4602A9206802
:102030000DF056FA5CE700BF48000508C4E8040844
:102040001F85EB519CE80408ECE8040800920308A3
:1020500070B5A2B0054603F0EFFC0446284603F035
:10206000E7FC132C04D006461B2C0BD022B070BD0D
:10207000284603F0E5FCB0F900303C2BB8BF3C2308
:102080000380F3E7284603F0DBFC0446436BB3F51B
:10209000403FEBD12021304604F0C4FC0028E5D0BD
:1020A000304626F030FB0346664A082106A823F096
:1020B0009FF90025029541F6FF73019300952B4689
:1020C000614A126806A905A825F004F8E1680A88A3
:1020D0008B889B1A9BB20133C3F3C03000FA83F3A1
:1020E00002EB63039BB2BDF9142002EBD270A3EBA9
:1020F00060039EB2ADF8203016FA82F2ADF82420CB
:102100004B880A3B9AB2ADF82630BDF81630D31A88
:10211000ADF82230284620F01FFF1D284FDC012398
:10212000F61AADF82860BDF82450002020F014FF06
:102130001D2851DC01232B44ADF82C30BDF8225072
:10214000002020F009FF1D2853DC0123EB1AADF815
:102150002A30BDF82650002020F0FEFE1D2855DC58
:1021600001232B44ADF82E3014A80DF091F9032172
:10217000122021F091FDADF85400002020F0ECFE7B
:1021800000EB8000EF284EDC0123ADF850300AAAA6
:1021900014A920680DF0A4F90CA80BF0A3FA4FF6CF
:1021A000FF73ADF83C30284B1B680C93206800236C
:1021B000009306AB08AA0CA90BF0B4FA56E7284620
:1021C00020F0CAFE00F10A03204A82FB0312DB174B
:1021D000C3EBE2039BB2A3E7002020F0BDFE00F1B9
:1021E0000A031A4A82FB0312DB17C3EBE2039BB21A
:1021F000A1E7002020F0B0FE00F10A03134A82FBA1
:102200000312DB17C3EBE2039BB29FE7002020F031
:10221000A3FE00F10A030D4A82FB0312DB17C3EB96
:10222000E2039BB29DE7002020F096FE00EB8000C9
:1022300000F15003054A82FB0312DB17C3EBA21324
:102240001BB2A2E70CE404084C0C0020676666662B
:1022500038B5054603F0F0FB0446284603F0E8FBDA
:102260000E2C00D038BD054603F070FE03F074FE5E
:102270000128F7D12C4B1B68002BF3D120F036FE40
:1022800003F064FA022104F02DFB20F02FFE03F08E
:102290005DFA1AF05DFC244B186020F027FE03F075
:1022A00055FA00227F2109F018F920F01FFE03F0F3
:1022B0004DFA0446122021F099FC014600222046E6
:1022C00009F0FBF8194B1B7803B3012B25D04FF411
:1022D000A5724FF49671144B186805F03BFB124C35
:1022E000012240F2C67120681AF048FC1E23002229
:1022F0000921206805F0ACFB2B4600220C49206820
:1023000003F0B6FB20681AF001FFABE7C822B42146
:10231000054B186805F01EFBE1E7DC22C821024BE3
:10232000186805F017FBDAE7340C0020440C002095
:102330003523000870B58CB0044603F07DFB0546DC
:10234000204603F07FFB0646204603F073FB1C2D5E
:1023500001D00CB070BD03A91AF032FD9DF90E300A
:10236000BDF80C20019200939DF90F300F4A2021F7
:1023700004A823F03DF804A930462DF09DFB0C4D38
:10238000286809F00FFA00242C6020F0AFFD03F05C
:10239000DDF9022104F0DFFA20F0A8FD03F0D6F900
:1023A0002246214609F099F8D3E700BF10E404085B
:1023B000340C0020F8B5054603F03EFB04462846E1
:1023C00003F036FB0646284603F03CFB05460E2C80
:1023D00006D00F2C39D01F3CE4B2012C4BD9F8BDEC
:1023E00003F0B4FD03F0B8FD0228F8D031462846CA
:1023F0001DF004FF20F07AFD20F07EFD4000294909
:1024000081FB0031A1EBE071002209B2284609F0FE
:102410000EF8254C206806F009FC276820F066FDC0
:1024200020F082FD84B2284605F07BFB81B2611A60
:1024300009B2384605F077FA0121284604F08BFAF4
:102440000021304607F049FBC9E700211DF0D6FE08
:10245000154B1C6820F04AFD20F066FD0146204621
:1024600005F061FA0121284604F03CFA31460020CB
:1024700003F078FDB3E70C4B1C6820F037FD20F02B
:1024800053FD0146204605F04EFA0121284604F08E
:1024900029FA0221304604F0A9FA3146002003F05F
:1024A00061FD9CE756555555980C002030B591B00C
:1024B000044603F0C1FA072801D011B030BD204610
:1024C00003F0C0FA044605F025FB054620F00EFD9A
:1024D00020F012FD00EBD07343F34F039D4211DA5D
:1024E000684620F099FE00940F4B01930023079358
:1024F00008934FF480730993C8230A93684620F029
:10250000D3FEDAE7684620F087FE0094064B01937D
:102510004FF480730793089300230993C8230A9309
:10252000684620F0C1FEC8E70943000838B50C46EC
:10253000074D0A46014628681FF07EFB00212868E7
:1025400009F076F82246034929F0B8FD38BD00BFEE
:10255000640C00200CE404082DE9F047C6685B4BCE
:102560001B78002B00F08A80594A1368893B13605E
:10257000B3F5AF6F02D2554B00221A70554B1B7842
:10258000002B00F08880544A1368033B1360B3F5B6
:10259000AF6F02D24F4B00221A70504B1B78002BAA
:1025A00000F086804E4A1368393B1360B3F5AF6F75
:1025B00002D24A4B00221A70DFF81491D9F8004079
:1025C000DFF81481D8F80030E518454F3A68154413
:1025D00004EB440204EB4214B4FBF5F403EB4302B6
:1025E00003EB4213B3FBF5F5DFF804A100223168D9
:1025F000DAF800001FF047FB22463168DAF80000E5
:102600001FF05BFB621C7168DAF800001FF03BFBF7
:102610002C44621C7168DAF800001FF04EFBA21C0B
:10262000B168DAF800001FF02EFB6322B168DAF817
:1026300000001FF042FBDAF8000008F0BBFF044680
:102640006FF0040108F0F4FFD9F80020254929F0C3
:1026500035FD6FF00201204608F0EAFFD8F80020AF
:10266000214929F02BFD4FF0FF31204608F0E0FF13
:102670003A681E4929F022FDBDE8F087144A136824
:102680007433136041F2941293427FF677AF0F4B8D
:1026900001221A7072E7104A13680933136041F27D
:1026A000941293427FF679AF0A4B01221A7074E7B5
:1026B0000B4A13684C33136041F2941293427FF635
:1026C0007BAF064B01221A7076E700BF450C002055
:1026D00064010020460C00206C010020470C002003
:1026E0006801002020E4040830E404083CE4040805
:1026F000540C002038B50C46084D0A46014628689F
:102700001FF0DBFA286808F055FF4FF0FF3108F0A2
:102710008FFF2246024929F0D1FC38BD500C002021
:1027200048E4040838B50C46084D0A4601462868B6
:102730001FF0C3FA286808F03DFF6FF0020108F0AF
:1027400077FF2246024929F0B9FC38BD500C002021
:1027500058E4040838B50C46084D0A460146286876
:102760001FF0ABFA286808F025FF6FF0040108F0AD
:102770005FFF2246024929F0A1FC38BD500C002021
:1027800068E404082DE9F043A9B0054603F054F9C4
:102790000446284603F04CF90646012C00F09180CF
:1027A000082C00F08E801A2C40F08E80284603F012
:1027B00047F90446436BB3F5C02F00F08880B3F5AA
:1027C000A02F40F08180616A00296DD0A06A0028A6
:1027D0006AD0B0F90030B1F90220B1F90010032538
:1027E0000195B0F9020000900FA80CF007FC002141
:1027F0000FA80CF011FB0746304605F092F906F1E0
:102800001408F38A02460028C0F2968003EBE20324
:10281000B6F91A200192002500951BB2FF2241460D
:1028200009A80CF017FE294609A80CF0F5FA054690
:102830001AA80CF02DFE7F238DF86B30A3691B883E
:10284000ADF86C3023680DF114094246996848468A
:1028500020F054FE2368D3F80880C3F80890626A19
:10286000B2F90030ADF81C30A16A0B88013BADF81D
:102870002030B1F90230B2F902209342A8BF1346CA
:10288000ADF81E30B6F91A30ADF8223007AA1AA9F1
:1028900020680CF025FE2368C3F8088038460CF049
:1028A00011FB28460CF00EFB656C30461CF042F91B
:1028B000A36B984242D022690023D3842269D38536
:1028C00002E0304605F0F4FC29B0BDE8F083826BED
:1028D000022A7FF474AF30461BF068FD022815D041
:1028E0001AADC14E0FCE0FC50FCE0FC596E80F0023
:1028F00085E80F00236C28AA02EB830353F8383CC9
:10290000BA4A216BE06A22F073FDDDE71AADB84EDA
:102910000FCE0FC50FCE0FC596E80F0085E80F004C
:10292000236C28AA02EB830353F8383CAF4A216B8F
:10293000E06A22F05DFDC7E7C21D67E730461BF085
:1029400035FD012800F0A78023692A899A8523692B
:102950000F22DA85236900229A86236CA54A082172
:1029600005A822F045FD0023029341F6FF72019273
:102970000093A14A126805A904A824F0ABFB3046D5
:102980001BF014FD022800F08E80E1680B888A8815
:10299000D21A92B20132C2F3C03000FA82F203EBD3
:1029A00062039BB2BDF9102002EBD270A3EB60036F
:1029B000ADF81C3092B212FA83F3ADF820304E8895
:1029C000002020F0C9FAC0EB0010EF2800F3BA8015
:1029D0000123F31A9AB2ADF82230BDF81230D31A9F
:1029E000ADF81E30BDF81C60002020F0B5FA1D289F
:1029F00000F3B7800123F31AADF82430BDF820604E
:102A0000002020F0A9FA1D2800F3B88001233344E8
:102A1000ADF82830BDF81E60002020F09DFA1D287A
:102A200000F3B9800123F31AADF82630BDF8226017
:102A3000002020F091FA1D2800F3BA8001233344CE
:102A4000ADF82A301AA80CF023FD2B89ADF86C30B4
:102A5000002020F081FA00EB8000EF2800F3B58021
:102A60000123ADF8683009AA1AA920680CF038FDD6
:102A70000FA80AF037FE4FF6FF73ADF848305E4BF3
:102A80001B680F9320680023009305AB07AA0FA9CA
:102A90000AF048FE18E723694FF6FF729A8423690B
:102AA0000222DA8459E7E3685F88002020F054FAB4
:102AB000C0EB0010EF2824DC0123FB1A9AB2ADF81A
:102AC0002230BDF81230D31AADF81E300021304646
:102AD0001BF0F2FF854220D0E3681A889B889B1A7E
:102AE0009BB20133C3F3C03101FA83F302EB6303FA
:102AF0009AB2ADF82030BDF81030D31AADF81C30C2
:102B000070E7002020F028FAC0EB001000F150031D
:102B1000A02293FBF2F39BB2CFE7E3681A889B886D
:102B20009B1A9BB20133C3F3C03101FA83F302EB6A
:102B30006303ADF81C30BDF8102012FA83F3ADF832
:102B400020304FE7002020F007FAC0EB001000F122
:102B500050032A4A82FB0312DB17C3EBA2139BB27A
:102B600037E7002020F0F8F900F10A03234A82FB3E
:102B70000312DB17C3EBE2039BB23CE7002020F01B
:102B8000EBF900F10A031D4A82FB0312DB17C3EBCA
:102B9000E2039BB23BE7002020F0DEF900F10A03DC
:102BA000164A82FB0312DB17C3EBE2039BB23AE740
:102BB000002020F0D1F900F10A03104A82FB031231
:102BC000DB17C3EBE2039BB239E7002020F0C4F926
:102BD00000EB800000F15003084A82FB0312DB1770
:102BE000C3EBA2131BB23CE70092030848000508A0
:102BF0003092030844E404084C0C002067666666C3
:102C00002DE9F04F89B00D4617461E4603F05EFED3
:102C1000044642F2D17104F086FE0121204614F0F0
:102C200053FB204628F01AFD8246294629F0E4F994
:102C30000022A349504608F021F920461EF0E8FE84
:102C400005460022114608F0BDFA4FF4003200217B
:102C5000284608F0B7FA42F26401284604F04CFE18
:102C6000204603F033FE80460D22114604F072FE2A
:102C70004FF480320021404608F0A4FADFF8589261
:102C800000224946404608F0F9F8002020F0AEFF47
:102C900001460022404608F010FC204628F0DEFCE9
:102CA0000590394629F0A8F9204603F00FFE0746A3
:102CB0000D22114604F04EFE4FF4803200213846BA
:102CC00008F080FA00224946384608F0D7F8052077
:102CD00020F08CFF01460022384608F0EEFB20462B
:102CE00028F0BCFC0690314629F086F9204603F016
:102CF000EDFD06460D22114604F02CFE4FF4803205
:102D00000021304608F05EFA00224946304608F0BD
:102D1000B5F8092020F06AFF01460022304608F08D
:102D2000CCFB204628F09AFC0790129929F064F910
:102D3000644B1B78012B65D0634A6449204615F02B
:102D40007DF84FF00109CDF808900024019400941B
:102D5000022322462146504615F0C0F8CDF80890CF
:102D6000CDF804900094022322462146284615F00F
:102D7000B5F8CDF808904FF0020ACDF804A0009401
:102D80004B4622462146404615F0A8F8CDF808905B
:102D90004FF00308CDF8048000944B4622462146AC
:102DA000384615F09BF8CDF8089004270197009459
:102DB0004B4622462146304615F090F8CDF8089053
:102DC000CDF804A000944B464A464146059815F0BC
:102DD00085F8CDF80890CDF8048000944B464A461B
:102DE0004146069815F07AF8CDF8089001970094BE
:102DF0004B464A464146079815F070F8284609B0F8
:102E0000BDE8F08F324A3349204615F017F8012407
:102E100002944FF00009CDF80490CDF800900423FF
:102E20004A464946504615F059F84FF0030ACDF886
:102E300008A00194CDF8009023464A46494628460A
:102E400015F04CF802944FF0020BCDF804B000944A
:102E500023465A464946404615F040F80294CDF8BC
:102E600004A0009423465A464946384615F036F8E1
:102E7000029404270197009423465A464946304657
:102E800015F02CF80294CDF804B000942346524675
:102E90005146059815F022F80294CDF804A000944C
:102EA000234652465146069815F018F802940197A9
:102EB0000094234652465146079815F00FF89DE7B7
:102EC000900C0020440C002048010020F800002055
:102ED00038010020EC000020780C00202DE9F043A0
:102EE00085B00C461646994603F0F0FC05462E4A7E
:102EF000002108F067F942F2D17242F264012846DB
:102F000004F028FD294A2A49284614F097FF28464C
:102F100028F018F98046214628F020F90227029768
:102F2000002401940094012322462146404614F0D7
:102F3000D5FF284628F092FB8046314629F05CF800
:102F4000012602960194009733463A4621464046B0
:102F500014F0C4FF284628F081FB8046494629F03A
:102F60004BF822461349404607F088FF0296019627
:102F7000009433463A462146404614F0AFFF2846B7
:102F800028F06CFB80460C9929F036F802960194E3
:102F90000097334603223946404614F09FFF2846E7
:102FA00005B0BDE8F08300BFFFFF0F005401002013
:102FB00000010020880C00202DE9F04794B006465F
:102FC000042114F031F9304603F080FC054601215C
:102FD00014F07AF9CE4ACF49284614F02FFF42F276
:102FE0006401284604F09FFC00224FF496712846A5
:102FF00008F01DFA284628F031FB8046C64928F023
:10300000FBFF0022C549404607F038FF0127029721
:10301000002401940094022322462146404614F0E5
:103020005DFF28461BF092F9BD4D286002F08AFE34
:10303000296802F0B7FE4FF48061286803F052FC63
:1030400002970197032100913B463A46286814F005
:1030500045FF5023039302970197052300932346CE
:103060002246214628681CF099F9322303930297DF
:1030700001970C27009723462246022128681CF05E
:103080008DF93A46214628681BF06CF939462868C4
:103090001BF034FC23462246A249286802F0E8FCD3
:1030A000A14B1B78002B00F07085012B00F074857C
:1030B0009B4C00220521206808F01DFA00221146D1
:1030C000206808F05BFA2568284609F067FE01468B
:1030D000002228461BF04CFC0746944D2860D4F88B
:1030E000008050210A2021F04FFA02B239464046B2
:1030F0001BF0ECFC2768D5F8008050210A2021F055
:1031000043FA02B2414638461BF0E0FC2768D5F886
:10311000008050210A2021F037FA02B24146384699
:103120001BF0D4FC2768D5F8008050210A2021F03C
:103130002BFA02B2414638461BF0C8FC2768D5F886
:10314000008050210A2021F01FFA02B24146384681
:103150001BF0BCFC2768D5F8008050210A2021F024
:1031600013FA02B2414638461BF0B0FC2768D5F886
:10317000008050210A2021F007FA02B24146384669
:103180001BF0A4FC2768D5F8008050210A2021F00C
:10319000FBF902B2414638461BF098FC2768D5F887
:1031A000008050210A2021F0EFF902B24146384652
:1031B0001BF08CFC2768D5F8008050210A2021F0F4
:1031C000E3F902B2414638461BF080FC2768D5F887
:1031D000008050210A2021F0D7F902B2414638463A
:1031E0001BF074FC2768D5F8008050210A2021F0DC
:1031F000CBF902B2414638461BF068FC24682D68C2
:1032000050210A2021F0C0F902B2294620461BF0C5
:103210005DFC304603F05AFB05464FF4000103F015
:1032200061FB0121284614F04FF842F26401284660
:1032300004F079FB00224FF49671284608F0F7F865
:10324000334A3449284614F0F9FD284628F006FA96
:103250008046374928F0D0FE00223049404607F02A
:103260000DFE0127029700240194009402232246B8
:103270002146404614F032FE28461BF067F82D4DDB
:10328000286002F05FFD296802F08CFD4FF4806138
:10329000286803F027FB02970197032100913B4622
:1032A0003A46286814F01AFE5023039302970197B8
:1032B0004FF00508CDF800802346224621462868B5
:1032C0001CF06CF832230393029701970C270097A8
:1032D00023462246022128681CF060F842F264026C
:1032E0001146286804F036FB022128681BF0A8FA72
:1032F0002246062128681BF035F8394628681BF05D
:10330000FDFA234622460749286802F0B1FB13E084
:10331000E4000020DC00002078E40408900C002089
:10332000380C002085270008440C0020680C002081
:1033300088E404083C0C00204FF4007128681BF05E
:1033400022F822464146286808F0D5F82246214650
:10335000286808F013F9D24B1B78002B00F0248466
:10336000022B00F03C84CF4C25680121122020F074
:103370005DFC0146002228461BF0FAFA0746CA4DBA
:103380002860D4F8008050210A2021F0FDF802B214
:10339000394640461BF09AFB2768D5F8008050213B
:1033A0000A2021F0F1F802B2414638461BF08EFBAC
:1033B0002768D5F8008050210A2021F0E5F802B2F4
:1033C000414638461BF082FB2768D5F80080502123
:1033D0000A2021F0D9F802B2414638461BF076FBAC
:1033E0002768D5F8008050210A2021F0CDF802B2DC
:1033F000414638461BF06AFB2768D5F8008050210B
:103400000A2021F0C1F802B2414638461BF05EFBAB
:103410002768D5F8008050210A2021F0B5F802B2C3
:10342000414638461BF052FB2768D5F800805021F2
:103430000A2021F0A9F802B2414638461BF046FBAB
:103440002768D5F8008050210A2021F09DF802B2AB
:10345000414638461BF03AFB2768D5F800805021DA
:103460000A2021F091F802B2414638461BF02EFBAB
:103470002768D5F8008050210A2021F085F802B293
:10348000414638461BF022FB2768D5F800805021C2
:103490000A2021F079F802B2414638461BF016FBAB
:1034A00027682D6850210A2021F06EF802B22946C3
:1034B00038461BF00BFB25687C4B186809F06EFC46
:1034C0000146002228461BF053FA0746784D286033
:1034D000D4F8008050210A2021F056F802B2394673
:1034E00040461BF0F3FA2768D5F8008050210A20E7
:1034F00021F04AF802B2414638461BF0E7FA276845
:10350000D5F8008050210A2021F03EF802B2414651
:1035100038461BF0DBFA2768D5F8008050210A20D6
:1035200021F032F802B2414638461BF0CFFA276844
:10353000D5F8008050210A2021F026F802B2414639
:1035400038461BF0C3FA2768D5F8008050210A20BE
:1035500021F01AF802B2414638461BF0B7FA276844
:10356000D5F8008050210A2021F00EF802B2414621
:1035700038461BF0ABFA2768D5F8008050210A20A6
:1035800021F002F802B2414638461BF09FFA276844
:10359000D5F8008050210A2020F0F6FF02B2414603
:1035A00038461BF093FA2768D5F8008050210A208E
:1035B00020F0EAFF02B2414638461BF087FA27683E
:1035C000D5F8008050210A2020F0DEFF02B24146EB
:1035D00038461BF07BFA2768D5F8008050210A2076
:1035E00020F0D2FF02B2414638461BF06FFA246841
:1035F0002D6850210A2020F0C7FF02B2294620463C
:103600001BF064FA2B4B00932B4B2C4A2C49304671
:10361000FFF7F6FA2B4D286007F0CCFF4FF40001BE
:1036200003F060F928681EF0FFF904465A2301935D
:103630004FF48773009364230022014628681EF02C
:1036400042FA4FF00003ADF80430002700973B46E4
:103650003A46214628681EF01BFA04A81FF0DCFD3C
:1036600014230B930C9364230D934FF6FF73ADF863
:103670004C30D5F80080052020F0B8FA03460097BA
:103680000F22214640461EF061FA0F4B059304902D
:1036900041F204030E9340F68C23119304A815E025
:1036A000440C00203C0C00206C0C0020380C002046
:1036B000700C0020C4E4040898E40408A4E404089E
:1036C000B4E40408500C0020552700081FF0ECFD5E
:1036D000D5F80080384620F089FA03466FF01302CF
:1036E00000920F22214640461EF030FAD24B05933D
:1036F000049040F628230E934FF4486311930990E9
:1037000004A81FF0D1FD2D68092020F06FFA0346B0
:103710006FF0270200920F22214628461EF016FA6B
:10372000C64B059304904FF42F630E934FF4E1635F
:10373000119304A81FF0B8FDC14B0093C14BC24ABE
:10374000C2493046FFF75CFAC14B1860C14B1B7889
:10375000012B40F25282BE4C20681EF065F90746EC
:103760005A2301934FF4B47300936423002201465B
:1037700020681EF0A8F94FF00003ADF804304FF0B8
:103780000008CDF8008043464246394620681EF0C6
:103790007FF92568404620F029FA03466FF00902B8
:1037A00000921422394628461EF0D0F90146AA4D4F
:1037B0002860424620681EF066FA272229682068A1
:1037C0001EF07BFAD4F80090052020F00FFA034693
:1037D000CDF800801E22394648461EF0B7F9014652
:1037E0006860282220681EF04EFA45226968206829
:1037F0001EF063FAD4F80080092020F0F7F90346A0
:103800006FF0130200920A22394640461EF09EF9DC
:103810000146A860462220681EF035FA6322A96896
:1038200020681EF04AFA2A4664218C4822F0CCF91E
:103830008B4B00938B4B8C4A8C493046FFF7E0F959
:103840008B4B1860834B1B78012B40F2DD81884C39
:10385000256800220A21284607F013FE00220A21CB
:10386000284607F015FE25684FF400320A21284645
:1038700007F0C8FD4FF400320A21284607F0D0FDBA
:103880004FF4003247F6FF71206807F077FE4FF4DF
:103890000032FF21206807F020FE25680421122055
:1038A00020F0FAF901464FF40032284607F005FEF1
:1038B0004FF400324FF0FF31206807F02AFE4FF43A
:1038C00000320321206807F01DFE25680121122027
:1038D00020F0E2F901464FF4C022284607F030FEFE
:1038E00020681EF0A1F805468C230193DC23009389
:1038F0003C230A22014620681EF0E5F84FF6FF73CC
:10390000ADF80430112300930323152229462068C3
:103910001EF0BEF80F2302934FF6FF73ADF804308C
:103920001623009304231A46294620681EF0BCF88B
:10393000D4F80080002020F059F9034600270097B2
:103940000A22294640461EF001F980463A460146C1
:1039500020681EF098F91422414620681EF0ADF947
:10396000D4F800A00321384620F096F980460321C0
:10397000384620F091F9034601974FF00109CDF840
:1039800000904246294650461EF018F980463A46B5
:10399000014620681EF077F91422414620681EF087
:1039A0008CF9D4F80080052020F020F90346009718
:1039B0000C22294640461EF0C9F8804614220146D2
:1039C00020681EF060F92822414620681EF075F933
:1039D000D4F800A00321052020F05EF980460321E1
:1039E000052020F059F903460197CDF80090424692
:1039F000294650461EF0E2F880461422014620680F
:103A00001EF041F92822414620681EF056F9D4F8EC
:103A10000080092020F0EAF8034600970A22294690
:103A200040461EF093F880462822014620681EF08A
:103A30002AF93C221EE000BF25270008F5260008D1
:103A4000F4E40408D0E40408DCE40408E8E404082E
:103A5000540C0020440C0020580C0020592500086C
:103A60002CE5040800E5040810E504081CE504083A
:103A7000640C0020414620681EF01FF9D4F800A015
:103A80000321092020F008F980460321092020F0B5
:103A900003F903460197CDF8009042462946504667
:103AA0001EF08CF880462822014620681EF0EBF8B4
:103AB0003C22414620681EF000F9D4F80080042121
:103AC000122020F0E9F803466FF018020092042259
:103AD000294640461EF002F88046206827F0BEFDC9
:103AE0000546564928F088FA3A465549284607F0CF
:103AF000C5F9206827F0B2FD0446524928F07CFA47
:103B000004A81FF089FB0A230B930C933C230D930D
:103B10004FF6FF73ADF84C304B4B0593CDF810804A
:103B200041F204030E934FF44873119304A81FF05D
:103B3000BBFB304605F07AF8444B1B784B456AD006
:103B4000434F386803F0E6FF06460146386803F045
:103B5000EAFE31463F4B186803F0E5FE31463E4B26
:103B6000186803F0E0FE42F237030A2202212846D9
:103B700003F06EFF002300930A23152229462046F6
:103B800005F074F814B0BDE8F0874FF44071286870
:103B90001AF0F9FBFFF78CBA4FF400712F4B18683D
:103BA0001AF0F1FBFFF784BA2C462D684FF4A022DF
:103BB0000021284607F073FC4FF4A022002128467C
:103BC00007F074FC246800220221204607F067FCFD
:103BD00000220221204607F069FCFFF7C4BB204BFE
:103BE0001C6800221021204607F059FC00221021F9
:103BF000204607F05BFCFFF7B6BB07F0DBFC4FF499
:103C0000000102F06FFEA6E507F0D4FC4FF40001BE
:103C100002F068FE1BE6C82211460D4B186803F03F
:103C200099FEC82211460B4B186803F093FEC82278
:103C30001146094B186803F08DFE94E738E5040837
:103C4000900C00203CE504082D250008440C0020C1
:103C5000500C0020540C0020640C0020380C002074
:103C60003C0C00202DE9F04F87B00746042113F0EB
:103C7000DBFA384602F02AFE064642F2D17242F2E0
:103C8000640103F067FE00221E21304607F0F2FBBC
:103C9000304627F0E3FC8246DB4928F0ADF9DB4CE7
:103CA00000222146504607F0E9F8304627F0D6FCBE
:103CB0008146D74928F0A0F90022D649484607F0A6
:103CC000DDF8304627F0CAFC05460490D24928F0BA
:103CD00093F900222146284607F0D0F8304627F015
:103CE000BDFC04460590CD4928F086F909201FF057
:103CF0007DFF01460022204607F022FC30461AF0E4
:103D000025FBC74C206050230393012502950195A4
:103D10004FF00608CDF8008000231A4619461BF024
:103D20003DFB32230393029501950725009500235F
:103D30001A46022120681BF031FB022120681AF08C
:103D40007FFD0022414620681AF00CFB29462068BE
:103D50001AF0D4FD00231A46B249206801F088FE0B
:103D60002568284609F01AF80146002228461AF06C
:103D7000FFFD8046AC4D2860D4F800B05A213C20AD
:103D800020F002FC02B2414658461AF09FFED4F8D9
:103D90000080D5F800B05A213C2020F0F5FB02B29B
:103DA000594640461AF092FED4F80080D5F800B08B
:103DB0005A213C2020F0E8FB02B2594640461AF056
:103DC00085FED4F80080D5F800B05A213C2020F0C0
:103DD000DBFB02B2594640461AF078FED4F8008068
:103DE000D5F800B05A213C2020F0CEFB02B2594653
:103DF00040461AF06BFED4F80080D5F800B05A2186
:103E00003C2020F0C1FB02B2594640461AF05EFE4B
:103E1000D4F80080D5F800B05A213C2020F0B4FB43
:103E200002B2594640461AF051FED4F80080D5F847
:103E300000B05A213C2020F0A7FB02B25946404670
:103E40001AF044FED4F80080D5F800B05A213C2086
:103E500020F09AFB02B2594640461AF037FED4F8D9
:103E60000080D5F800B05A213C2020F08DFB02B232
:103E7000594640461AF02AFED4F80080D5F800B022
:103E80005A213C2020F080FB02B2594640461AF0ED
:103E90001DFE24682D685A213C2020F075FB02B2DB
:103EA000294620461AF012FE604B1B78022B00F0C8
:103EB000EB80012B00F04581002B00F0A4813846F7
:103EC00002F004FD0446594B1B78002B40F0F181B1
:103ED0004FF4000102F006FD42F26401204603F0B7
:103EE00022FD0121204613F09FF90121204613F005
:103EF000EBF94FF40001204602F0F4FC204627F0D5
:103F0000ADFB05464A4928F077F800223F4928468C
:103F100006F0B4FFDFF84C81464E474D474B009307
:103F20004346324629462046FEF7D8FF444B0093CD
:103F30004346324629462046FEF7D0FF414B0093C8
:103F40004346324629462046FEF7C8FF3E4B0093C3
:103F50004346324629462046FEF7C0FF3B4B0093BE
:103F60004346324629462046FEF7B8FF384602F05F
:103F7000ADFC04462D4B1B78002B40F0A5814FF47F
:103F8000000102F0AFFC42F26401204603F0CBFCDA
:103F90000121204613F048F90121204613F094F93D
:103FA000204627F05BFB0546294928F025F800222A
:103FB0001649284606F062FF204625F0BDFE254939
:103FC00025F0C6FE204625F0B7FE234925F0C0FEA9
:103FD000204625F0B1FE0546204925F0B9FE012115
:103FE000284602F0F7FC204625F0A6FE05461C49AF
:103FF00025F0AEFE8021284602F0ECFC204625F09C
:104000009BFE054630E000BF44E50408900C00200C
:1040100054E50408880C002064E5040870E50408F1
:10402000400C0020DD1E0008740C0020440C002011
:104030008CE50408A4E5040878920308B0E50408B8
:10404000B8E50408C0E50408C8E50408CCE50408A0
:10405000D4E50408E4E50408F4E5040804E60408EB
:1040600014E604089CE504089D4925F071FE8121B1
:10407000284602F0AFFC204625F05EFE994925F067
:1040800067FE07B0BDE8F08F974C42F2640211461C
:10409000206803F05FFC246800201EF05DFFC0EB89
:1040A00000104000EF283DDC01210022204607F0EF
:1040B000FDF98E4A8E49304613F0C0FE0125029567
:1040C0000024019400942B4622462146504613F0CA
:1040D00005FF0295019500942B462246214648464D
:1040E00013F0FCFE02950326019600942B4622460F
:1040F0002146049813F0F2FE0295042301930094E4
:104100002B4622462146059813F0E8FE052302932C
:10411000019400962B462A4631467348006813F0F6
:10412000DDFECCE600201EF017FFC0EB00104300C0
:104130005033704A82FB0312D917C1EBA21109B2A6
:10414000B3E7304604F072FD674C2568304603F053
:10415000FBFC81B2143909B2284603F0CDFB246878
:1041600000201EF0F9FEC0EB00104000EF283BDC01
:1041700001210022204607F099F95F4A5F49304645
:1041800013F05CFE0124029400250195009423465F
:104190002A462946504613F0A1FE02940195009448
:1041A000234622462946484613F098FE029401947D
:1041B000009423462A462946049813F08FFE029461
:1041C00001940094234622462946059813F086FE62
:1041D000029402210191032300930B462A46424890
:1041E000006813F07BFE6AE600201EF0B5FEC0EB0F
:1041F0000010430050333F4A82FB0312D917C1EB32
:10420000A21109B2B5E7384D42F25F01286803F008
:1042100073FB2C681EF06AFE1EF086FE81B24639E2
:1042200009B2204603F07FFB00224FF49671286804
:1042300007F0FDF84FF4007128681AF0A4F8304A2E
:104240003049304613F0FAFD01260296002401940D
:104250000094334622462146504613F03FFE029614
:1042600001960094334622462146484613F036FE16
:1042700002964FF00208CDF804800094334622469F
:104280002146049813F02AFE02960323019300941A
:10429000334622462146059813F020FE0296042359
:1042A00001930094334622464146286813F016FED7
:1042B00005E642F2640103F036FB00224FF49671EA
:1042C000204607F0B4F80CE642F2640103F02BFB41
:1042D00000224FF49671204607F0A9F858E600BF77
:1042E00020E6040834E60408400C002014000020F6
:1042F000000000206766666620000020080000209D
:10430000280000201000002070B582B005460E463F
:1043100007F050F903F0FEFB84B200201EF01CFEF3
:1043200000EB80008000EF2847DC0120241A24B233
:104330006D4B1B78002B7BD100201EF00DFE34232B
:1043400003FB00F3EF2B47DC012300944FF4807252
:104350000021304620F0F4F801B2284603F0CCFAF0
:1043600000201EF0F9FD00EB80004000EF2841DC4A
:104370004FF0FF3400201EF0EFFD00EB8000400006
:10438000EF2846DC4FF0FF3322460621284603F093
:104390005FFBFF2E00DDFF260024284607F05DF9B5
:1043A000A04240F29F802146284607F041F90022B2
:1043B000F1B207F0EAF80134EFE700201EF0CCFD7F
:1043C00000EB800083005033484A82FB0312D81769
:1043D000C0EBA21080B2A9E700201EF0BDFD342280
:1043E00002FB00F25032414981FB0231D317C3EB8B
:1043F000A113AAE700201EF0AFFD00EB80004300F0
:1044000050333A4A82FB0312DC17A4EBA21424B205
:10441000B0E700201EF0A0FD00EB80004300503309
:10442000324A82FB0312DB17A3EBA2131BB2ABE7EA
:1044300000201EF091FDC0EB00108000EF2825DC6D
:10444000012300944FF480720021304620F078F868
:1044500001B2284603F050FA00201EF07DFD00EB6B
:1044600080004000EF281FDC4FF0FF3400201EF0DA
:1044700073FD00EB80004000EF2824DC4FF0FF3399
:1044800022460621284603F0E3FA82E700201EF0C8
:1044900063FDC0EB001082005032144981FB0231F1
:1044A000D317C3EBA113CCE700201EF055FD00EBA2
:1044B0008000430050330D4A82FB0312DC17A4EB4B
:1044C000A21424B2D2E700201EF046FD00EB8000CB
:1044D00043005033054A82FB0312DB17A3EBA21300
:1044E0001BB2CDE702B070BD440C00206766666663
:1044F00070B592B0054601F09FFA0446284601F0D7
:1045000097FA0E2C03D0072C23D012B070BD07F001
:1045100051F8054603F0FEFA04461EF0E7FC1EF0D3
:10452000EBFC00EBD07343F34F039C42EDDA02A89F
:104530001EF072FE02951F4B0393002309930A930A
:104540004FF480730B93C8230C9302A81EF0ACFEAB
:10455000DBE7284601F076FA05460078C41CE4B291
:10456000122C00D900241FF041FB064620461FF004
:104570003DFB0246104B1B68009300233146184652
:1045800018F06CF928781FF031FB044601460B48FF
:1045900021F0C2FA22460A4B19680A4B18681AF031
:1045A00069FA2246084B1968084B18681AF062FA33
:1045B000ABE700BF094300084C0C0020800C002032
:1045C000680C0020380C0020700C00203C0C0020EF
:1045D0002DE9F041804602F079F90746D74A0021DB
:1045E00006F0F0FD0021384612F01EFE02231A46A6
:1045F0000321384612F044FE4FF48021384602F081
:1046000071F900224FF0FF31384606F056FFCC4BCF
:104610001B78002B5FD100201EF09EFC00EB4003B6
:10462000C0EB0310EF2846DC01210022384606F0DB
:104630002FFF0022FF21384606F04FFF002247F6E9
:10464000FF71384606F09AFFBD4B1B78002B7BD1DB
:1046500000201EF081FC342303FB00F3EF2B55DC1C
:10466000012400201EF078FC342303FB00F3EF2B21
:104670005BDC01222146384603F06CF900201EF075
:104680006BFC00EB80004000EF2800F392804FF0BD
:10469000FF3400201EF060FC00EB80004000EF289B
:1046A00000F396804FF0FF3322460621384603F090
:1046B000CFF90025C4E000201EF04EFC00EB4003C3
:1046C000C0EB031050309F4B83FB0023C117C1EB9D
:1046D000A31109B2A9E700201EF03EFCC0EBC00305
:1046E000C0EBC300EF2801DC01219EE700201EF093
:1046F00033FCC0EBC003C0EBC3005030914B83FBD5
:104700000023C117C1EBA31109B28EE700201EF0F0
:1047100023FC342303FB00F350338A4A82FB031249
:10472000DC17C4EBA21424B29BE700201EF014FC9B
:10473000342303FB00F35033824981FB0321DA1752
:10474000C2EBA11212B295E700201EF005FCC0EBEF
:1047500000108000EF280EDC012400201EF0FCFB7E
:10476000C0EB00108000EF2814DC012221463846FF
:1047700003F0F0F882E700201EF0EEFBC0EB001023
:10478000830050336F4A82FB0312DC17C4EBA21480
:1047900024B2E2E700201EF0DFFBC0EB0010830034
:1047A0005033684981FB0321DA17C2EBA11212B220
:1047B000DCE700201EF0D0FB00EB8000430050330C
:1047C000604A82FB0312DC17A4EBA21424B260E758
:1047D00000201EF0C1FB00EB800043005033594A1B
:1047E00082FB0312DB17A3EBA2131BB25CE7384674
:1047F00023F0B2FF0446544E705D1FF0F7F90146F6
:104800000022204606F059FE002247F6FF7120469E
:1048100006F0B4FE00221146204606F0B6FE142231
:104820001146204603F096F87319002247492046A6
:1048300001F01EF94FF48061204602F08CF801353A
:10484000414B5B5D132BD2D1404623F085FF0446DC
:104850003F4902F047F801224FF0FF31204606F0B1
:104860002CFE00220A21204606F00BFE00220A211F
:10487000204606F00DFE00220A21204606F0F3FD38
:1048800000220A21204606F0F5FD002247F6FF71BE
:10489000204606F073FE3B4600222E49204601F0DA
:1048A000E7F800221146204606F043FE00222A497E
:1048B000204606F019FE224B1B78002B7BD10020EE
:1048C0001EF04AFB2A2303FB00F3EF2B26DC012515
:1048D00000201EF041FB2A2303FB00F3EF2B3DDCFD
:1048E00001222946204603F035F800201EF034FB53
:1048F000C0EB0010EF2840DC4FF0FF3500201EF029
:104900002BFBC0EB0010EF2846DC4FF0FF332A46AC
:104910000621204603F09CF8BDE8F08100201EF03F
:104920001BFB2A2303FB00F35033064A82FB0312CE
:10493000DD17C5EBA2152DB2CAE700BFFFFF0F00C0
:10494000440C0020676666665C010020F1440008A4
:1049500002000400AD24000844E6040800201EF014
:10496000FBFA2A2303FB00F35033484981FB032160
:10497000DA17C2EBA11212B2B3E700201EF0ECFA74
:10498000C0EB001000F15003404A82FB0312DD1718
:10499000A5EBA2152DB2B1E700201EF0DDFAC0EBA9
:1049A000001000F15003394A82FB0312DB17A3EB1E
:1049B000A2131BB2ABE700201EF0CEFA322303FB9A
:1049C00000F3EF2B25DC012500201EF0C5FA322371
:1049D00003FB00F3EF2B2BDC01222946204602F0DB
:1049E000B9FF00201EF0B8FAC0EB0010EF282EDC53
:1049F0004FF0FF3500201EF0AFFAC0EB0010EF289B
:104A000034DC4FF0FF332A460621204603F020F81D
:104A100082E700201EF0A0FA322303FB00F350339C
:104A20001A4A82FB0312DD17C5EBA2152DB2CBE7A4
:104A300000201EF091FA322303FB00F35033134998
:104A400081FB0321DA17C2EBA11212B2C5E70020E5
:104A50001EF082FAC0EB001000F150030B4A82FBFB
:104A60000312DD17A5EBA2152DB2C3E700201EF03F
:104A700073FAC0EB001000F15003044A82FB0312EA
:104A8000DB17A3EBA2131BB2BDE700BF6766666628
:104A9000F0B583B01EF02AFA1EF02EFAB0F5A07F12
:104AA00000F39480894B00221A70894B894A136065
:104AB000894A1360854B1B78022B00F09680012BEE
:104AC00000F0A780854D864C864B00932B468A22AA
:104AD000214602201FF0FCFB834B00932B468F22C4
:104AE000214602201FF0F4FB2D2705201FF07EF841
:104AF000044600201FF07AF80246774D2B68009399
:104B000000232146184617F0A9FE784C204620F0D5
:104B100091FC7F21204621F00FF8754C204620F0B3
:104B200089FC6C4E3168204621F00CF8714C20460F
:104B300020F080FC002008F031F90146204620F0EA
:104B4000EBFF3168204620F0FDFF6B4C204620F043
:104B500071FC0021204620F051FF47F6FF712046EE
:104B600021F002F81EF0C2F900F0B8FD3A46042127
:104B70001DF0E0FB614B18601EF0B8F900F0AEFDCF
:104B80000022296806F0ECFC504B1B78022B4DD01C
:104B90005A4C5B4920681DF0E1FC074659492068E2
:104BA0001DF0DCFC0646584920681DF0D7FC054680
:104BB0003846FCF71DFC3046FEF7FEF92846FFF7A5
:104BC00051F82068FFF704FD03B0F0BD1EF08EF928
:104BD0001EF092F9B0F5347F03DA3C4B01221A70D3
:104BE00063E73A4B02221A705FE73C4D3C4C474B5F
:104BF00000932B467022214602201FF069FB444B94
:104C000000932B467522214602201FF061FB4627A8
:104C10006BE7404B0093314B7D22314902201FF05E
:104C200057FB2D4B2A4A1A602D275EE7334B186835
:104C30001DF09BFB04461EF059F91EF05DF900EBD8
:104C4000D070002240F34F01204606F01AFC2046A7
:104C500026F078FA0546304926F080FA1EF046F92B
:104C60001EF04AF900EBD0725210524292B2193241
:104C7000002312B20721284602F0EAFE204626F061
:104C8000EDFC064600221A4906F0F8F823493046A2
:104C900027F0B2F9002700970A231322294630464D
:104CA00003F0E4FF204626F0D9FC04461C4927F017
:104CB000A3F93A460D49204606F0E0F800970A238A
:104CC00015222946204603F0D1FF61E7440C00205D
:104CD00070480508480C00204C0C00208CE80408A3
:104CE00048E60408A0E70408FCE70408880C002054
:104CF000900C0020800C0020780C0020980C0020E4
:104D000070E8040878E8040884E804088CE60408DD
:104D1000E8E6040844E704083CCD040858E8040821
:104D200060E804082DE9F0416B4F6C4E6C4D6D4C02
:104D30003B463246294620462EF08EFBDFF8E481C2
:104D4000D8F81C1068482EF087FB0A202EF098FB3C
:104D50003B463246294620462EF07EFBD8F81810F6
:104D600062482EF079FB0A202EF08AFB3B46324641
:104D7000294620462EF070FBD8F820105C482EF013
:104D80006BFB0A202EF07CFB3B4632462946204630
:104D90002EF062FB98F8001056482EF05DFB0A20BA
:104DA0002EF06EFB3B463246294620462EF054FB41
:104DB00098F8271050482EF04FFB0A202EF060FB89
:104DC0003B463246294620462EF046FBD8F80C10CA
:104DD0004A482EF041FB0A202EF052FB3B46324659
:104DE000294620462EF038FBB8F80A1044482EF029
:104DF00033FB0A202EF044FB3B4632462946204630
:104E00002EF02AFBD8F814103E482EF025FB0A207D
:104E10002EF036FB3B463246294620462EF01CFB40
:104E2000D8F8101038482EF017FB0A202EF028FB77
:104E30003B463246294620462EF00EFB98F82410B9
:104E400032482EF009FB0A202EF01AFB3B46324670
:104E5000294620462EF000FB98F825102C482EF00D
:104E6000FBFA0A202EF00CFB3B4632462946204630
:104E70002EF0F2FA98F8261026482EF0EDFA0A20C5
:104E80002EF0FEFA3B463246294620462EF0E4FA42
:104E900008F1010120482EF0DFFA0A202EF0F0FA86
:104EA0005D23002211461D482BF060FDDFF878805D
:104EB0005D22002140462BF0B7FD3B463246294695
:104EC00020462EF0C9FA414615482EF0C5FA0A20B0
:104ED0002EF0D6FABDE8F081BCEA040814E9040813
:104EE00020E904082CE904083CE9040858E904080E
:104EF00074E9040898E90408ACE90408C4E9040862
:104F0000E0E90408F8E9040814EA040830EA0408AF
:104F100050EA040870EA040890EA040870010020CE
:104F2000A8EA040808FB00209C0C002008B50B48E8
:104F30000B4B03601023436000238360C360036155
:104F40004361037643768376C376037743772BF00A
:104F50001BFE00B908BD2AF09BFFFBE7FC0C0020FC
:104F60000064004010B588B00023039304930593B8
:104F7000069307930268254B9A4201D008B010BDF2
:104F80000024019403F5EA331A6C42F000721A64AB
:104F90001A6C02F000720192019A02941A6B42F0AC
:104FA00001021A631B6B03F001030293029B4FF48F
:104FB000C053039302230493059403230693092308
:104FC000079303A912482CF03BFA224621461320EE
:104FD0002BF0C4FF13202BF0F5FF224621461420AE
:104FE0002BF0BCFF14202BF0EDFF224621461520AC
:104FF0002BF0B4FF15202BF0E5FF224621461620AA
:105000002BF0ACFF16202BF0DDFFB7E7006400406B
:105010000000024008B50A22024903482EF0BDF8FC
:1050200008BD00BF240D0020C4FA002010B50A4BB3
:105030000A4A0B490B482EF00FFA0B4C21460B483D
:105040002EF00AFA0A202EF01BFA00232360636078
:105050002381FFF7DFFF10BD5CEC040814E90408AE
:1050600020E904082CE90408240D0020D8EA0408EB
:1050700010B582B00446036C082B12D0036C042BCD
:1050800021D0036C022B30D0036C102B3FD0036C6B
:10509000012B4ED0036C002B5DD0FFF7BBFF02B09D
:1050A00010BD364B019347230093354B354A3649A3
:1050B00036482EF0D1F9216C35482EF0CDF90A2072
:1050C0002EF0DEF9E9E72D4B0193492300932C4B99
:1050D0002C4A2D492D482EF0BFF9216C2D482EF079
:1050E000BBF90A202EF0CCF9D7E7244B01934B23D0
:1050F0000093234B234A244924482EF0ADF9216C18
:1051000025482EF0A9F90A202EF0BAF9C5E71B4B65
:1051100001934D2300931A4B1A4A1B491B482EF04A
:105120009BF9216C1C482EF097F90A202EF0A8F963
:10513000B3E7124B01934F230093114B114A1249CD
:1051400012482EF089F9216C14482EF085F90A20B6
:105150002EF096F9A1E7094B019351230093084BD8
:10516000084A094909482EF077F9216C0C482EF0BD
:1051700073F90A202EF084F98FE700BF74EC04085D
:10518000F0EA040814E9040820E9040820EB040804
:105190003CEB040864EB040888EB0408ACEB04085F
:1051A000D4EB04082DE9F0410446DFF87480164F73
:1051B000164E174D43463A46314628462EF04CF9D6
:1051C000216A14482EF048F90A202EF059F9434676
:1051D0003A46314628462EF03FF9A18C0E482EF073
:1051E0003BF90A202EF04CF943463A463146284610
:1051F0002EF032F9E18C89B208482EF02DF90A2000
:105200002EF03EF9BDE8F08114E9040820E9040815
:105210002CE90408F8EB040818EC040838EC04083E
:1052200088EC040810B582B000240094224B1A6B5D
:1052300042F480021A631A6B02F480020092009A10
:1052400001941A6B42F400121A631B6B03F40013EF
:105250000193019B224621460E202BF07FFE0E205B
:105260002BF0B0FE224621460F202BF077FE0F20B8
:105270002BF0A8FE2246214638202BF06FFE382066
:105280002BF0A0FE224621463A202BF067FE3A2062
:105290002BF098FE224621463B202BF05FFE3B2060
:1052A0002BF090FE2246214646202BF057FE46204A
:1052B0002BF088FE02B010BD003802402DE9F0410D
:1052C0008AB00024059406940794089409940094E5
:1052D0002B4B1A6B42F004021A631A6B02F00402A1
:1052E0000092009A01941A6B42F080021A631A6BC2
:1052F00002F080020192019A02941A6B42F00202BB
:105300001A631A6B02F002020292029A03941A6B59
:1053100042F010021A631A6B02F010020392039A11
:1053200004941A6B42F001021A631B6B03F0010331
:105330000493049BDFF850800122114640462CF074
:1053400069F9104E01224FF4607130462CF062F979
:1053500001250595069507940327089705A940465A
:105360002CF06EF84FF46073059306950794089738
:1053700005A930462CF064F80AB0BDE8F08100BF02
:1053800000380240001002400004024010B582B014
:105390008DF807000E4C00224FF4807120462CF04F
:1053A00039F900224FF4007120462CF033F94FF008
:1053B000FF3301220DF1070106482CF0AAFD01225E
:1053C0004FF4007120462CF025F902B010BD00BF4B
:1053D0000010024060F9002010B582B08DF807007F
:1053E0000E4C01224FF4807120462CF013F900225C
:1053F0004FF4007120462CF00DF94FF0FF330122DD
:105400000DF1070106482CF084FD01224FF40071D4
:1054100020462CF0FFF802B010BD00BF0010024083
:1054200060F90020F8B507460D4616461C462A20AE
:10543000FFF7ACFF380AFFF7CFFFF8B2FFF7CCFF5A
:10544000300AFFF7C9FFF0B2FFF7C6FF2B20FFF7C6
:105450009DFF280AFFF7C0FFE8B2FFF7BDFF200A53
:10546000FFF7BAFFE0B2FFF7B7FF2C20FFF78EFF80
:10547000F8BD000010B5104C01224FF40071204619
:105480002CF0C8F80122802120462CF0C3F83220ED
:105490002BF066FB0022802120462CF0BBF8322046
:1054A0002BF05EFB0122802120462CF0B3F8322045
:1054B0002BF056FB10BD00BF0010024010B50024B9
:1054C00006E0144B03EB84039878FFF75FFF013489
:1054D000104B33F82430013B032BF8D801A252F8CB
:1054E00023F000BF11550008C3540008F55400080C
:1054F00003550008074B03EB84039878FFF76CFF14
:10550000E5E7044B03EB840358882BF029FBDEE727
:1055100010BD00BFA0EC04082DE9F041BDF8185003
:10552000EF283EDC06460C4690461F46EF2938DC45
:105530008318F02B03DDC0F1F0080FFA88F8E319A7
:10554000F02B02DDC4F1F0073FB200224FF40071EE
:1055500015482CF05FF8B0B2A1B200EB080292B28D
:10556000CB199BB2013B013A9BB292B2FFF75AFFB3
:105570002E0AEDB20BE03046FFF72EFF2846FFF76C
:105580002BFF013C24B2002CF5DC013F3FB2002F81
:1055900001DD4446F7E701224FF4007102482CF088
:1055A00039F8BDE8F08100BF0010024000B583B0BB
:1055B0000090F0231A4600210846FFF7ADFF03B024
:1055C0005DF804FB08B5FFF755FFFFF777FF4FF6CF
:1055D000FF70FFF7EBFF002008BD00002DE9F04150
:1055E000064688461746234D00224FF40071284690
:1055F0002CF010F8B8F90000B8F90210B8F904203E
:10560000B8F906309BB292B289B280B2FFF70AFFB6
:10561000B8F90430B8F900401C1BB8F90630B8F9E5
:1056200002209B1A013304FB03335C0001224FF478
:10563000807128462BF0EEFF00224FF400712846BF
:105640002BF0E8FFA2B24FF0FF3339460A482CF0A6
:1056500060FC01224FF4007128462BF0DBFF012291
:105660004FF4007128462BF0D5FF30461DF083FC27
:10567000BDE8F0810010024060F9002010B504463A
:10568000FFF7ACFF20461DF076FC10BD08B5FFF714
:1056900099FF08BD38B5FFF7F9FF0B4D4FF41663BE
:1056A0000A4A0B4928461DF037FB0A4C20461DF0DC
:1056B0000BFBF02323806380074B6361E56020468A
:1056C0001DF038FB38BD00BF00330020F01F002064
:1056D000300D0020B03200207D56000810B582B099
:1056E000044618B134B1206902B010BD1DF0FEFBB4
:1056F0000446F7E7044B0093044B3622044902208A
:105700001EF0E6FD2046EFE7D0EF0408ACF00408F9
:1057100090EF040810B582B0044618B134B1606946
:1057200002B010BD1DF0E2FB0446F7E7044B009306
:10573000044B4722044902201EF0CAFD2046EFE731
:1057400000F00408C0F0040890EF040810B582B01F
:10575000044618B134B1E06902B010BD1DF0C6FBBB
:105760000446F7E7044B0093044B6D2204490220E2
:105770001EF0AEFD2046EFE734F00408D8F0040830
:1057800090EF040810B582B0044618B134B1206A15
:1057900002B010BD1DF0AAFB0446F7E7044B0093CE
:1057A000044B7E22044902201EF092FD2046EFE7C2
:1057B00070F00408F0F0040890EF040808B5034600
:1057C00008B1986808BD1DF091FB0346F9E78068B1
:1057D00058B1837E03F03F038B4205D9C06801EBCB
:1057E000410100EB8100704700207047037E13F0F9
:1057F000040F4FD110B50446037A233B012B01D887
:10580000012010BD4FF48041406801F0FCF80028F1
:10581000F7D0237A113B1B2BF3D801A252F823F0C7
:1058200091580008915800089158000891580008B4
:1058300091580008915800089158000891580008A4
:105840009158000891580008915800080358000822
:10585000035800089158000803580008035800082E
:105860009158000891580008915800089158000874
:10587000035800080358000803580008035800089C
:1058800091580008915800080358000891580008E2
:105890000020B6E70020704710B50C4628B100681C
:1058A00030B1036923B90068FAE74B681868F7E775
:1058B00060B1036963B10023E3600369214698473F
:1058C000237E13F0010F05D1012010BD0120FCE75C
:1058D0000120FAE70020F8E7F8B5064600F036FBAD
:1058E00058B1006883680BB1317A9847337E13F062
:1058F000020774D113F0010F5BD100217068FFF72C
:1059000066FF0446002511E06368F36023683046B3
:105910009847337E13F0020763D113F0010F48D18B
:10592000013529467068FFF752FF04467CB12368B1
:10593000002BF5D0237A94F90820002AF0DA802B86
:10594000E2D023F08003327A9342E9D1DCE731469A
:105950000020FFF7A1FF074620B100217068FFF784
:1059600036FF0446002511E06368F3602368304683
:105970009847337E13F002021BD113F0010F32D18E
:10598000013529467068FFF722FF04467CB1012FDC
:105990000DD12368002BF3D0227A94F90830002B24
:1059A000EEDB002AE0D0337A9A42E9D1DCE7012F1E
:1059B00001D03846F8BD73685B68002BF9D03046DB
:1059C000FFF714FF0028F4D073685B6873603046FB
:1059D000FFF782FF07460128EBD00027E9E7012700
:1059E000E7E70127E5E71746E3E70000D8B110B580
:1059F00088B0019002908DF80C100021049105925E
:105A00009DF81C3003F0FA0361F341038DF81C305C
:105A1000064C2368069301A82060FFF75DFF069BF4
:105A2000236008B010BD0120704700BF1C33002068
:105A30000068704740687047007A00F07F00704748
:105A400000697047C0687047084B1B6804E01A7E05
:105A500042F001021A765B6933B15A688242F6D08D
:105A60001A688242F7D1F2E7704700BF1C3300206A
:105A70002DE9F04184B004460F4616461D4601F05C
:105A8000EFF9A1688B7E03F03F02013262F3050358
:105A90008B76D4F8088098F81A1001F03F0101EBDA
:105AA00041018900D8F80C001EF0CAFDC8F80C00AE
:105AB000A368DA6852B39B7E03F03F0303EB430312
:105AC0009B000C3BD750A368DA689B7E03F03F0332
:105AD00003EB43039B000C3B13441E72A368DA687C
:105AE0009B7E03F03F0303EB43039B000C3B1344FB
:105AF0005D60A368D8689B7E03F03F0303EB43031C
:105B00009B000C3B184404B0BDE8F081064B0293A7
